:020000040800F2
:10000000E00C002061020008AD500008FD4500082A
:10001000A9500008A11B0008395700080000000083
:100020000000000000000000000000005551000822
:10003000A51B000800000000B1500008F5520008A0
:100040007B0200087B0200087B0200087B0200089C
:100050007B0200087B0200087B0200087B0200088C
:100060007B0200087B0200087B0200087B0200087C
:100070007B0200087B0200087B0200087B0200086C
:100080007B0200087B0200087B0200087B0200085C
:100090007B0200087B0200087B0200087B0200084C
:1000A0007B0200087B0200087B0200087B0200083C
:1000B000FD5200087B0200087B0200087B0200085A
:1000C0007B0200087B0200087B0200087B0200081C
:1000D0007B0200082D5700087B0200087B02000805
:1000E0007B0200087B0200087B02000800F002F897
:1000F00000F0A6F814A696E8000CB244B344DA4522
:1001000001D100F09DF8BAE80F000FA696E8300084
:10011000A5EB040504EB0607AAEB0704A7F101070A
:100120004FEA15154FEA3414A4F10104AC4201D38F
:1001300000F086F813F0010F18BFFB1A43F001031B
:1001400000F001F8DBE71847986A0000B86A000081
:10015000103A24BF78C878C1FAD8520724BF30C8F3
:1001600030C144BF04680C60704700007047000055
:100170000023002400250026103A28BF78C1FBD8B0
:10018000520728BF30C148BF0B6070476E2900F08E
:10019000A183702900F0F386662906F0888465291A
:1001A00006F08584672906F08284612906F081843F
:1001B00003681B0A28BF41F08001692900F04E83C3
:1001C000642900F04B83752900F048836F2900F003
:1001D0008186782900F0BF86E92900F01B86E42992
:1001E00000F01886F52900F01586EF2900F07E86CC
:1001F000F82900F0BE860368DB0928BF41F08001C2
:10020000632901F07F81732901F08481E32901F0E2
:100210008F81F32901F09481002070471FB500F011
:10022000FDFE04000020002106F0AEF8401C6060D6
:100230000020002106F092F8E0601FBD10B510BD4F
:1002400001F0D6FB1146FFF7E9FF05F077FA01F060
:10025000FDFB03B4FFF7F2FF03BC01F041FC00001B
:100260000948804709480047FEE7FEE7FEE7FEE74A
:10027000FEE7FEE7FEE7FEE7FEE7FEE70448054986
:10028000054A064B70470000F9520008ED000008CF
:10029000E0020020E00C0020E0060020E006002044
:1002A0007CB51D4616460C00009007D04142A14285
:1002B00002D32044401E01E04FF0FF30064B7B4448
:1002C0002A4669460190304600F02BFD002C02D0F2
:1002D000009A002111707CBD870A00000FB41CB584
:1002E0000C0007AA009007D04142A14202D320444B
:1002F000401E01E04FF0FF30074B7B446946019000
:10030000069800F00EFD0021002C01D0009A11701B
:100310001CBC5DF814FB00004B0A00002DE9F05FE7
:10032000894604464FF0000ADFF874B1FB44C0F878
:1003300020A02046E1688847002874D0252806D0F0
:10034000D4E901219047206A401C2062F1E7002691
:100350005F462046E16888472028054607DB312DA7
:1003600005D2781910F8200C08B10643F1E7B00760
:1003700001D526F00406C4F81CA00027C4F818A074
:100380002A2D09D0284605F0E1FF38B304EB870891
:10039000303DC8F8185019E059F8041B204604EB0A
:1003A00087029161E1688847012F054618D1E0690D
:1003B000002820DA26F020061DE0D8F8180000EB0F
:1003C000800005EB40003038C8F818002046E1688E
:1003D0008847054605F0BAFF0028EED1012F0AD064
:1003E0002E2D08D12046E16888477F1C0546022F44
:1003F00046F02006C4DBA069002803DA404246F03C
:100400000106A061F00701D026F010066C2D0BD07C
:10041000682D09D04C2D39D06A2D35D0742D35D0AA
:100420007A2D33D016E038E0E1682F462046884721
:10043000B842054609D16C2F26D04FF48060E168A0
:10044000064320468847054604E06C2F1AD04FF437
:10045000807006430DB3A5F14100192802D820355C
:1004600046F400664A462946204626604E46FFF777
:100470008DFE80B101280BD0F61D26F0070000F19B
:10048000080956E74020E4E78020D8E70020D6E7B7
:1004900006F104094DE7284652E7206ABDE8F09FBF
:1004A000866700000FB400B58DB010A909900091C7
:1004B0000B904FF0FF300A9000200C9006487844D3
:1004C0000690064878446A4607900F9909A800F0FC
:1004D00075FD0DB05DF814FB1B0B0000330B000025
:1004E0002DE9FF5F1D464FF0FF3B91464FF000089E
:1004F0005F46D5E90146A96901987F1C8847296AAA
:10050000824688470028F6D1BAF1FF3F0CD0002E72
:1005100024F4C06419DD600614D5BAF12B0F09D09C
:10052000BAF12D0F0ED103E0584604B0BDE8F09F9C
:1005300044F48064A96901987F1C8847761E82462E
:10054000002E02DDBAF1300F03D0B9F1000F26D032
:1005500032E0A969761E01987F1C44F40074884734
:10056000002E824605DDBAF1780F06D0BAF1580F99
:1005700003D0B9F1000F10D01EE0B9F1000F02D086
:10058000B9F1100F18D1A969761E01987F1C24F4C7
:10059000007488478246102002E0082000E00A200C
:1005A000814609E0A96908FB0908761E01987F1CAD
:1005B00044F4007488478246002E05DD49465046C3
:1005C00000F0E8FC0028EDDAE96901988847A00509
:1005D00002D46FF00100A8E7E00725D1600613D52B
:1005E000600502D5C8F1000000E0404629680A1DF8
:1005F0002A600968220501D5087015E0220701D597
:10060000088011E008600FE02868011D296000687B
:10061000210502D580F8008006E0210702D5A0F868
:10062000008001E0C0F8008038467EE72DE9FF5FDA
:100630004FF000089946144646469169D2E901A751
:10064000DDF838B001988847054659EA0B0005D017
:1006500009E0A1690198761C88470546216A284669
:1006600088470028F5D1681C03D05FEACA7005D01E
:1006700015E04FF0FF3004B0BDE8F09F2068011D89
:100680002160D0F800800AE05FEACA7001D108F862
:10069000015BA169761C01987F1E88470546002FE3
:1006A0001ADD681C18D0B9F1000F0DD0E81705EB62
:1006B000D060421120F01F0059F822102A1A0120A0
:1006C00090400142E0D107E0BBF1000FDCD12846A9
:1006D000216A88470028D7D0E16901988847BBF193
:1006E000000F07D1002E05DD5FEACA7002D100219C
:1006F00088F80010A068B84203DDBBF1000F03D0FA
:1007000017B16FF00100B6E73046B4E740EA0103E5
:10071000024630B59B0710D14FF0013400E008C20B
:1007200008C91D1B9D4315EAC41FF8D013F0FF0133
:1007300002F8011B0DD01B0AF8E711F8013B002B52
:1007400002F8013B05D011F8013B002B02F8013BF8
:10075000F3D130BD10B5431C02E010F8011B71B19C
:100760008107FAD14FF0013202C88C1A8C4314EA87
:10077000C211F9D0C01A0A0603D0C01E10BDC01A9B
:1007800010BD0A0401D0801E10BD0902FCD0401E1D
:1007900010BD70477047704770B5044685690068A2
:1007A000C10601D5302600E02026C00707D070BD65
:1007B000D4E9012130469047206A401C20626D1E1A
:1007C000F6D570BD70B5044685690078C00707D1BD
:1007D00070BDD4E9012120209047206A401C20628E
:1007E0006D1EF6D570BD09684A0501D540B2704747
:1007F000C905FCD500B2704709684A0501D5C0B2E9
:100800007047C905FCD580B2704770B50C460546E7
:10081000012A05D02878800600D5EA69002302E085
:10082000012305E05B1C934202D2E05C0028F9D171
:10083000A869E618C01AA861286A184428622846E0
:10084000FFF7AAFF04E0D5E9012114F8010B904756
:10085000B442F8D32846FFF7B5FF70BD2DE9F0414B
:100860000646002410687529314616A510D0FFF7FA
:10087000BAFF002802DA404213A507E031688A0770
:1008800001D512A502E0490704D511A5012401E014
:10089000FFF7B2FF00210A2206F1240709E0B0FBAE
:1008A000F2FCB0FBF2F302FB1C0030307854184627
:1008B000491C0028F3D123462A463046BDE8F041C2
:1008C00000F0FEBB000000002D0000002B00000027
:1008D0002000000011680268006A530501D5087005
:1008E0000AE0D30501D5088006E0130603D5C21738
:1008F000C1E9000200E00860012070472DE9FF4FC8
:100900000C461E464FF0FF378BB0D2E90001DDF8F0
:1009100060800A908A46C1F30A5505B93D46002118
:1009200008464FF00000BAF1000F00F4400005DA6D
:1009300000EB80004FF4400101EA50004FEA90596B
:10094000B9F1010F00DDB9460A9850EA4A000ED00D
:1009500044F61050A5F2FF3545432F14B8F1000FAF
:100960001ED07542291E1EDDC9F100021CE0B8F13F
:10097000010F4FF0000001D0302103E0F24305E009
:100980002154401CB042FBDB3046002200212154A0
:100990000B99C1F80880C1E900200FB0BDE8F08FC5
:1009A000BD1B6D1CDEE74A4600DA694206A800F06E
:1009B00085FF06AB93E8070003AB83E807005046CA
:1009C0000A9905F0E7F88DE80700A0F500501F38F8
:1009D00000900398002D0ADD42F21F014A460844A8
:1009E000002303A90390684605F050FB09E0A0F539
:1009F00000504A461F38002303A90390684605F0BB
:100A00005AFB8DE807000004000C03D04FF0FF30C4
:100A1000410800E01046B8F1000F03D00022009218
:100A200015461EE0751E05D400F0FCFA3032625502
:100A30006D1EF9D5B3460122084302D000227F1C67
:100A400004E02078302801D100227F1E002A099777
:100A500084D01DE0112D07DA00F0E4FA303262553F
:100A60006D1C50EA0102F5D1084302D00098C8B1CC
:100A70000EE00021681E05E0235C625C6354225492
:100A8000401E491C8142F7DBAB46A81B401E099063
:100A9000002004F80B000B98099AC0F80880C0E900
:100AA000002B7AE711264FF0000857E72DE9F04FA9
:100AB00088460446D21D22F0070191B0D1E9000119
:100AC000CDE90A0105F02EFC02460B98C00F01D0BB
:100AD0002D2007E02068810701D52B2002E020218E
:100AE00001EAC000032A099001D0072A05DB03466A
:100AF0004146204600F0BCFC0BE12078800601D581
:100B0000E06900E00620B8F1650F814606D0B8F133
:100B1000660F18D0B8F1670F70D131E00020B9F13D
:100B2000110F009001DB112301E009F101030AAA72
:100B300001A90CA8FFF7E2FEDDE90C70002609F11F
:100B40000105834647E001204B4600904FF00047E7
:100B50000AAA01A90CA8FFF7D1FEDDE90DB00C9996
:100B60005D46002610B909F101000D18B9EB05002A
:100B700003D4C0F1FF3609F10105A5EB09002BE014
:100B8000B9F1010F01DA4FF001090020B9F1110F9D
:100B90000090484601DD112300E003460AAA01A99E
:100BA0000CA8FFF7ABFEDDE90C704D46002683462E
:100BB000207800070AD4AB4500DA5D4601A8012D74
:100BC00004DD411911F8011C302907D04F4502DA24
:100BD00017F1040F04DA012082460FE06D1EEEE7E4
:100BE000002F02DCED1B3E4403E0781CA84200DD30
:100BF0007D1CB81B00F1010A4FF000472078000768
:100C000003D4AA4501DB4FF0FF3A0021B7F1004FB2
:100C10000DF143088DF8431024D002202B23002F20
:100C200001DA7F422D230A21021EA0F1010000DC1F
:100C30005FB197FBF1FC97FBF1F201FB1C7C1746BF
:100C40000CF1300C08F801CDEEE7A8F101000370BB
:100C50002188090501D5452100E06521A0F10108A1
:100C600000F8011C09980FA9A1EB0807FF1D00B1AE
:100C70000120411901EBEA70A1693844081A401EAD
:100C8000A0612078C00602D42046FFF785FD0998B0
:100C900028B1D4E901219047206A401C20622078C5
:100CA000C00622D52046FFF777FD1EE0002E04DBAC
:100CB000B34502DD01A8805D00E03020D4E90121C8
:100CC0009047206A401C2062761CAAF101005FEA6E
:100CD000000A0AD100F0A2F9C0680168405CD4E9BA
:100CE00001219047206A401C2062281EA5F10105C1
:100CF000DCDC07E0D4E9012118F8010B9047206AF9
:100D0000401C2062381EA7F10107F3DC2046FFF7E4
:100D100059FD032011B041E601694A1C02610878BF
:100D2000704700B58FB0CDE901310021059105492B
:100D30007944CDE9031011466846FFF7EFFA0FB08A
:100D400000BD0000E5FFFFFFD1E900239A4202D277
:100D5000531C0B60107070472DE9FF5F15468A46E3
:100D60000446DFF8AC80F8440027D8E900103E467E
:100D7000CDE9001010E03AF816106A4602A800F01B
:100D80000FFE411C07D02178890603D5E269391886
:100D900091420DD80744761C2078800602D5E06980
:100DA000B84205DDAE42E6DB3AF816000028E2D193
:100DB000A069C01BA0612046FFF7EEFCD8E9001037
:100DC000CDE90010002017E03AF818106A4602A892
:100DD00000F0E6FDB0F1FF3F81460BD000250DF19C
:100DE000080B05E0D4E901211BF8050090476D1CB4
:100DF0004D45F7D308F10100B0428046E4DB206A9C
:100E0000384420622046FFF7DDFCBDE8FF9F00006C
:100E10005E5D00002DE9F0418046D21D22F0070200
:100E20000025D2E90002F52915A614D0011E72F1A1
:100E3000000106DA0023D0EB030063EB020211A6E7
:100E400008E0D8F800108B0701D50FA602E049078B
:100E500001D50EA601251146002408F1240704E05F
:100E600000F0E0F830323A55641C50EA0102F7D144
:100E70002B46324621464046BDE8F04100F020B9FD
:100E8000000000002D0000002B00000020000000EA
:100E900030B4002100F1240408E002F00705D20874
:100EA000303542EA4372DB086554491C52EA0305B7
:100EB000F3D10468002310A2250708D504F020040C
:100EC0000C4304D0C46901230CA2641EC46130BC6D
:100ED00000F0F6B810B5044621461068FFF78CFC08
:100EE00002462046BDE810400023D1E7D21D22F083
:100EF0000701D1E90023CBE700000000300000002B
:100F0000F0B40D460188090502D5214C7C4402E06D
:100F10001F4C7C440E34002100F1240608E002F04E
:100F20000F071209E75D42EA03721B097754491C57
:100F300052EA0307F3D102780023120704D5702D7B
:100F400006D009B1022311342246F0BC00F0B8B833
:100F500001231034F8E770B504460D4621461068A9
:100F6000FFF74AFC024629462046BDE870400023B0
:100F7000C6E7D21D22F00703D3E90023C0E70368C8
:100F8000126843F0200303600823C3610023B7E71E
:100F9000C05B00003A2800D2303820F02002412AFD
:100FA00001D3A2F13700884201D34FF0FF307047E0
:100FB000026811441378016018467047D1600549F2
:100FC000794451610449794411620021116111464B
:100FD00000F0BABAEDFFFFFFE5000000426842B141
:100FE000016811F8013B23B1521EC0E900121846F6
:100FF00070470121C160881E704742685AB1C368BA
:10100000016843B983688B4205D0491E521CC0E970
:101010000012002070474FF0FF30704700487047C3
:101020003000002030B5B0F10A0271F100034FEA40
:10103000900E4EEA817EB0EB0E0061EB91014FEA1B
:10104000101E4EEA017E10EB0E0041EB11114FEA2B
:10105000102E4EEA016E10EB0E0041EB11214FEA0B
:10106000104E4EEA014E10EB0E0041EB11414018BC
:1010700041F100014FEAD00040EA41704FEAD1014E
:101080004FEA810444EA907410EB800544EB0104BC
:101090006D1944EB0404521BA3414FF0000348BFF9
:1010A0000A3200D530BD401C41F1000130BD10B501
:1010B000044600F0C3FC0068005D00F0010010BDB4
:1010C0002DE9F0470D4699469246044600F1240862
:1010D0000168880604D5E06921F01001216000E074
:1010E0000120A84201DD471B00E00027A1697A1911
:1010F00002EB0900081AA0612078C00602D420463D
:10110000FFF74AFB002608E0D4E901211AF806009F
:101110009047206A401C761C20624E45F4DB207804
:10112000C0060AD52046FFF737FB06E0D4E90121C7
:1011300030209047206A401C2062381EA7F101072A
:10114000F4DC07E0D4E9012118F805009047206A93
:10115000401C2062281EA5F10105F3DC2046FFF7A4
:1011600031FB2078000602D50220BDE8F08701207F
:10117000FBE700002DE9F04F04460D46D21D22F09A
:10118000070089B0D0E900974846394605F0CAF80B
:101190000246F80F01D02D2307E02068810701D512
:1011A0002B2302E0202101EAC0038DF820300BB18F
:1011B000012000E00020032A824601D0072A04DB38
:1011C0002946204600F054F93FE12078800601D4FA
:1011D0000D2500E0E569C7F30A560D2D49DA002117
:1011E0004FEA175B08464FF00000002F00F4400064
:1011F00007DA00EB80004FF4400100EBD07001EA09
:1012000060008115012901DD4FF0FF3100224FEA16
:10121000850CBCF1180F06D31346ACF118004FF043
:101220008052C24003E04FF4801323FA0CF30CF118
:101230000C0CBCF1200F04D3ACF1200C09FA0CF01B
:1012400001E007FA0CF000294FF0004801DD18B961
:101250000FE00ED140450CD319EB02095F4121B9D3
:10126000404502D19F4329EA0209BBEB175F00D03A
:10127000761C2088000502D57B48784402E07A4835
:101280007844193808AA302302F80A30037C0AF19E
:101290000101002E0AF1020A53546A4602DC4FF0A3
:1012A000300101E04FF031014FF001088DF80010DE
:1012B00002D0A6F2FF3603E059EA470100D06B4E98
:1012C000002D02DC2178090704D54FF002082E21F9
:1012D0008DF80110C44600210BE0C7F303433F0122
:1012E000C35C491C6D1E02F80830052908F101088D
:1012F00001DA002DF1DC00210CE000EB1973491C30
:101300001B786D1E082902F808304FEA091908F108
:10131000010801DA002DF0DC21688B0602D516E009
:10132000A8F10108E04505DD02EB080313F8013CD4
:10133000302BF5D0B8F1000F09DD02EB080313F8EC
:10134000013C2E2B03D1090701D4A8F10108002D7F
:1013500005DD3E2102F808106D1E08F10108407CF1
:10136000002E02F8080008F1010804DA2D20764268
:1013700002F8080002E02B2002F808000A214FF4CE
:101380007A70864208F101080BDB96FBF0F33033EC
:1013900002F8083096FBF0F308F1010800FB136631
:1013A00001E0642E0CDB642096FBF0F3303302F88E
:1013B000083096FBF0F308F1010800FB136601E02A
:1013C0000A2E06DB96FBF1F0303002F8080008F137
:1013D000010896FBF1F001FB1060303002F80800C4
:1013E000A16908F1010808EB050202EB0A00081ADE
:1013F000A0612078C00602D42046FFF7CDF9216A0B
:1014000008AE01EB0A00206204E0D4E9012116F8DD
:10141000010B9047BAF1010AF7D22078C00602D535
:101420002046FFF7B9F96E4609E016F8010B3E2891
:101430000FD0D4E901219047206A401C2062B8F106
:101440000108F2D22046FFF7BDF909B00320BDE83C
:10145000F08F206A2844206203E0D4E90121302083
:1014600090476D1EEBD3F8E78D58000002FCFFFF9C
:101470002DE9F0411F46044603260168072A01F4BE
:10148000006004DB08B116A505E016A503E008B16D
:1014900015A500E015A521F010002060A069C01E70
:1014A000A0610FB1401EA0612046FFF775F94FB152
:1014B000D4E9012138469047206A401C2062C01CB4
:1014C000206206E0206AFAE7D4E9012115F8010B51
:1014D0009047761EF8D22046FFF774F9BDE8F081F8
:1014E0004E414E006E616E00494E4600696E6600C8
:1014F00010B5436913B1AFF3008001E0FFF785F940
:10150000012010BD127800F124010A7000224A70F7
:101510000122EDE711684FF0FF32E9E710B54369AA
:1015200013B1AFF3008001E0FFF716FC012010BDFE
:10153000128800F1240182840022C2840122EDE796
:1015400011684FF0FF32E9E72DE9F34F4FF0000A41
:101550000C4656468DB001200C9001F10C000B900A
:1015600062690B9801219047051E2DD0252D2CD0A6
:10157000216A8847C0B162690B9801219047216AAE
:1015800088470028F7D16269411E0B98904700E018
:10159000761CA1690D988847216A88470028F7D1F1
:1015A000E1690D988847DBE7A1690D988847A84253
:1015B000074601D1761CD3E7E1690D9888477F1C67
:1015C00002D1BAF1000F6FD06BE162690B9800276E
:1015D0003D46394690472A2804D162690B9801217B
:1015E00090470125DFF8D08262690B98012190476E
:1015F000A0F130010A290AD24745E5DC07EB870153
:1016000000EB4107303FDFD445F01005ECE7E90679
:1016100001D46FF000476C280AD04C2814D06828F9
:1016200015D06A280DD074281CD07A281AD01DE055
:1016300062690B98012190476C2802D045F004059F
:1016400014E045F002050DE045F020050AE062696E
:101650000B9801219047682802D045F0080505E065
:1016600045F4006562690B9801219047C4E9015770
:1016700065283DD019DC58287AD00CDC452837D0B5
:1016800004DC252826D041289ED131E046282FD0E1
:10169000472899D12CE05B2877D0612828D063288F
:1016A0007CD0642823D15AE0F6E06F2848D008DCCB
:1016B00066281DD067281BD0692821D06E2816D136
:1016C00027E0702845D0732868D0752847D078283F
:1016D0000DD14DE0A1690D988847252805463FF4B6
:1016E00069AFE1690D9888476D1C3FF46AAFD8E097
:1016F0000D9923466A466FF00100AFF30080C5E004
:1017000045F0400023464FF000026060A80736D441
:101710003EE0E8077FF447AF2068011D21600068C4
:10172000290501D506701BE7290701D5068017E7B3
:10173000A90703D5F117C0E9006111E706600FE7BB
:1017400045F0400023464FF008026060A80716D419
:101750001EE040F60E0125EA0100606016E045F04B
:10176000400023464FF00A026060A80707D40FE04C
:1017700045F040006060A80708D5234610220D9967
:101780006FF00100AFF3008080E007E010222346F5
:101790000D996FF00100FEF7A3FE77E04FF000090E
:1017A00063284F46C8464B46CB4602D05B2806D03E
:1017B00038E0E80601D40120A060012732E0626928
:1017C000D4F80CB00B98012190475E2807D14FF058
:1017D000010949466269D4F80CB00B989047216919
:1017E00039B900210A4603AB43F82120491C0829D6
:1017F000FADBD8B3216949B308F1010862690B9893
:10180000012190475D28F4D1B9F1000F09D00020E3
:1018100003A951F82020D24341F82020401C082879
:10182000F7DB03AB2069002820794FEA40701ED017
:101830005B462246CDF80080CDE901970D9900283E
:101840006FF0010020DAAFF300801FE0C11703AA98
:1018500000EBD1614B1121F01F0102EB8302411A11
:1018600013680120884003431360C7E719E00D990E
:10187000224600286FF00100009702DAAFF30080E3
:1018800004E0FEF7D3FE01E0AFF3008000280ADA9F
:10189000401C06D10C9820B14FF0FF300FB0BDE8CE
:1018A000F08F5046FAE7E90701D10AF1010A064430
:1018B00000200C9054E60000CCCCCC0C2DE9F04775
:1018C000814616468AB0354878440DC88DE80D002B
:1018D00032487844801C03AC0DC884E80D0041F602
:1018E0009B300844372190FBF1F290FBF1F5A5F114
:1018F000800501FB12041B3C02D56442012000E07C
:101900000020DFF898A080460027FA44AAF1BE0A1A
:101910000EE0E0070AD03246684607EB4701012394
:101920000AEB810104F0C7FB8DE8070064107F1CFF
:10193000002CEED1194F7F44AE3F19E0E80715D0D7
:1019400007EB04100DF1180A90E80E008AE80E006B
:10195000C068F04201D1981908903246012306A9C7
:1019600003A804F0A8FB03AB83E807006D10641C18
:10197000002DE3D14FF0010332466946B8F1000F64
:1019800003A802D004F082FB01E004F094FBC9E953
:101990000001C9F808200AB0BDE8F087D052000065
:1019A0002DE9F04116460C46054600F047F803685D
:1019B00093F80101012807D0FF2C12D8185D80B1DF
:1019C00001202C70BDE8F081D3F807013246214692
:1019D00003F20713C7182846BC46BDE8F0410023B0
:1019E00060474FF0FF30EDE70048704710000020DF
:1019F0007546FFF7F9FFAE4605006946534620F0ED
:101A00000700854618B020B5FEF738FCBDE8204039
:101A10004FF000064FF000074FF000084FF0000BAA
:101A2000AC46ACE8C009ACE8C009ACE8C009ACE819
:101A3000C00921F007018D467047000010B5FFF77F
:101A4000EDFA001D10BD00BF4149000010B504466D
:101A5000AFF300802046BDE81040FEF7FABB00005F
:101A60004FF0013C50F8042B51F8043B9A4221D12D
:101A7000A2EB0C03934313EACC1317D150F8042BB9
:101A800051F8043B9A4215D1A2EB0C03934313EA9D
:101A9000CC130BD150F8042B51F8043B9A4209D1D6
:101AA000A2EB0C03934313EACC13DBD04FF00000FE
:101AB000704700BFD01A01BAB1FA81F101F01801E4
:101AC00022FA01F0CB40DBB2C0B2C01AC1F1200152
:101AD0002CFA01F3D11A914311EAC311E6D17047F0
:101AE00001491820ABBEFEE7260002007047000047
:101AF000B0B582B004460020019021688A68D20700
:101B00004BD1886840F00100886040F20800C2F2C2
:101B1000000000684DF68361C4F21B31A0FB010197
:101B2000880C01900198A0B10198013801900198AA
:101B300078B1019801380190019850B101980138AD
:101B40000190019828B1019801380190019800286E
:101B5000EAD100F011FD21688968C9071CD105464A
:101B600003E000BF8068C00716D100F005FD411BEF
:101B700020680329F6D38168C907F3D1A06A40F031
:101B80001000A062E06A40F00100E062002084F8EA
:101B90002400012002B0B0BD002002B0B0BD0000A2
:101BA000FEE700007047000083B010B581B040F23E
:101BB0007424844603A8C2F200040EC003AB20467E
:101BC000642162460093FEF76BFB2046FEF7C2FDE0
:101BD00082B240F22C20C2F200002146642302F0BF
:101BE00041FC01B0BDE8104003B07047EFF3108036
:101BF00072B600BFFEE7000070B581B0002200920F
:101C000090F82420012A03D10221084601B070BDBA
:101C10004A680123062A02EB820E80F8243007D896
:101C2000D0F800C06FF004030CF134060CE000BFE4
:101C3000D0F800C00C2A87BF0CF12C066FF04003CF
:101C40000CF130066FF022030EEB03021F23346801
:101C500003FA02F50B6824EA050503FA02F22A43A7
:101C60003260092B03EB43021AD9DCF80C601E3AF0
:101C7000072589689540AE43914023F00102314326
:101C8000102ACCF80C1015D142F20041C4F2010127
:101C90008C4517D0816A41F02001816201210AE060
:101CA000DCF81030072689689640B3439140194309
:101CB000CCF810100021002280F82420084601B042
:101CC00070BD00BF89680902F4D4DCF80810102B3D
:101CD00041F40001CCF80810ECD140F20801C2F246
:101CE000000109684DF68362C4F21B32A1FB0212A7
:101CF000910C01EB81014900009100990029D9D094
:101D000000990139009100990029D3D00099013937
:101D1000009100990029CDD00099013900910099D6
:101D20000029C7D0009901390091009900294FF08E
:101D30000001E5D1BFE700000068C06C70470000FB
:101D4000002804BF01207047B0B50446806A28B15E
:101D500021688868C0070CD115E000BF0020E06250
:101D600084F82400204600F097F821688868C007AE
:101D700009D0886820F00100886000F0FDFB216830
:101D80008A68D20726D1A06AC0063AD4A06A41F276
:101D9000021290430230A062E069D4E9013240EAC5
:101DA000030C531EB3FA83F35D091346B2F5807F2B
:101DB00018BF2B02207D257B01284CEA45002CD141
:101DC00035B3A56A45F02005A562E56A45F0010531
:101DD000E56222E0054602E08868C007D3D000F043
:101DE000CBFB401B21680328F6D38868C007F3D0DB
:101DF000A06A40F01000A062E06A40F00100E062DA
:101E0000A06AA06A40F01000A0620120B0BD00BF2F
:101E1000A56903EB4533A3F5C0534D68B2F5807F48
:101E200025F4694543EA05034B608B684FF2FD7565
:101E3000CFF6E17503EA050343EA00038B6001D0A6
:101E4000012A07D122690023CFF6F07303EB025277
:101E500001E000BF0022CB6A23F470031A43CA6278
:101E6000896840F6FE62CFF61F721140814207D1A9
:101E70000020E062A16A012262F30101A162B0BD0B
:101E8000A06A40F0100020F00200A062E06A40F07A
:101E90000100E0620120B0BD80B586B0014640F689
:101EA0000040C4F20100096800F5C05291424FF0B1
:101EB0000001CDE90411CDE9021101D006B080BDC9
:101EC00041F21801C4F202010A6842F400720A6089
:101ED0000A6802F400720192019A0A6842F008024C
:101EE0000A60096801F0080101910199022102913B
:101EF0000321039102A900F037FA06B080BD00006B
:101F00002DE9F04182B000270D460446019700F00C
:101F100033FB21688A68D20544D406464868C00568
:101F200003D4C86A10F4700F46D040F20800C2F221
:101F30000000076842F292480220C1F2492800F0EE
:101F4000E5FF216844F624130A69B7FBF0F0C2F2FA
:101F500092431A4206D1CA6844F62413C0F292038F
:101F60001A425BD00A6912EA080F07D1CA6842F226
:101F70009243C0F249031A4200F0C0800A6949F254
:101F80004923C0F224031A424FF0FC0254D1CF6817
:101F90001F4208BF5422019B02FB00F7BB4250D3F3
:101FA000C3E000BFA06A40F02000A06284F8247063
:101FB000012002B0BDE8F0810868800700F1B5801B
:101FC000681C00F0A880FDB90868800770D5086813
:101FD000800700F1AA800868800769D50868800733
:101FE00000F1A3800868800762D50868800700F1C7
:101FF0009C80086880075BD508688007E4D594E07A
:102000000868800700F1918000F0B6FA801B216813
:10201000A842F5D908688007F2D449E00A6912EAB3
:10202000080F4FF0290207D1CB6842F29247C0F265
:1020300049073B4208BF1422019B02FB00F7BB4249
:1020400073D2681C52D05DBB0198B84230D301985E
:10205000013001900198B84267D20198B84227D365
:102060000198013001900198B8425ED20198B842BF
:102070001ED30198013001900198B84255D20198C1
:10208000B84215D30198013001900198B842DBD3D2
:102090004BE000BF0198013001900198B84235D261
:1020A00000F06AFA801BA842F4D90198B842F1D234
:1020B000A06A40F00400A062002084F824000320FD
:1020C00002B0BDE8F08100BF019801300190019895
:1020D000B8422AD20198013001900198B84224D226
:1020E0000198013001900198B8421ED20198013048
:1020F00001900198B842E7D317E000BF5422019B3A
:1021000002FB00F7BB429CD30FE000BF21680CE04C
:102110000868800709D40868800706D40868800723
:102120005CBF08685FEA8070F2D56FF0120008604B
:10213000A06A40F40070A062886800F46020B0F5E6
:10214000602F01D1207B18B1002002B0BDE8F081E2
:10215000A06A20F48070A062A06AC004F4D4A06ACF
:1021600040F00100A062002002B0BDE8F081000054
:1021700010B5044690F82400012804BF022010BDC9
:10218000012084F824002046FFF7B2FC20B1002093
:1021900084F82400012010BD42F2044C2068A16A9A
:1021A000C4F2010C40F2013291430CF57F7201F54B
:1021B00080719042A16229D0A16A21F48011A162AC
:1021C0004168490504D5A16A012363F30D31A16279
:1021D000A16A0023C9044FF0000144BFE16A21F065
:1021E0000601E1626FF0020184F824300160816829
:1021F00001F46021B1F5602F1BD1904214D08168A9
:1022000041F4A0018160002010BD00BFDCF8001087
:1022100011F4702FD0D0A16A41F48011A162DCF8D2
:1022200000104905CFD4D3E7DCF8001011F4702F6B
:10223000E5D0816841F480118160002010BD00006C
:10224000014690F82100022816D10868D1E90FC391
:10225000026822F00E020260026822F001020260AF
:10226000012000FA03F2CCF8042081F821000020BC
:10227000002281F82020704704208863012000227A
:1022800081F820207047000090F82110022923D106
:10229000026840F2040C1168C4F2020C21F00E0135
:1022A000116013682F21C4F202018A4223F0010356
:1022B000136015DD3023C4F202039A421CD044237C
:1022C000C4F202039A421BD05823C4F202039A427A
:1022D0001CD14FF4803321E0042181630120704739
:1022E0000823C4F202039A420ED01C23C4F2020354
:1022F0009A420BD1102311E04FF480730EE000BF1F
:102300004FF480530AE000BF012307E00CF168019D
:102310004FF080738A4208BF4FF480130121CCF83C
:10232000003080F82110416B0022002980F8202025
:1023300004BF0020704780B58847002080BD0000A2
:10234000B0B5044600F018F9054640F20000C2F2AC
:1023500000000078611C18BF044400BF00F00CF9B5
:10236000401BA042FAD3B0BD2DE9F04F82B00E68F9
:10237000002E00F0FD8041F20042C4F2010204236D
:1023800040F2004E904208BF03234FF6FF7CC4F298
:10239000010E009300240123C1F2100C4FF0000A3B
:1023A0004FF000094BE000BF41F20002C4F201020D
:1023B000009F904208BF022704F00C030F229A40AE
:1023C0002BEA020207FA03F34FEA9A051A4346F88A
:1023D00025204E6840F20C45F202DEF8082054BF7A
:1023E00022EA080242EA0802C4F20105CEF80820F7
:1023F0002A68B30254BF22EA080242EA08022A60AD
:10240000B303DEF8042054BF22EA080242EA0802BD
:10241000F303CEF80420DEF800204FF0010354BF90
:1024200022EA080242EA0802CEF800200E680AF109
:10243000010A36FA0AF204F1040400F0998003FA62
:102440000AFB16EA0B08F1D04E68664512DC122E24
:1024500056D8DFE806F0350B4D49555555555555BD
:102460005555555555555545510000BFD1F80C905F
:1024700046E000BF4FF6FF72C1F2210296420FDC28
:102480000022C1F2110296421AD00022C1F21202B9
:10249000964215D00022C1F22102964210D02FE0C0
:1024A0000022C1F2220296420AD00022C1F2310279
:1024B000964205D00022C1F23202964220D100BFDE
:1024C0008A684AB1012A14BFC0F814B0C0F810B02D
:1024D0004FF0080914E000BF4FF0040910E000BFFE
:1024E000CA6802F104090BE04FF0000908E000BFE0
:1024F000CA6802F1080903E0CA6802F10C0900BFCA
:1025000002462646B8F5807F24BF0432203E176875
:102510000F25B54027EA050509FA06F6354315608B
:10252000CA79D2067FF582AF41F21803C4F20203E2
:102530001A68AEF57E7642F001021A601A6802F05F
:1025400001020192019A2AF0030256F802B040F605
:102550000002C4F20102904208D040F60042C4F2E8
:10256000010290427FF420AF012725E7002723E7EF
:1025700002B0BDE8F08F000040F2D820C2F20000A7
:1025800000687047002804BF01207047F0B581B093
:10259000044690F83D0028B9002084F83C0020460D
:1025A00000F090FB242084F83D002068016821F0B1
:1025B00001010160016841F400410160016821F4FA
:1025C0000041016000F07EFE636848F2A16CC0F239
:1025D000010C40F60011C0F23D0163453CBF48F2DA
:1025E0008041C0F21E01884202D2012001B0F0BD3C
:1025F0004DF68361C4F21B31A0FB01122168970CD8
:10260000D1F804E04FF496762EF03F0545EA924566
:102610004D60774348F638160D6AC0F24106A7FBB5
:10262000067625F03F07634538BF960C721C3A4387
:102630000A62CA6948F2A0664CF6FF77C0F201064A
:10264000B34222EA07020BD801385B00B0FBF3F07B
:1026500001306FF31F30042898BF04201BE000BF37
:10266000A768013857B119277B43B0FBF3F001305D
:102670006FF31F3070B100F5804007E003EB4303B8
:10268000B0FBF3F001306FF31F3018B100F50040DC
:1026900001E000BF01201043C8610868D4E90723A6
:1026A00020F0C000104318430860886848F2FF32E9
:1026B00004F10C0790438CCF18431043A66988603F
:1026C000C86820F0FF0038433043C860086840F015
:1026D0000100086000202021206484F83D10206360
:1026E00084F83E0001B0F0BD2DE9F04784B0044607
:1026F00000201F46164689460290FFF73DFF94F8DA
:102700003D10202924D10546206800BF8169890732
:102710001AD5FFF731FF411B20681A29F6D38169CA
:102720008907F3D500202021206384F83D1084F828
:102730003E00216C41F02001216484F83C0002201D
:1027400004B0BDE8F08700BF94F83C10012903D124
:10275000022004B0BDE8F087012184F83C10016834
:10276000C90703D1016841F0010101600168DDF88A
:10277000308021F400610160222184F83D10102195
:1027800084F83E100021216466626785618D02270E
:10279000C0F201072185A7F10211E162E16A026836
:1027A00011F5803F42F48062026018BF01293DD1DB
:1027B000016841F48071016020464FF00111002250
:1027C0004346009501F07AFF50B120680068C005CB
:1027D00044BF4FF400702064012004B0BDE8F087CE
:1027E0002069B0F5804F27D149F00100C0B22168BF
:1027F00042460861204639462B4602F045F800283B
:10280000EAD1208D022861D0012849D0002840F06B
:1028100073800020039020684169039181690391CE
:102820000399016841F40071016071E00829BFD08B
:10283000216B1129BCD0BFE7062000EAD916206819
:1028400006F1F0010161B91D204642462B4602F017
:102850001BF80028C0D120685FFA89F10161204689
:10286000394642462B4602F00FF80028B4D100202A
:1028700003902068002241694346039181690391D6
:102880000399016841F48071016020464FF0011105
:10289000009501F013FF002897D146F0F100A6E75C
:1028A0002068016821F480610160EFF3108072B646
:1028B0000020039020684169039181690391039985
:1028C000016841F40071016062B621E0206801688E
:1028D00041F400610160EFF3108072B600200390B4
:1028E000206841690391816903910399016821F48A
:1028F0008061016062B60BE02068016841F480618C
:10290000016000210391416903918069039003985C
:10291000208D002800F0CA8040F208094BF2895A45
:102920000237C2F20009C1F2F84A23260EE000BFC6
:1029300010690870606A218D01306062481E208530
:10294000618D01396185010400F0B08080B20328F7
:102950000CD802282CD001284AD1204641462A46CC
:1029600001F0FEFF002800F09C8035E7204641463C
:102970002A4601F0F5FF00287FF42EAF2068616A37
:1029800000690870606A2268411C208D616201380C
:102990002085638D013B638553695B07D3D580B286
:1029A0000328C5D1106820F480601060C0E700BF24
:1029B0002046394600224346009501F07FFE00285C
:1029C0007FF40AAFEFF3108072B62068616A026884
:1029D00042F40072026000690870606A218D013063
:1029E0006062481E2085608D0138608562B658E0BF
:1029F0002046394600224346009501F05FFE00283C
:102A00007FF4EAAE2068016821F480610160EFF391
:102A1000108072B62068616A00690870606A218D52
:102A20000130013960622185618D01396185D9F8F4
:102A30000010C908A1FB0A12110A71430291029900
:102A400001390291029900293CD021684A69520754
:102A500017D4029A013A0292029A9AB34A6952072B
:102A60000FD4029A013A0292029A5AB34A69520763
:102A700007D4029A013A0292029A1AB34A6952079B
:102A8000DDD50A6842F400720A6009690170606A63
:102A9000218D01306062481E2085608D013860857F
:102AA00062B62068616A006943E700BF202084F8AD
:102AB0003D00002084F83E0084F83C0004B0BDE8EE
:102AC000F08700BF00202021206384F83D1084F8A7
:102AD0003E00216C41F02001216462B684F83C0084
:102AE000012004B0BDE8F0872DE9F04383B01E4615
:102AF000174689460446FFF73FFD94F83D1020290C
:102B000024D10546206800BF816989071AD5FFF7DF
:102B100033FD411B20681A29F6D381698907F3D553
:102B200000202021206384F83D1084F83E00216CB1
:102B300041F02001216484F83C00022003B0BDE88C
:102B4000F08300BF94F83C10012903D1022003B0A8
:102B5000BDE8F083012184F83C100168C90703D166
:102B6000016841F001010160016840F2020821F4AE
:102B700000610160212184F83D10102184F83E108D
:102B80000021216467626685618DC0F2010821859C
:102B9000A8F10211E162E16A0A9E11F5803F18BFB7
:102BA00001291DD1016841F48071016020464FF078
:102BB000011100223346009501F080FD50B12068DC
:102BC0000068C00544BF4FF400702064012003B0CA
:102BD000BDE8F0832069B0F5804F07D1FE2015E0F5
:102BE0000829DFD0216B1229DCD0DFE7062000EABC
:102BF000D9102168F030086108F1060120463246FC
:102C00002B4601F041FE0028E0D1FF20216800EAB8
:102C1000090008612046414632462B4601F034FE49
:102C20000028D3D100200290206841690291806978
:102C30000290029806E000BF204631462A4601F085
:102C4000DFFC18BB208D68B3204631462A4601F0D0
:102C5000CFFED8B9606A2168024612F8013B0B61C9
:102C60006262628D013A6285228D531E23854F690F
:102C70007F07E1D51B04DFD0437802300B6160622F
:102C8000608D01386085901E2085D5E7206C042872
:102C90009CD12068016841F400710160012003B0FB
:102CA000BDE8F0832068016841F4007101602020D4
:102CB00084F83D00002084F83E0084F83C0003B016
:102CC000BDE8F08310B586B0006845F60001C4F297
:102CD000000188424FF00001CDE90411CDE9021155
:102CE00028D045F20041C4F20001884246D141F2A9
:102CF0001804C4F20204206802A940F00800206011
:102D0000206800F0080001900198C0200290122075
:102D100003900320059040F60040C4F20100FFF745
:102D200023FB606840F400106060606800F40010ED
:102D300022E000BF41F21804C4F20204206802A994
:102D400040F008002060206800F008000190019821
:102D50004FF440600290122003900320059040F64B
:102D60000040C4F20100FFF7FFFA606840F4800001
:102D70006060606800F480000190019806B010BDAA
:102D800040F2000040F2D821C2F20000C2F200017D
:102D900000780A68104408607047000080B542F26D
:102DA0000000C4F20200016841F01001016003203C
:102DB00000F08CF80F2000F005F800F027F8002054
:102DC00080BD000070B540F20006C2F2000640F27D
:102DD00008013278C2F200014FF47A730968B3FB3C
:102DE000F2F20446B1FBF2F1084600F09DFC0F2C14
:102DF0004FF0010508D838B94FF0FF3021460022C6
:102E0000002500F037F87460284670BD82B041F2AA
:102E10001800C4F202000168022241F001010160C1
:102E2000016801F0010101910199416841F080516F
:102E30004160406800F08050009000980420C4F287
:102E40000100016862F31A61016002B0704700007E
:102E5000002848BF704700F01F01012202FA01F16B
:102E60001C2202EAD0004EF20012CEF20002815083
:102E70007047000010B54EF60C5CCEF2000CDCF88A
:102E80000030C3F3022E8EF00704042C28BF042464
:102E9000BEF103034FF0FF3E0EFA04F438BF0023E7
:102EA000A14399400EFA03F39A43114300F00F0235
:102EB00000F160430901043A03F5644362440028C9
:102EC00048BF02F10C03197010BD00004EF60C5102
:102ED000CEF200010A684FF6FF031A4060F30A229F
:102EE00042F0806040F0FD70086070474EF6105070
:102EF000CEF200000268012922F0040202600FBF36
:102F000030BF40BF20BF20BF70470000012821D044
:102F100002280DD0102808D141F20401C4F20201A8
:102F20000A6851F8040CC00134D40020704700BF77
:102F300080B500F0DBF941F20401C4F20201096836
:102F40000222C1F3813102EB4101B0FBF1F0BDE897
:102F50008040704741F20400C4F20200C16940F2AF
:102F600002320A40B2F5817F04BF4FF4004070473F
:102F700001F44071B1F5407F18D0B1F5007F1CBF5E
:102F800000207047006A49F64041800701EAE0707E
:102F9000704700BFC2F3834015A3185CD2030DD461
:102FA00040F60012C0F23D02504313E050F8040C0A
:102FB0004FF22441800301EAE07070470A6810A3D1
:102FC000C2F340429A5C41F20023C0F27A03B3FBA1
:102FD000F2F250430968490248BF70474AF6AB21F4
:102FE0004000CAF6AA21A0FB01014808704700BFB3
:102FF00002030405060708090A0B0C0D0E0F10103A
:10300000010200002DE9F04182B00446007841F24F
:103010001C06C007C4F202064AD030685FEAC00846
:1030200008D4306840F080503060306800F0805044
:103030000190019847F20007C4F200073868C00504
:1030400012D4386840F480703860FFF795FA05466E
:103050003868C00508D4FFF78FFA401B6428F7D9F9
:10306000032002B0BDE8F081706810F4407012D007
:10307000616801F4407188420DD0706840F24042AE
:10308000C4F24222012320F4407113600023C007E0
:103090001360716026D17068616820F44070084345
:1030A000B8F1000F706003D4306820F080503060B9
:1030B0002068810707D556F8181CA26821F4404102
:1030C000114346F8181CC00607D556F8180CE168DD
:1030D00020F48000084346F8180C002002B0BDE838
:1030E000F08100BFFFF748FA054641F2883700BF7C
:1030F00070688007CFD4FFF73FFA401BB8424FF00B
:103100000300F5D9EAE70000002804BF012070475A
:103110002DE9F04381B042F20008C4F202080446EF
:10312000D8F800000D4600F0070081420CD9D8F80D
:10313000000020F007002843C8F80000D8F800007D
:1031400000F00700A8426CD1206841F20409810711
:10315000C4F2020917D5410705D5D9F8001041F48A
:10316000E061C9F80010010705D5D9F8001041F455
:103170006051C9F80010D9F80010A26821F0F001E0
:103180001143C9F80010C00742D1D8F8000000F080
:10319000070085420CD2D8F8000020F00700284331
:1031A000C8F80000D8F8000000F00700A84238D1A5
:1031B0002068410707D5D9F80010E26821F4E061E2
:1031C0001143C9F80010000708D5D9F8000021699B
:1031D00020F4605040EAC100C9F80000D9F800208E
:1031E00002F00C00082841F20020C0F27A004DD114
:1031F00046F6CE33C2F38341C0F60003595CD203D6
:1032000038D440F60010C0F23D0048433EE000BF15
:10321000606859F8041C022808D0012826D18903C7
:1032200006D4012001B0BDE8F08300BF8901F8D5C4
:10323000D9F8001021F003010843C9F80000FFF796
:103240009BF9064641F28837D9F80000616800F022
:103250000C00B0EB810F98D0FFF78EF9801BB842BD
:10326000F2D9032001B0BDE8F08300BF8907D8D5AB
:10327000DEE700BFD9F8002046F6CC33C2F3404267
:10328000C0F600039A5C4843B0FBF2F0D9F8001096
:1032900046F6B432C1F30311C0F60002515C40F2AD
:1032A000080220FA01F140F20400C2F200000068B6
:1032B000C2F200021160FFF785FD002001B0BDE8F9
:1032C000F083000040F2080041F20401C2F2000065
:1032D000C4F202010068096846F6C432C1F3022153
:1032E000C0F60002515CC8407047000040F2080080
:1032F00041F20401C2F20000C4F202010068096850
:1033000046F6C432C1F3C221C0F60002515CC84087
:1033100070470000002804BF012070472DE9F041EC
:1033200082B00446007841F20006C007C4F20206EB
:103330000CD0706800F00C00042840F081803068E8
:10334000800303D56068002800F04681207880075C
:103350001BD5706810F00C0F09D0706800F00C00DD
:10336000082840F087807068C00300F183803068CF
:10337000800703D52069012840F02E8130686169FB
:1033800020F0F80040EAC10030602078000713D434
:10339000207840072CD4E569002D00F01881706872
:1033A00000F00C00082840F0A780012D40F00481B7
:1033B000012002B0BDE8F081A069002800F08480FF
:1033C0000020C4F242200121C0F88014FFF7D4F895
:1033D000054600BF706A800700F1B280FFF7CCF8A5
:1033E000401B0228F6D9032002B0BDE8F08100BFDF
:1033F000F0695FEAC00808D4F06940F08050F061DD
:10340000F06900F080500090009847F20007C4F285
:1034100000073868C00549D4386840F480703860C7
:10342000FFF7AAF8054600BF3868C0053ED4FFF78D
:10343000A3F8401B6428F7D9032002B0BDE8F0814F
:10344000706800F00C00082803D17068C0033FF5D5
:1034500076AF61683068002900F00C81B1F5A02FCB
:1034600000F00081B1F5803F40F01A8140F48030D7
:103470001CE100BF2069002840F20000C4F2422095
:1034800000F0888001210160FFF776F8054600BF53
:10349000306880073FF572AFFFF76EF8401B0228D7
:1034A000F6D9032002B0BDE8F08100BFE168306AC0
:1034B000002900F09D80052900F09280012940F04C
:1034C000AF8040F00100B1E00020C4F242200021B2
:1034D000C0F88014FFF750F8054600BF706A8007F7
:1034E0007FF556AFFFF748F8401B0228F6D90320B6
:1034F00002B0BDE8F08100BF0027C4F242270020DF
:103500003866FFF739F8022D05460DD13068800185
:1035100040F1DE80FFF730F8401B02284FF0030037
:10352000F4D902B0BDE8F081306880014FD5FFF7D3
:1035300023F8401B02284FF00300F5D9F1E700BF44
:1035400040F20800C2F20000006844F6D351C1F214
:103550006201A0FB0101480A019000BF00BF019871
:10356000411E002801913FF413AF00BF0198411E96
:10357000002801913FF40CAF00BF0198411E0028C4
:1035800001913FF405AF00BF0198411E0028019151
:10359000E4D1FDE600210160FEF7EEFF054600BF25
:1035A000306880077FF5F1AEFEF7E6FF401B02288A
:1035B0004FF00300F4D9B4E77068216A00F4803258
:1035C0008A4209D1616A00F47010884204D1002057
:1035D00002B0BDE8F08100BF012002B0BDE8F0817B
:1035E00040F004003062306A40F001001EE000BF8D
:1035F00020F001003062306A20F004003062FEF7F3
:10360000BBFF054641F28837306A800720D5FEF7B8
:10361000B3FF401BB8424FF00300F5D981E700BF6C
:1036200020F001003062306A20F004003062FEF7C2
:10363000A3FF054641F28837306A800708D4FEF7B9
:103640009BFF401BB842F7D9032002B0BDE8F081D0
:10365000B8F1000F3FF59FAEF06920F08050F061A7
:1036600099E600BF40F480203060306840F480303C
:103670001CE000BF20F480303060306820F48020EF
:103680003060FEF779FF0546306880037FF55EAE57
:10369000FEF772FF401B64284FF00300F4D940E7A7
:1036A00020F480303060306820F480203060FEF7F5
:1036B00063FF0546306880033FF548AEFEF75CFFC8
:1036C000401B6428F6D9032002B0BDE8F08100BF9A
:1036D000206AB0F5803F05D17168A26821F40031FD
:1036E000114371607168626A21F4741111430843D7
:1036F000706001203866FEF73FFF044630688001A5
:103700003FF565AFFEF738FF001B02284FF00300BE
:10371000F4D906E74EF21000CEF20000016841F045
:103720000201016070470000411E0020B0EB116FE4
:103730001CBF012070474EF21002CEF20002516011
:103740004EF62351CEF20001F0230B70072190605A
:10375000116070474EF21000CEF20000016821F0B7
:1037600002010160704700007047000070470000D0
:1037700090F83C20012A4FF0020236D010B580F8B4
:103780003D200268D2F804E0D2F808C00C682EF0A0
:103790007003234340F2FF74C4F20004A24253605A
:1037A0000ADCB2F1804F13D040F20043C4F20003B0
:1037B0009A420DD011E000BF42F60043C4F201036B
:1037C0009A4205D040F60003C4F200039A4204D1A5
:1037D00049682CF08003194391600121002280F890
:1037E0003D1080F83C20BDE81040104670470000B6
:1037F000002804BF0120704710B590F83D1031B982
:10380000002180F83C10044600F070F820460221A8
:1038100080F83D10016840F2FF740B68C4F20004A8
:1038200042F6004CA142C4F2010C15DCB1F1804F0C
:103830001AD040F20042C4F20002914214D0A142D8
:1038400018DCB1F1804F1DD040F20042C4F20002FA
:10385000914217D01AE000BF614505D040F6000242
:10386000C4F200029142EAD1826823F0700313434C
:10387000A142E6DD614505D040F60002C4F2000237
:10388000914203D1026923F440731343846923F006
:103890008002D0F804E0C368224361450A60CB622D
:1038A000C1F828E002D14269CCF8302001224A61F7
:1038B0000B69DB0703D00B6923F001030B6180F870
:1038C000462080F83E2080F83F2080F8402080F895
:1038D000412080F8422080F8432080F8442080F87E
:1038E000452080F83D20002010BD00000068B0F1A8
:1038F000804F18BF704780B582B041F21C00C4F2FF
:1039000002000168002241F001010160006800210D
:1039100000F00100019001981C20FFF7ABFA1C2079
:1039200002B0BDE88040FFF793BA000090F83D1068
:1039300001291CBF01207047022180F83D1000685A
:1039400040F2FF72C168C4F20002904241F00101EE
:10395000C16009DCB0F1804F12D040F20041C4F2E6
:10396000000188420CD012E042F60041C4F201018D
:10397000884205D040F60001C4F20001884206D119
:10398000816801F00701062904BF00207047016823
:1039900041F00101016000207047000090F83C20D8
:1039A000012A4FF002026CD080B580F83D20D0F89B
:1039B00000C04FF67772DCF8083023EA0202CCF838
:1039C00008200B684F2B29DC1F2B45DD202B46D010
:1039D000302B44D0402B40F0AF80D1F804E0C968D0
:1039E000DCF82030DCF8202022F00102CCF8202086
:1039F000DCF8182022F0F00242EA011123F00A025A
:103A000042EA0E02CCF81810CCF82020DCF808109E
:103A100041F0470121F0300128E000BF6F2B33DD7A
:103A2000B3F5005F74D0B3F5805F21D0702B40F008
:103A30008380D1E901E3C968DCF8082043EA0E037A
:103A400022F47F4243EA01211143CCF80810DCF84C
:103A5000081041F0770109E00BB1102B6CD1DCF8B4
:103A6000081021F07001194341F00701CCF808104B
:103A70000022012180F83D10002180F83C10BDE8B3
:103A800080401046704700BF502B21D0602B53D18F
:103A9000D1F804E0C968DCF82030DCF8202022F0FE
:103AA0001002CCF82020DCF8182022F4704242EA00
:103AB000013123F0A00242EA0E12CCF81810CCF823
:103AC0002020DCF8081041F0670121F01001CDE75B
:103AD000D1F804E0C968DCF82030DCF8202022F0BE
:103AE0000102CCF82020DCF8182022F0F00242EA93
:103AF000011123F00A0242EA0E02CCF81810CCF8A9
:103B00002020DCF8081041F0570121F02001ADE73A
:103B1000D1E901E3C968DCF8082043EA0E0322F486
:103B20007F4243EA01211143CCF80810DCF8081069
:103B300041F480419AE700BF01229AE770470000F4
:103B400070B504460068C5680669B10716D515F05A
:103B5000020113D06FF00201016101212177806918
:103B6000800703D02046FFF7E9FF05E0204600F07C
:103B70008FF8204600F08EF800202077700719D5C6
:103B800015F0040016D020686FF0040101610221D5
:103B90002177806910F4407F04D02046FFF7CEFFE4
:103BA00006E000BF204600F073F8204600F072F8EF
:103BB00000202077300717D515F0080014D02068B2
:103BC0006FF00801016104212177C069800703D0EB
:103BD0002046FFF7B3FF05E0204600F059F82046E5
:103BE00000F058F800202077F00619D515F01000E5
:103BF00016D020686FF01001016108212177C0699B
:103C000010F4407F04D02046FFF798FF06E000BF85
:103C1000204600F03DF8204600F03CF800202077D8
:103C2000F00718BF15F0010002D1300609D412E0E8
:103C300020686FF001010161204600F02DF8300688
:103C400009D515F0800006D020686FF08001016171
:103C50002046FFF789FD700609D515F0400006D013
:103C600020686FF040010161204600F021F8B006A5
:103C700058BF70BD15F0200008D021686FF02002F9
:103C800020460A61BDE87040FFF770BD70BD0000BE
:103C900070470000704700000068B0F1804F18BF07
:103CA000704740F2DC00C2F2000001210170704751
:103CB000704700007047000070470000B0B582B048
:103CC00001680A68CC684B6902F02F05202D04F0CA
:103CD000200505D125B102B0BDE8B04001F0A6BC79
:103CE0005FEA027C1EBF03F0010E04F4907313EB35
:103CF0000E0341D1036BD50618D5012B16D114F054
:103D0000100313D0002201920A6801924A680192BE
:103D1000019A496949064BD4818DC28DC38D002B10
:103D200018BF914240F0F48102B0B0BD13062DD50A
:103D300014F080032AD090F84120212AF4D182681F
:103D4000B2F5805F03D10269002A00F06782026A3F
:103D5000531C036212784A60C28C013A1304C28475
:103D6000E2D1C86820F08000C860C86840F0400018
:103D7000C86002B0B0BD00BFD30718BF14F4807391
:103D800040F0D080530700F1D380D8E05206CBD565
:103D900014F04002C8D0CA6822F04002CA60202154
:103DA00080F8411002B0BDE8B04000F025BC00BF73
:103DB000C16B0A68526893B2002BB5D0858DAB42B7
:103DC000B2D2C2858969202900F0A180016851E83A
:103DD000031F026821F4807142E80313DBB101681C
:103DE00051E8031F026821F4807142E8031393B184
:103DF000016851E8031F026821F4807142E803134F
:103E00004BB1016851E8031F026821F4807142E858
:103E10000313002BDAD1016851E8051F026821F075
:103E2000010142E80513C3B3016851E8051F0268A8
:103E300021F0010142E805137BB3016851E8051F39
:103E4000026821F0010142E8051333B3016851E82B
:103E5000051F026821F0010142E80513002BDAD1A9
:103E60001BE000BF016851E8051F026821F0400116
:103E700042E80513DBB1016851E8051F026821F033
:103E8000400142E8051393B1016851E8051F02683B
:103E900021F0400142E805134BB1016851E8051FCC
:103EA000026821F0400142E80513002BDAD12021FD
:103EB00080F8421000210163016851E8031F026885
:103EC00021F0100142E80313DBB1016851E8031F40
:103ED000026821F0100142E8031393B1016851E830
:103EE000031F026821F0100142E803134BB101687F
:103EF00051E8031F026821F0100142E80313002B70
:103F0000DAD1C16B04460846FEF79AF92046022131
:103F10004163818DC28D891A89B202B0BDE8B0407B
:103F2000FFF7C8BE436C43F001034364530706D553
:103F3000BEF1000F03D0436C43F0020343649307C8
:103F400006D5BEF1000F03D0436C43F00403436475
:103F5000BCF1000F06D55EEA050303D0436C43F0C5
:103F600008034364436C002B3FF4DEAE920605D594
:103F700025B1044601F05AFB216820464969426C8C
:103F800001F0400102F00802891800F0B98000BF7A
:103F9000016851E8031F026821F4907142E803139D
:103FA000BBB3016851E8031F026821F4907142E835
:103FB000031373B3016851E8031F026821F4907181
:103FC00042E803132BB3016851E8031F026821F490
:103FD000907142E80313002BDAD11AE0016851E82E
:103FE000051F026821F0010142E80513DBB10168F9
:103FF00051E8051F026821F0010142E8051393B161
:10400000016851E8051F026821F0010142E805132B
:104010004BB1016851E8051F026821F0010142E837
:104020000513002BDAD1016B012924D1016851E875
:10403000031F026821F0100142E80313DBB101689D
:1040400051E8031F026821F0100142E8031393B105
:10405000016851E8031F026821F0100142E80313D0
:104060004BB1016851E8031F026821F0100142E8DA
:104070000313002BDAD1202180F8421000210163C4
:1040800001684969490640F1C380016851E8051F8C
:10409000026821F0400142E80513DBB1016851E8F4
:1040A000051F026821F0400142E8051393B1016841
:1040B00051E8051F026821F0400142E805134BB1A9
:1040C000016851E8051F026821F0400142E805132C
:1040D000002BDAD1C16B002900F09A8045F22162F1
:1040E000C0F60002044608464A63FEF7CDF80028F1
:1040F0003FF41AAEE06B416B02B0BDE8B040084738
:104100000446FFF7D9FD0020606402B0B0BD00BFD7
:10411000891A00BF026852E8032F036822F49072E4
:1041200043E80325BDB3026852E8032F036822F475
:10413000907243E8032575B3026852E8032F0368C1
:1041400022F4907243E803252DB3026852E8032F4E
:10415000036822F4907243E80325002DDAD11AE0B7
:10416000026852E8052F036822F0010243E80525A2
:10417000DDB1026852E8052F036822F0010243E82E
:10418000052595B1026852E8052F036822F0010267
:1041900043E805254DB1026852E8052F036822F077
:1041A000010243E80525002DDAD1202280F84220C3
:1041B00000220263026852E8032F036822F0100213
:1041C00043E80325DDB1026852E8032F036822F0BB
:1041D000100243E8032595B1026852E8032F0368F3
:1041E00022F0100243E803254DB1026852E8032F84
:1041F000036822F0100243E80325002DDAD10222E1
:1042000089B2426302B0BDE8B040FFF753BD00BFC2
:1042100002B0BDE8B040FFF74FBD00BF026A32F800
:10422000023B6FF35F234B60026295E5002804BFF9
:104230000120704710B5044690F8410028B90020CD
:1042400084F84000204600F063F8242084F8410000
:104250002068D4E90212C36823F40053C3600369E1
:1042600023F440531A430261D4E904231143C26882
:10427000194341F20C639A431143C1604169A26939
:1042800021F44071114343F60002C4F2010290424E
:10429000416103D0FFF716F802E000BFFFF726F8F0
:1042A000D4E90023192148439900B0FBF1F048F20A
:1042B0001F5CC5F2EB1CA0FB0C314FF69C73490947
:1042C000C0F6FF7301FB0300322303EB0010A0FBD9
:1042D0000C03F02000EA531000EB0110C3F343116C
:1042E000084490601069202120F4904010615069CA
:1042F00020F02A005061D06840F40050D0600020C7
:10430000606484F8411084F84210606310BD0000BE
:1043100070B586B040F60004C4F20104006804F5EC
:104320004051002688420596CDE90366029601D0E9
:1043300006B070BD41F21800C4F20200016802AD7F
:1043400041F480410160016801F4804101910199CB
:10435000016841F0040101600068294600F0040092
:10436000019001984FF40070029002200390032006
:1043700005902046FDF7F8FF4FF48060CDE9020676
:10438000204629460496FDF7EFFF25200021002254
:10439000FEF770FD2520FEF75BFD06B070BD000046
:1043A00090F84230202B07D100294FF0010318BFAD
:1043B000002A05D11846704702231846704700BFEF
:1043C00000230363816222218285C285436480F8D1
:1043D00042100169006819B1C16841F48071C1607F
:1043E000416941F001014161C16841F02001C160B2
:1043F00018467047006843F60001C4F20101884284
:1044000018BF704710B540F27004C2F20004207863
:10441000211891F82C200D2A01D00A2A0ED1002350
:1044200081F82C3078B104F14C0004F12C01FCF738
:104430006DF901206070002305E000BF431CD8B275
:104440001F2888BF0023D8B2204400F12C0140F27D
:104450002C20C2F2000001222370BDE81040FFF7BB
:104460009FBF00002DE9F04381B0044690F8410061
:10447000202809D100294FF0010018BF002A07D1D8
:1044800001B0BDE8F08300BF022001B0BDE8F083B9
:104490000020606421201D460E4684F84100174626
:1044A000FEF76AF8A784E784A1688146B1F5805FCA
:1044B00002D1206900285DD037460020E28C2168B7
:1044C000002A5DD06A1C24D0002D4AD0804600BF4F
:1044D0000868000608D4FEF74FF8A0EB0900A842D0
:1044E0007AD82168C868F3E717B117F8010B04E020
:1044F00038F8020B00276FF35F204860E08C01382A
:10450000E084E08C0028E3D13AE000BF0A6812069C
:1045100009D40A68120606D40A6812065CBF0A6843
:104520005FEA0262F2D51FB117F8012B05E000BF68
:1045300030F8022B00276FF35F224A60E28C013AC9
:10454000E284E28C002AE4D11AE000BF30F8022BAA
:1045500000276FF35F224A60E28C013AE284E28C2A
:1045600072B10A68120635D5002FEFD017F8012B6B
:10457000F1E700BF00273046E28C2168002AA1D174
:10458000086840061ED42DB3681C14D10868400684
:104590002AD40868400627D40868400624D408684E
:1045A00040064FF00000F1D50DE000BF2068C16863
:1045B0000068400618D4FDF7DFFFA0EB0900A84211
:1045C000F4D909E00020202184F8411001B0BDE8B1
:1045D000F08300BFFDF7D0FF0320202184F84110B5
:1045E00001B0BDE8F08300BF0020202184F8411015
:1045F00001B0BDE8F083000070470000FEE7000056
:1046000070B50368044653F8140F400711D40E46E2
:10461000481C29D086BB00BF1868400527D4FDF789
:10462000ABFF236853F8140F400737D518684007CD
:10463000F2D5002070BD00BF18684007F9D4186893
:10464000400514D418684007F3D4186840050ED408
:1046500018684007EDD41868400508D4186840076A
:104660004FF0000048BF70BD18684005E4D56FF4F6
:1046700080601860042012E0154603E053F8140F20
:104680004007D6D418684005F1D4FDF775FF401BEC
:104690002368B042F2D958694007EFD420200021A6
:1046A0002022216384F83D2084F83E10226C1043C0
:1046B0002064012084F83C1070BD00002DE9F04119
:1046C000054600681E46144601F47F0201338FB28E
:1046D00042D0DDF81880B2F5803F40F08780406915
:1046E0003840C01BB0FA80F04009844240F0C880D6
:1046F0004EB924E040693840C01BB0FA80F0400950
:10470000844240F0BD80FDF737FFA0EB0801286828
:10471000B142EFD941693940C91BB1FA81F1490968
:104720008C42E7D19BE000BF40693840C01BB0FA23
:1047300080F0400984424FF0000040F0A280FDF775
:104740001BFF286841693940C91BB1FA81F1490949
:104750008C42E9D183E000BFB2F5803F24D100BF95
:1047600041693940C91BB1FA81F149098C4240F0D5
:10477000878041693940C91BB1FA81F149098C42EE
:1047800040F07E8041693940C91BB1FA81F1490985
:104790008C4275D141693940C91BB1FA81F149098F
:1047A0008C42DDD06CE000BF81693940C91BB1FA91
:1047B00081F149098C4263D181693940C91BB1FA41
:1047C00081F149098C425BD181693940C91BB1FA39
:1047D00081F149098C4253D181693940C91BB1FA31
:1047E00081F149098C42DFD04AE000BF806938403E
:1047F000C01BB0FA80F04009844241D146B923E0A1
:1048000080693840C01BB0FA80F04009844237D13B
:10481000FDF7B2FEA0EB08012868B142F0D981692A
:104820003940C91BB1FA81F149098C42E8D116E03F
:1048300080693840C01BB0FA80F0400984424FF0D4
:10484000000018BFBDE8F081FDF796FE2868816979
:104850003940C91BB1FA81F149098C42E8D10020E5
:104860002021286385F83D1085F83E00296C41F031
:104870002001296485F83C000120BDE8F08100BFDB
:104880000020BDE8F0810000F0B581B0044600686A
:104890001D4643698FB203EA0701B94202D10020E5
:1048A00001B0F0BD4169164601323CD0490512D431
:1048B0007EB300BFFDF760FE411B2068B14203D903
:1048C00041693940B9422BD141693940B942E6D0FA
:1048D00041694905EED5016841F4007101606FF44A
:1048E00080614161042000212022216384F83D2061
:1048F00084F83E10226C1043206484F83C100120A0
:1049000001B0F0BD41693940B942C8D0416949059B
:10491000E1D4FDF731FE206841693940B942F1D058
:104920002020E0E741694905D5D441693940B942C1
:10493000B5D041694905CED441693940B942AED0BC
:1049400041694905C7D441693940B942A7D0416995
:104950004905C0D441693940B942E3D19FE700001D
:1049600070B504460068154650F8143F5A063DD409
:104970000E4629B926E000BF50F8141F490635D469
:104980000168C90621D4FDF7F7FD411B2068B1423B
:10499000F2D941694906EFD400202021206384F830
:1049A0003D1084F83E00206C40F0200018E000BF6D
:1049B000FDF7E2FD206850F8141F4906ECD50168A8
:1049C000490613D40168C906F2D56FF010010160E1
:1049D00000202021206384F83D1084F83E00206CE4
:1049E0002064002084F83C00012070BD002070BDD0
:1049F00070B50368044653F8140F000611D40E4630
:104A0000481C29D086BB00BF1868400527D4FDF795
:104A1000B3FD236853F8140F000637D51868000655
:104A2000F2D5002070BD00BF18680006F9D41868E0
:104A3000400514D418680006F3D4186840050ED455
:104A400018680006EDD41868400508D418680006F8
:104A50004FF0000048BF70BD18684005E4D56FF402
:104A600080601860042012E0154603E053F8140F2C
:104A70000006D6D418684005F1D4FDF77DFD401B33
:104A80002368B042F2D958690006EFD420200021F3
:104A90002022216384F83D2084F83E10226C1043CC
:104AA0002064012084F83C1070BD0000B0B582B0D5
:104AB00040F290140C20C2F200048DF8040064252A
:104AC00001AA20464E2101230095FEF70DF8012092
:104AD000FDF736FC08208DF805000DF10502204693
:104AE0004E2101230095FDF7FFFF0120FDF728FC73
:104AF0001C208DF806000DF1060220464E210123F0
:104B00000095FDF7F1FF0120FDF71AFC18208DF844
:104B100007000DF1070220464E2101230095FDF705
:104B2000E3FF0120FDF70CFC02B0B0BDF0B583B08F
:104B30003220FDF705FC40F29014C2F200043C263E
:104B400064250DF10B0220464E2101238DF80B60E8
:104B50000095FDF7C9FF0120FDF7F2FB38270DF1A5
:104B60000B0220464E2101238DF80B700095FDF7B6
:104B7000BBFF0120FDF7E4FB0520FDF7E1FB0DF194
:104B80000B0220464E2101238DF80B600095FDF7A6
:104B9000ABFF0120FDF7D4FB0DF10B0220464E21A7
:104BA00001238DF80B700095FDF79EFF0120FDF7A6
:104BB000C7FB0120FDF7C4FB0DF10B0220464E217F
:104BC00001238DF80B600095FDF78EFF0120FDF7A6
:104BD000B7FB0DF10B0220464E2101238DF80B701F
:104BE0000095FDF781FF0120FDF7AAFB0A20FDF7E4
:104BF000A7FB2C260DF10B0220464E2101238DF838
:104C00000B600095FDF770FF0120FDF799FB282749
:104C10000DF10B0220464E2101238DF80B700095FB
:104C2000FDF762FF0120FDF78BFB0A20FDF788FBF3
:104C30000DF10B0220464E2101238DF80B600095EB
:104C4000FDF752FF0120FDF77BFB0DF10B02204623
:104C50004E2101238DF80B700095FDF745FF0120D3
:104C6000FDF76EFB8C208DF80B000DF10B0220463A
:104C70004E2101230095FDF737FF0120FDF760FB72
:104C800088208DF80B000DF10B0220464E210123E8
:104C90000095FDF729FF0120FDF752FB0C260DF1D1
:104CA0000B0220464E2101238DF80B600095FDF785
:104CB0001BFF0120FDF744FB08270DF10B022046E6
:104CC0004E2101238DF80B700095FDF70DFF01209B
:104CD000FDF736FBCC208DF80B000DF10B022046C2
:104CE0004E2101230095FDF7FFFE0120FDF728FB73
:104CF000C8208DF80B000DF10B0220464E21012338
:104D00000095FDF7F1FE0120FDF71AFB0DF10B02F6
:104D100020464E2101238DF80B600095FDF7E4FE3F
:104D20000120FDF70DFB0DF10B0220464E21012362
:104D30008DF80B700095FDF7D7FE0120FDF700FB05
:104D40001C208DF80B000DF10B0220464E21012393
:104D50000095FDF7C9FE0120FDF7F2FA18208DF845
:104D60000B000DF10B0220464E2101230095FDF7AB
:104D7000BBFE0120FDF7E4FA0DF10B0220464E21A7
:104D800001238DF80B600095FDF7AEFE0120FDF7C5
:104D9000D7FA0DF10B0220464E2101238DF80B703E
:104DA0000095FDF7A1FE0120FDF7CAFA6C208DF8F1
:104DB0000B000DF10B0220464E2101230095FDF75B
:104DC00093FE0120FDF7BCFA68208DF80B000DF171
:104DD0000B0220464E2101230095FDF785FE0120A0
:104DE000FDF7AEFA0220FDF7ABFA03B0F0BD00000C
:104DF000C022002808BF80225018C0B2002100F055
:104E000001B800002DE9F04182B0064600F0F00044
:104E100041EA000740F2901447F00C00C2F200048F
:104E20000D468DF804004FF0640801AA20464E217B
:104E30000123CDF80080FDF757FE0120FDF780FA31
:104E400007F0F30008308DF805000DF1050220464B
:104E50004E210123CDF80080FDF746FE0120FDF72D
:104E60006FFA45EA061545F00C008DF806000DF1C5
:104E7000060220464E210123CDF80080FDF734FEC6
:104E80000120FDF75DFA05F0F30008308DF807000A
:104E90000DF1070220464E210123CDF80080FDF7D9
:104EA00023FE0120FDF74CFA02B0BDE8F0810000BE
:104EB0000178002908BF704710B5441EC8B201210F
:104EC000FFF7A0FFA17801340029F7D1BDE8104019
:104ED00070470000B0B584B040F20C1042F20041BF
:104EE000C2F20000C4F2010100244FF46022012547
:104EF00004730475C261C0E9001484600561FCF7A5
:104F00001FFF002818BFFCF771FE0920CDE901053D
:104F100040F20C10C2F2000001A90394FCF76CFEF1
:104F2000002818BFFCF762FE04B0B0BD83B041F2A8
:104F30001800C4F20200016841F02001016001681C
:104F400001F0200102910299016841F0080101601D
:104F5000016801F0080101910199016841F0040123
:104F60000160006800F004000090009803B07047F2
:104F700080B540F23C1045F20041C2F20000C4F29C
:104F8000000148F2A06200234FF4804CC0F20102FD
:104F900080E80E00C0E9033CC0E90533C0E90733EF
:104FA000FDF7F0FA002808BF80BDBDE88040FCF79F
:104FB0001DBE000080B540F2901045F60001C2F21F
:104FC0000000C4F2000148F2A06200234FF4804CBC
:104FD000C0F2010280E80E00C0E9033CC0E90533DD
:104FE000C0E90733FDF7CEFA002808BF80BDBDE851
:104FF0008040FCF7FBBD000080B586B040F2E410B5
:105000000021C2F2000040F2CF7C0591CDE90311EE
:10501000CDE900114FF0804248F69F43C0E9021CE1
:1050200001618021C0E900238161FEF7E1FB0028D6
:1050300018BFFCF7DBFD4FF48050029040F2E41003
:10504000C2F2000002A9FEF7A9FC002818BFFCF775
:10505000CDFD40F2E410C2F200006946FEF788FB85
:10506000002818BFFCF7C2FD06B080BD80B540F235
:105070002C2043F60001C2F20000C4F2010100231B
:105080004FF00C0C4FF4E13280E80E00C0E903331E
:10509000C0E905C3C361FFF7C9F8002808BF80BD98
:1050A000BDE88040FCF7A2BDFEE70000FEE700007F
:1050B0007047000040F2DC02C2F200025178092978
:1050C00084BFFF20704702EB81039860481C50703A
:1050D0000846704740F2DC0140F2E410C2F20001E1
:1050E0000022C2F200004A700A704A60FEF71EBC3D
:1050F000B0B540F2DC04C2F20004207890B1002088
:105100002070607870B1002503E000BF0135854252
:1051100008D204EB850189680029F7D088476078B8
:10512000F4E700BF2078002818BFB0BDFEF712FBDF
:1051300000200121FDF7DAFEFEF7ECFA6068002896
:10514000F0D08047EEE7000040F2DC01C2F200013F
:105150004860704770470000002808BF704770B56E
:10516000002A08BF40F6B832002B08BF4FF4916305
:1051700080E80E00002101824161D11A04460846F0
:105180001D46164601F0D6FA01460020C4F2C8209A
:1051900001F0DAF9AE4204BF0020C4F2C820E0609A
:1051A000BDE8704070470000002808BF7047B0B5E8
:1051B00004460068002800F09980FCF7D9FF2068B9
:1051C0000221FCF79DFE08B1002503E02068FCF7F2
:1051D000B3FD05462068FCF7CBFF20680221FCF7F1
:1051E0008FFE18B92068FCF7A7FD05442068FCF77E
:1051F000BFFF20680221FCF783FE18B92068FCF786
:105200009BFD05442068FCF7B3FF20680221FCF7F2
:1052100077FE18B92068FCF78FFD05442068FCF77D
:10522000A7FF20680221FCF76BFE18B92068FCF785
:1052300083FD05442068FCF79BFF20680221FCF7F2
:105240005FFE18B92068FCF777FD05442068FCF77D
:105250008FFF20680221FCF753FE18B92068FCF785
:105260006BFD05442068FCF783FF20680221FCF7F2
:1052700047FE18B92068FCF75FFD05442068FCF77D
:1052800077FF20680221FCF73BFE18B92068FCF785
:1052900053FD05442068FCF76BFF20680221FCF7F2
:1052A0002FFE18B92068FCF747FD05444CF6CD40A9
:1052B000CCF6CC40A5FB0001A368C1F3CF00CA081F
:1052C000984222820CD9616881420DD9081A01F0F6
:1052D00031FAE16802460846114601F0A7FA04E0F7
:1052E0000020C4F2C82000E000206061BDE8B040AA
:1052F00070470000FDF744BD7047000040F2E41025
:10530000C2F20000FEF71CBC40F27002C2F20002C2
:1053100002F10C00111D083200F0FEBA40F27000DC
:10532000C2F200001430FFF73FBF000010B582B09A
:1053300040F27004C2F20004607800284BD004F1FF
:105340004C0026A10DF107026B46FBF7ABF80228D3
:1053500037D19DF80700632806DC442820D0502868
:1053600006D03AA02BE000BF642819D07028F8D1ED
:10537000009947F2CC42A1F1640090421CD840F25F
:10538000E413C2F200034FF0FF32186802EB41024F
:10539000C262DA600023436223A0FCF705FC10E040
:1053A000009903290AD840F20C00C2F200000170F3
:1053B00010A0FCF7F9FB04E014A000E009A0FCF742
:1053C000F3FB00206070C4E91300C4E91500C4E9D0
:1053D0001700C4E9190002B010BD00BF25633A25CB
:1053E000640000004572723A204D6F646520302DD4
:1053F000330D0A004F4B3A20446973706C61792079
:105400004D6F64652025640D0A0000004572723AF4
:105410002052616E676520313030202D20333030CE
:105420003030206D730D0A004F4B3A205065726981
:105430006F642073657420746F202564206D732061
:10544000284152523D2564290D0A00004572723AE6
:1054500020436D64204572726F720D0A00000000D7
:105460002DE9F04184B040F27001C2F20001D1E9AF
:1054700001048D6A00F0A4FF804620460F4600F02C
:105480009FFF044628460E4600F09AFF029005A0B2
:1054900042463B46CDE900460391FCF785FB04B04C
:1054A000BDE8F081444154413A2054656D703D257A
:1054B0002E32662C2048756D3D252E32662C2053E9
:1054C0006F696C3D252E32660D0A0000F0B58FB075
:1054D0004FF02030CDE90A00CDE90C00CDE9050000
:1054E000CDE9070040F20C00C2F200000078002174
:1054F00003288DF838108DF824104DD8DFE800F01F
:10550000023C0E1A40F27000C2F20000406800F047
:1055100057FF84460B463DA238E000BF40F27000C2
:10552000C2F20000806A00F04BFF84460B462DA2B9
:105530002CE000BF40F27007C2F20007D7E9010477
:1055400000F03EFF054620460E4600F039FF0B46B0
:10555000029019A20AA81121CDE900560393FAF787
:10556000BDFEB86A00F02CFF03460E4618A205A83F
:105570001121CDE900360DE040F27000C2F20000CA
:10558000806800F01DFF84460B461BA20AA811216B
:10559000CDE900C3FAF7A2FE00200021FFF728FCA6
:1055A0000AA8FFF785FC01200021FFF721FC05A8D0
:1055B000FFF77EFC0FB0F0BD543A252E3066432035
:1055C000483A252E30662525202020202000000086
:1055D000536F696C3A20252E306625252020202027
:1055E00020202000536F696C3A20252E316620253B
:1055F0002520202020000000483A20252E3166205A
:10560000252520202020202020200000543A20257D
:105610002E31662043202020202020202000000062
:10562000406A0021C185C184FEF746BB81B090F875
:105630004210222921D183680246B3F5805F09D147
:1056400052F8281F52F8183C002B63D003685B689F
:105650000AE000BF52F8281F13B90369002BF5D0E8
:1056600003685B6803F07F030B7011680131116000
:10567000C18D01390A04C18502D001B0704700BF55
:105680000168CA6822F02002CA60CA6822F48072E7
:10569000CA604A6922F001024A61202180F8421062
:1056A00000214163026B012A3CD10163016851E88A
:1056B000031F026821F0100142E80313DBB1016807
:1056C00051E8031F026821F0100142E8031393B16F
:1056D000016851E8031F026821F0100142E803133A
:1056E0004BB1016851E8031F026821F0100142E844
:1056F0000313002BDAD101680A68D20606D500220E
:1057000000920A680092496800910099818D01B069
:10571000FEF7D0BA026852686FF35F2221F8022BBD
:105720008162A5E701B0FEF765BE000040F22C20C3
:10573000C2F20000FEF7C2BAFEE7000094B0FDF727
:105740002DFB00240120CDE90F44CDE90D440A9042
:105750000E904FF4E0104FF48031022513900AA808
:105760000494CDE90244CDE90B14CDE91151FDF7C4
:10577000D1FD28B1EFF3108072B600BFFEE700BF85
:105780000F20CDE905054FF48060CDE9080405A898
:1057900002210794FDF7B8FC20B1EFF3108072B638
:1057A000FEE700BF022001904FF40040039001A8E3
:1057B000FDF728FC20B1EFF3108072B6FEE700BFC2
:1057C000FFF7B4FBFFF786FBFFF7D2FBFFF7F2FB17
:1057D000FFF712FCFFF74AFC40F27004C2F200042B
:1057E00040F23C1104F10C00C2F20001442200F02E
:1057F00079F840F20C1104F11400C2F20001002209
:105800000023FFF7A9FCFFF791F900200021FFF723
:10581000EFFA21A0FFF74CFB01200021FFF7E8FA87
:1058200021A0FFF745FB4FF47A70FCF789FDFFF7E5
:105830003DF920780122204400F12C0140F22C2077
:10584000C2F20000FEF7ACFD1CA0FCF7ADF9FFF7BB
:1058500041FC45F20930C0F60000FFF72BFC45F291
:105860001D30C0F60000FFF725FC45F2CD40C0F624
:105870000000FFF71FFC45F26140C0F60000FFF793
:1058800019FC45F22D30C0F60000FFF75DFC00BFAB
:10589000FFF72EFCFCE700BF4D6F64653A205369AB
:1058A0006D706C6500000000506572696F6469631B
:1058B000205363686564756C657200005379737476
:1058C000656D2052656164792E2057616974696E37
:1058D0006720666F722054696D65722E2E2E0D0A38
:1058E0000000000080B582B0016082804AF2302062
:1058F0000B46ADF8060050004FF0640C81B20DF17C
:10590000060218460223CDF800C0FDF7EDF802208C
:10591000FCF716FD02B080BD2DE9F04184B00646CB
:105920000D46B1881446006824224900ADF80E20C7
:10593000642789B20DF10E0202230097FDF7D4F817
:10594000002840F023811420FCF7FAFCB18830686D
:10595000490089B202AA06230097FCF7C5FE002879
:1059600040F014819DF908003121C24381EA4203CD
:10597000002848BF53005AB25F00002A48BF81EA9E
:1059800043077AB27B00002A48BF81EA47035AB234
:105990005F00002A48BF81EA43077AB27B00002AF1
:1059A00048BF81EA47035AB25F00002A48BF81EA34
:1059B00043077AB27B00002A48BF81EA47035AB204
:1059C0005F00002A48BF81EA43079DF809C09DF89F
:1059D0000A3087EA0C0257B25600002F48BF81EA0E
:1059E000420672B27700002A48BF81EA46077AB2BF
:1059F0007E00002A48BF81EA470672B27700002A7B
:105A000048BF81EA46077AB27E00002A48BF81EA91
:105A1000470672B27700002A48BF81EA46077AB289
:105A20007E00002A48BF81EA470672B27700002A4A
:105A300048BF81EA4607FAB29A4240F0A7809DF932
:105A40000BE06FEA0E0281EA4207BEF1000F48BF89
:105A500057007AB27E00002A48BF81EA470672B238
:105A60007700002A48BF81EA46077AB27E00002A02
:105A700048BF81EA470672B27700002A48BF81EA30
:105A800046077AB27E00002A48BF81EA470672B212
:105A90007700002A48BF81EA46077AB27B00002AD5
:105AA00048BF81EA47039DF80C609DF80D80734064
:105AB0005FB25A00002F48BF81EA430253B2570039
:105AC000002B48BF81EA42077AB27B00002A48BF18
:105AD00081EA47035AB25F00002A48BF81EA4307C0
