:020000040800F2
:10000000A81F00200101000861320008992F000894
:100010005D320008A5090008313600080000000024
:100020000000000000000000000000003133000864
:10003000A90900080000000071320008F13500082D
:100040001B0100081B0100081B0100081B01000820
:100050001B0100081B0100081B0100081B01000810
:100060001B0100081B0100081B0100081B01000800
:100070001B0100081B0100081B0100081B010008F0
:100080001B0100081B0100081B0100081B010008E0
:100090001B0100081B0100081B0100081B010008D0
:1000A0001B0100081B0100081B0100081B010008C0
:1000B0001B0100081B010008253600081B01000871
:1000C0001B0100081B0100081B0100081B010008A0
:1000D0001B0100081B0100081B0100081B01000890
:1000E0001B0100081B0100081B010008DFF80CD0F1
:1000F00000F05AFB0048004735360008A81F0020D2
:100100000648804706480047FEE7FEE7FEE7FEE7B1
:10011000FEE7FEE7FEE7FEE7FEE7FEE72136000822
:10012000ED00000840EA01039B0703D009E008C97D
:10013000121F08C0042AFAD203E011F8013B00F8AC
:10014000013B521EF9D27047D2B201E000F8012BF8
:10015000491EFBD270470022F6E710B513460A4647
:1001600004461946FFF7F0FF204610BD421C10F868
:10017000011B0029FBD1801A7047F0B480EA01020C
:10018000D40F4200B2EB410F02D20246084611469C
:100190004A0042D0C30DDDB2C1F3C752AD1A202DC3
:1001A00035DAC1F3160141F4000204B15242C5F13F
:1001B000200602FA06F12A411044B3EBD05F23D0A7
:1001C000C4B1012DA0EBC35009DCF0BC4FF00042DC
:1001D00002EAC352DBB200F5000000F0FEB84000B6
:1001E00000F1807000EBC350A0F1807040EAD17044
:1001F000490009E0490841EAC071A0EBC35000F58D
:100200000000400800EBC350F0BC00F0DDB86142D4
:10021000012202EB4101001BF6E7F0BC704781F0C0
:100220000041AAE780F00040A7E780EA010210B58C
:1002300002F00043400022D04A001FD0010E01EB23
:100240001261C0F35600C2F3560240F4000042F4BB
:100250000002A0FB022000047F39140400D0401CDF
:1002600050EA124001D44000491EC2B20C0604EB11
:10027000D010401C4008802A02D003E0002010BDAE
:1002800020F00100002900DA0020184310BD30B42E
:1002900080EA010202F0004530F0004221F0004007
:1002A00013D090B1C30DD40DC2F31601C0F31600E4
:1002B000E41A41F4000140F400027D34914201D37C
:1002C000641C00E04900002C02DA30BC00207047BA
:1002D0004FF400000023914201D3891A03434008E0
:1002E0004FEA4101F7D151B1914202D14FF00041A3
:1002F00005E002D24FF0010101E06FF0010103EBD4
:10030000C450284430BC00F05FB896230022114648
:1003100000F063B800F0004230F000400AD0C10D98
:1003200001F56071C0F3160042EA0151C2084007AE
:100330001143704700200146704730B50B46014617
:1003400000202022012409E021FA02F59D4205D374
:1003500003FA02F5491B04FA02F52844151EA2F11E
:100360000102F1DC30BD2DE9F05F05460020924628
:100370009B4688460646814640241BE02846414667
:100380004746224600F037FA53465A46C01A914172
:1003900010D311461846224600F01EFA2D1A67EBBC
:1003A00001084F4622460120002100F015FA17EB04
:1003B00000094E41201EA4F10104DFDC484631460D
:1003C0002A464346BDE8F09F0029A8BF7047401C5D
:1003D000490008BF20F00100704710B4B0FA80FC5B
:1003E00000FA0CF050EA010404BF10BC704749B198
:1003F000CCF1200421FA04F411FA0CF118BF012108
:1004000021430843A3EB0C01CB1D4FEA00614FEAE7
:10041000102042BF002010BC704700EBC3501044B6
:100420000029A4BF10BC7047401C490008BF20F041
:10043000010010BC70472DE9FE4F804681EA0300A1
:10044000C00F0C46009021F0004123F00045B8EBAE
:100450000200A94105D24046214690461C460B4663
:10046000024623F00040104347D0270DC7F30A008F
:10047000C3F30A510290401A019040286BDAC3F38B
:10048000130040F4801B0098924620B10023D2EB69
:10049000030A63EB0B0B01985946C0F1400250462A
:1004A00000F09AF906460D4650465946019A00F06A
:1004B000B2F910EB08006141002487EA115284EA86
:1004C000E7731A4340D0009A62B3019A012A4FEAB7
:1004D000075215DC001B61EB02014FF0004202EAFB
:1004E0000752CDE90042001C41F5801132462B46EF
:1004F00000F0B2F903B0BDE8F08F40462146F9E7BD
:10050000001B61EB0201001C41F5801300185B41E8
:100510002018A2F5001747EB030140EAD570B61981
:100520006D4111E06D084FEA360645EAC0754FEAA5
:100530000752001B61EB0201001C41F580114908C4
:100540004FEA30000019514132462B4603B0BDE856
:10055000F04F00F072B90098012240000023D0EB68
:10056000020263EBE073009821464FEAE074B8EBB7
:10057000000061EB0401E9E783F000435BE781F0F1
:10058000004158E72DE9FE4F81EA030404F00044DE
:1005900021F0004100944FF0000B23F0004350EA9B
:1005A00001045ED052EA03045BD0C3F30A54C1F3E2
:1005B0000A552C44A4F2F3340194A0FB0254C1F375
:1005C000130141F48011C3F3130343F4801301FBBF
:1005D000024400FB034E840A970A44EA815447EA26
:1005E0008357A4FB076802958D0A05FB07854FEA30
:1005F000932C04FB0C542705029D4FEA065847EA4A
:100600001637B5EB08056EEB070C870E920E47EA1E
:10061000811742EA8312A7FB0201B6EB0B0164EBE0
:1006200000042B0D43EA0C335E1844EB1C50DA46F1
:100630005146E7FB0201C5F313044FEA0B3343EACB
:1006400014534FEA0432019C43EA0603A4F10C045C
:100650000294009CCDE900B400F0FEF803B0BDE8C0
:10066000F08F00200146F9E72DE9F04D81EA0304FF
:1006700004F0004B21F0004514464FF0000A23F02F
:10068000004150EA050220D054EA01021DD0C5F312
:100690000A570246C5F31303C1F31300C1F30A5608
:1006A00040F4801543F48013A7EB0608101BD646D0
:1006B00008F2FD3873EB050002D308F1010801E0F0
:1006C00092185B41B8F1000F03DA00200146BDE843
:1006D000F08D00204FF48011064684460EE0171B73
:1006E00073EB050705D3121B63EB050306434CEAC6
:1006F000010C49084FEA300092185B4150EA0107AB
:10070000EDD152EA030012D082EA040083EA050127
:10071000084305D0101BAB4106D20122002306E09E
:1007200000224FF0004302E06FF0010253101AEB79
:1007300006004CEB085110EB0A0041EB0B01BDE841
:10074000F04D00F07AB8C1F30A52C1F3130140F240
:10075000FF3341F480119A4202DA002001467047CB
:1007600040F233439A42A2F2334202DC524200F09A
:1007700042B800F031B8000030B5041E71F1000439
:1007800004DB4FF00044404264EB0101141E73F19E
:10079000000405DB1C464FF00043524263EB0403A8
:1007A000994208BF904230BD1CB5094800900948E5
:1007B00001900546009C06E0E06840F0010394E8E3
:1007C000070098471034AC42F6D3FFF793FC0000C3
:1007D000AC660008CC660008202A04DB203A00FA48
:1007E00002F1002070479140C2F1200320FA03F388
:1007F000194390407047202A04DB203A21FA02F086
:100800000021704721FA02F3D040C2F1200291404A
:10081000084319467047202A06DBCB17203A41FAD5
:1008200002F043EAE07306E041FA02F3D040C2F17D
:100830002002914008431946704710B5141E73F109
:10084000000408DA401C41F1000192185B411A4390
:1008500001D120F0010010BD2DE9F04D92469B46DC
:1008600011B1B1FA81F202E0B0FA80F22032904682
:10087000FFF7B2FF04460F4640EA0A0041EA0B01C7
:1008800053465A46084313D0114653EA010019D083
:10089000C8F140025046FFF7AEFF05460E465046EF
:1008A00059464246FFF798FF084305D0012004E06F
:1008B00020463946BDE8F08D0020054346EAE07643
:1008C0002C4337430A986305E40AA0EB0800002292
:1008D000FD0A44EA47540A3002D500200146E9E700
:1008E000010510196941DDE9084500196941BDE8B4
:1008F000F04DA2E7B0B582B0044600200190216817
:100900008A68D2074BD1886840F00100886040F2C5
:100910001800C2F2000000684DF68361C4F21B317A
:10092000A0FB0101880C01900198A0B10198013849
:100930000190019878B1019801380190019850B167
:10094000019801380190019828B10198013801906F
:1009500001980028EAD100F0C1FC21688968C90724
:100960001CD1054603E000BF8068C00716D100F027
:10097000B5FC411B20680329F6D38168C907F3D170
:10098000A06A40F01000A062E06A40F00100E0625E
:10099000002084F82400012002B0B0BD002002B085
:1009A000B0BD0000FEE700007047000083B010B546
:1009B00081B040F6F804844603A8C2F200040EC0D9
:1009C00003AB204680216246009305F075F920466E
:1009D000FFF7CCFB40F25011C2F20001303182B27D
:1009E00008462146642302F00BFA01B0BDE810402E
:1009F00003B0704770B581B00022009290F82420B7
:100A0000012A03D10221084601B070BD4A680123C2
:100A1000062A02EB820E80F8243007D8D0F800C0F6
:100A20006FF004030CF134060CE000BFD0F800C0F6
:100A30000C2A87BF0CF12C066FF040030CF1300636
:100A40006FF022030EEB03021F23346803FA02F552
:100A50000B6824EA050503FA02F22A433260092BE7
:100A600003EB43021AD9DCF80C601E3A07258968AB
:100A70009540AE43914023F001023143102ACCF857
:100A80000C1015D142F20041C4F201018C4517D07F
:100A9000816A41F02001816201210AE0DCF8103016
:100AA000072689689640B34391401943CCF810104B
:100AB0000021002280F82420084601B070BD00BF4C
:100AC00089680902F4D4DCF80810102B41F4000105
:100AD000CCF80810ECD140F21801C2F2000109680C
:100AE0004DF68362C4F21B32A1FB0212910C01EBA2
:100AF00081014900009100990029D9D0009901395C
:100B0000009100990029D3D00099013900910099F2
:100B10000029CDD000990139009100990029C7D052
:100B2000009901390091009900294FF00001E5D1A9
:100B3000BFE700000068C06C70470000002804BFD9
:100B400001207047B0B50446806A28B121688868E2
:100B5000C0070CD115E000BF0020E06284F824003B
:100B6000204600F097F821688868C00709D0886897
:100B700020F00100886000F0B1FB21688A68D2078C
:100B800026D1A06AC0063AD4A06A41F2021290436C
:100B90000230A062E069D4E9013240EA030C531E3E
:100BA000B3FA83F35D091346B2F5807F18BF2B02B9
:100BB000207D257B01284CEA45002CD135B3A56A60
:100BC00045F02005A562E56A45F00105E56222E0F1
:100BD000054602E08868C007D3D000F07FFB401BC9
:100BE00021680328F6D38868C007F3D0A06A40F0D4
:100BF0001000A062E06A40F00100E062A06AA06A12
:100C000040F01000A0620120B0BD00BFA56903EB59
:100C10004533A3F5C0534D68B2F5807F25F469458F
:100C200043EA05034B608B684FF2FD75CFF6E17523
:100C300003EA050343EA00038B6001D0012A07D1D0
:100C400022690023CFF6F07303EB025201E000BFEC
:100C50000022CB6A23F470031A43CA62896840F603
:100C6000FE62CFF61F721140814207D10020E06280
:100C7000A16A012262F30101A162B0BDA06A40F045
:100C8000100020F00200A062E06A40F00100E06283
:100C90000120B0BD80B586B0014640F60040C4F2E8
:100CA0000100096800F5C05291424FF00001CDE902
:100CB0000411CDE9021101D006B080BD41F2180146
:100CC000C4F202010A6842F400720A600A6802F47F
:100CD00000720192019A0A6842F008020A600968EB
:100CE00001F0080101910199022102910321039170
:100CF00002A900F0E3F906B080BD00002DE9F04143
:100D000082B000270D460446019700F0E7FA2168FB
:100D10008A68D20544D406464868C00503D4C86A28
:100D200010F4700F46D040F21800C2F200000768BD
:100D300042F292480220C1F2492801F00DFA2168DE
:100D400044F624130A69B7FBF0F0C2F292431A4248
:100D500006D1CA6844F62413C0F292031A425BD04B
:100D60000A6912EA080F07D1CA6842F29243C0F238
:100D700049031A4200F0C0800A6949F24923C0F2CF
:100D800024031A424FF0FC0254D1CF681F4208BF1F
:100D90005422019B02FB00F7BB4250D3C3E000BFCB
:100DA000A06A40F02000A06284F82470012002B004
:100DB000BDE8F0810868800700F1B580681C00F08C
:100DC000A880FDB90868800770D50868800700F121
:100DD000AA800868800769D50868800700F1A380A9
:100DE0000868800762D50868800700F19C80086861
:100DF00080075BD508688007E4D594E00868800721
:100E000000F1918000F06AFA801B2168A842F5D9B0
:100E100008688007F2D449E00A6912EA080F4FF027
:100E2000290207D1CB6842F29247C0F249073B4200
:100E300008BF1422019B02FB00F7BB4273D2681C5F
:100E400052D05DBB0198B84230D301980130019077
:100E50000198B84267D20198B84227D3019801306F
:100E600001900198B8425ED20198B8421ED3019811
:100E7000013001900198B84255D20198B84215D37B
:100E80000198013001900198B842DBD34BE000BFDC
:100E90000198013001900198B84235D200F01EFA55
:100EA000801BA842F4D90198B842F1D2A06A40F060
:100EB0000400A062002084F82400032002B0BDE8F2
:100EC000F08100BF0198013001900198B8422AD208
:100ED0000198013001900198B84224D20198013064
:100EE00001900198B8421ED20198013001900198FA
:100EF000B842E7D317E000BF5422019B02FB00F782
:100F0000BB429CD30FE000BF21680CE0086880075B
:100F100009D40868800706D4086880075CBF0868A1
:100F20005FEA8070F2D56FF012000860A06A40F4AA
:100F30000070A062886800F46020B0F5602F01D1D5
:100F4000207B18B1002002B0BDE8F081A06A20F437
:100F50008070A062A06AC004F4D4A06A40F00100CE
:100F6000A062002002B0BDE8F081000010B5044688
:100F700090F82400012804BF022010BD012084F84D
:100F800024002046FFF7B6FC20B1002084F824009E
:100F9000012010BD42F2044C2068A16AC4F2010C89
:100FA00040F2013291430CF57F7201F5807190425D
:100FB000A16229D0A16A21F48011A162416849058A
:100FC00004D5A16A012363F30D31A162A16A002354
:100FD000C9044FF0000144BFE16A21F00601E1625B
:100FE0006FF0020184F824300160816801F460210F
:100FF000B1F5602F1BD1904214D0816841F4A0015B
:101000008160002010BD00BFDCF8001011F4702FCB
:10101000D0D0A16A41F48011A162DCF8001049052A
:10102000CFD4D3E7DCF8001011F4702FE5D081683D
:1010300041F480118160002010BD0000B0B504466D
:1010400090F82400012804BF0220B0BD01212068CF
:1010500084F824108168C90709D0816821F0010152
:10106000816000F03BF921688968C9070ED12146EB
:1010700051F8280F41F2011220EA0202002042F04A
:1010800001020A60002184F82410B0BD054602E088
:101090008068C007EBD000F021F9411B20680329CC
:1010A000F6D38168C907F3D0A06A214640F010004A
:1010B000A06251F82C2F0120E1E700002DE9F04F4C
:1010C00082B00E68002E00F0FF8040F20C4C40F21F
:1010D000004E41F20042C4F2010CC4F2010EC4F20F
:1010E00001020427002401234FF0000A4FF00009F9
:1010F000904208BF0327009749E000BF41F2000279
:10110000C4F20102009F904208BF022704F00C03C2
:101110000F229A402BEA020207FA03F34FEA9A05DC
:101120001A4346F825204E68F203DEF8002054BF2B
:1011300022EA080242EA0802CEF80020DEF8042083
:10114000B30354BF22EA080242EA0802CEF80420A0
:10115000F302DEF8082054BF22EA080242EA08023D
:10116000B302CEF80820DCF800204FF0010354BF92
:1011700022EA080242EA0802CCF800200E680AF1CE
:10118000010A36FA0AF204F1040400F09D8003FA21
:101190000AFB16EA0B08F1D04E684FF6FF72C1F257
:1011A0001002964212DC122E56D8DFE806F0350BFC
:1011B0004D49555555555555555555555555554503
:1011C000510000BFD1F80C9046E000BF4FF6FF720F
:1011D000C1F2210296420FDC0022C1F211029642B6
:1011E0001AD00022C1F21202964215D00022C1F29A
:1011F0002102964210D02FE00022C1F22202964234
:101200000AD00022C1F23102964205D00022C1F27A
:101210003202964220D100BF8A684AB1012A14BF27
:10122000C0F814B0C0F810B04FF0080914E000BFC7
:101230004FF0040910E000BFCA6802F104090BE096
:101240004FF0000908E000BFCA6802F1080903E096
:10125000CA6802F10C0900BF02462646B8F5807F35
:1012600024BF0432203E17680F25B54027EA050544
:1012700009FA06F635431560CA79D2067FF57EAFC6
:1012800041F21803C4F202031A68AEF57E7642F00A
:1012900001021A601A6802F001020192019A2AF012
:1012A000030256F802B040F60002C4F20102904276
:1012B00008D040F60042C4F2010290427FF41EAF13
:1012C000012723E7002721E702B0BDE8F08F0000E7
:1012D000002A08BF090401617047000041F664302C
:1012E000C2F2000000687047002804BF0120704768
:1012F000F0B581B0044690F83D0028B9002084F88C
:101300003C00204600F01AFE242084F83D002068AE
:10131000016821F001010160016841F400410160B0
:10132000016821F40041016001F014F9636848F29A
:10133000A16CC0F2010C40F60011C0F23D01634502
:101340003CBF48F28041C0F21E01884202D2012017
:1013500001B0F0BD4DF68361C4F21B31A0FB011258
:101360002168970CD1F804E04FF496762EF03F05F3
:1013700045EA92454D60774348F638160D6AC0F24B
:101380004106A7FB067625F03F07634538BF960C5C
:10139000721C3A430A62CA6948F2A0664CF6FF77AB
:1013A000C0F20106B34222EA07020BD801385B0003
:1013B000B0FBF3F001306FF31F30042898BF042016
:1013C0001BE000BFA768013857B119277B43B0FB6A
:1013D000F3F001306FF31F3070B100F5804007E08B
:1013E00003EB4303B0FBF3F001306FF31F3018B190
:1013F00000F5004001E000BF01201043C86108680B
:10140000D4E9072320F0C00010431843086088681F
:1014100048F2FF3204F10C0790438CCF184310437D
:10142000A6698860C86820F0FF0038433043C86070
:10143000086840F00100086000202021206484F842
:101440003D10206384F83E0001B0F0BD2DE9F04767
:1014500082B0044600201F46164688460090FFF7DB
:101460003DFF94F83D1020291ED105462068816972
:10147000890715D5FFF732FF401B1928F6D9002040
:101480002021206384F83D1084F83E00216C41F057
:101490002001216484F83C00022002B0BDE8F087FE
:1014A00094F83C10012903D1022002B0BDE8F08776
:1014B000012184F83C100168C90703D1016841F09B
:1014C00001010160016821F400610160222184F8BA
:1014D0003D10102184F83E1000212164666267856A
:1014E000618D21850021CFF6FF71E162E16A02681A
:1014F00011F5803F42F48062026018BF012919D1C2
:10150000016841F48071016041690A9EC90724D1D4
:10151000711C18D0002E00F0C58000BFFFF7DEFE62
:10152000401BB04200F2C08020684169C907F5D075
:1015300013E000BF0829E3D0216B1129E0D0E3E7D5
:101540004169C90709D14169C90706D14169C9077C
:1015500004BF41695FEAC171F2D02169B1F5804FE2
:1015600008D148F00101C9B201614169890740F120
:10157000C68001E1062101EAD81707F1F0010161F7
:101580004169090732D44169721C14D0490500F140
:10159000E980002E00F06682FFF7A0FE401BB042FB
:1015A00000F262822068416909071FD44169490538
:1015B000F2D5D7E04169490500F1D48041690907B6
:1015C00014D44169490500F1CD80416909070DD462
:1015D0004169490500F1C6804169090706D441699E
:1015E000490500F1BF8041690907E3D55FFA88F139
:1015F00001614169890739D44169721C4FEA41513F
:1016000014D0002900F1AE80002E00F02B82FFF7ED
:1016100065FE401BB04200F22782206841698907BD
:1016200024D441694905F2D59CE000BF002900F1AE
:1016300099804169890719D44169490500F192806F
:101640004169890712D44169490500F18B804169DC
:1016500089070BD44169490500F1848041698907F4
:1016600004D441694905E4D57CE000BF0021019123
:1016700041690191816901910199016841F4807189
:1016800001604169C90734D1711C28D056B1FFF7F8
:1016900025FE401BB04207D820684169C907F6D033
:1016A00027E000BFFFF71AFE00202021206384F806
:1016B0003D1084F83E00216C41F020012164216836
:1016C00084F83C000868C00544BF4FF400702064F3
:1016D000012002B0BDE8F0874169C90709D141691D
:1016E000C90706D14169C90704BF41695FEAC171F1
:1016F000F2D047F0F1010161416989073CD44169A9
:10170000721C4FEA415113D000292BD4002E00F057
:10171000A981FFF7E3FD401BB04200F2A5812068DC
:101720004169890728D441694905F2D51AE000BF0B
:10173000002917D4416989071ED44169490511D48C
:101740004169890718D4416949050BD44169890762
:1017500012D44169490505D4416989070CD441690E
:101760004905E7D5016841F4007101606FF48061BB
:101770004161042079E100BF218D022926D0012991
:101780000ED0002938D10021019141690191816970
:1017900001910199016841F40071016037E000BFD7
:1017A000016821F480610160EFF3108072B60020BF
:1017B0000190206841690191816901910199016855
:1017C00041F40071016062B621E000BF016841F49C
:1017D00000610160EFF3108072B600200190206874
:1017E00041690191816901910199016821F4806148
:1017F000016062B60BE000BF016841F480610160E6
:101800000021019141690191806901900198208D29
:10181000002800F01B8140F218084BF28959771C10
:10182000C2F20008C1F2F8494FF0230A80B203283F
:1018300018D8022840D0012868D1002E00F0D280AC
:101840002068014651F8142F520600F1CF80086835
:10185000C00600F13F81FFF741FD401BB042EFD9C8
:101860002DE100BF86B100BF2068014651F8142F5A
:1018700052060ED40868C00600F12C81FFF72EFD39
:10188000401BB042F0D91AE120684169490640F195
:101890000F810069616A0870606A2268411C208DAE
:1018A000616201382085638D013B638553695B0765
:1018B00040F1A88010699BE02068416949070FD476
:1018C000002F00F0A380002E00F01881FFF706FD26
:1018D000401BB04200F21481206840694007F5D5F2
:1018E000EFF3108072B62068616A026842F40072F9
:1018F000026000690870606A218D01306062481ED4
:101900002085608D0138608562B667E02068416996
:1019100049070FD4002F00F08980002E00F0EE80E0
:10192000FFF7DCFC401BB04200F2EA80206841690E
:101930004907F5D5016821F480610160EFF310805B
:1019400072B62068616A00690870606A218D013092
:10195000013960622185618D01396185D8F80010F7
:10196000C908A1FB0912110A01FB0AF100910099B3
:10197000013900910099002900F0888021684A69A6
:1019800052071BD4009A013A0092009A002A00F0F4
:101990007D804A69520711D4009A013A0092009A58
:1019A000002A73D04A69520708D4009A013A00927B
:1019B000009A002A6AD04A695207D8D50A6842F4C8
:1019C00000720A6009690170606A218D01306062ED
:1019D000481E2085608D0138608562B62068616A86
:1019E000006905E020684169490661D50069616ABE
:1019F0000870606A218D01306062481E2085618D0B
:101A00000139618501047FF411AF1FE04169490785
:101A10003FF566AF416949075CBF41695FEA4171C3
:101A20003FF55EAF41694907F0D559E7416949077C
:101A30003FF580AF416949075CBF41695FEA417189
:101A40003FF578AF41694907F0D573E7202084F866
:101A50003D00002084F83E0084F83C0002B0BDE860
:101A6000F08700BFFFF73AFC2020002120222163ED
:101A700084F83D2084F83E10226C1043206484F8E2
:101A80003C10012002B0BDE8F08700BF00202021FB
:101A9000206384F83D1084F83E00216C41F0200161
:101AA000216462B684F83C00012002B0BDE8F087F2
:101AB00050F8141FC90601460CD4FFF70FFC002094
:101AC0002021206384F83D1084F83E00206C40F013
:101AD00020000AE06FF01000086000202021206341
:101AE00084F83D1084F83E00206C2064002084F8C7
:101AF0003C00012002B0BDE8F08700BFFFF7EEFB1D
:101B000000202021206384F83D1084F83E00216CE1
:101B100041F02001216484F83C00012002B0BDE8BE
:101B2000F08700002DE9F04381B01F461646884635
:101B30000446FFF7D3FB94F83D1020291ED105463B
:101B400021688869800715D5FFF7C8FB401B192855
:101B5000F6D900202021206384F83D1084F83E004F
:101B6000216C41F02001216484F83C00022001B086
:101B7000BDE8F08394F83C00012803D1022001B0B5
:101B8000BDE8F083012084F83C000868C00703D159
:101B9000086840F001000860086820F400600860F0
:101BA000212084F83D00102084F83E0000202064AD
:101BB00066626785608D20850020CFF6FF70E06249
:101BC000E06A10F5803F18BF012819D1086840F479
:101BD000807008604869DDF82090C00723D119F1B2
:101BE000010016D0B9F1000F00F07E80FFF776FB00
:101BF000401B48457AD821684869C007F6D012E0F2
:101C00000828E3D0206B1228E0D0E3E74869C0073A
:101C100009D14869C00706D14869C00704BF4869AF
:101C20005FEAC070F2D02069B0F5804F02D1FE208B
:101C300039E000BF062000EAD810F030086148699A
:101C400000072FD4486919F1010214D040057DD452
:101C5000B9F1000F00F03681FFF740FB401B48450B
:101C600000F232812168486900071BD448694005A9
:101C7000F2D56BE04869400568D44869000711D483
:101C80004869400562D4486900070BD4486940059B
:101C90005CD44869000705D44869400556D44869B2
:101CA0000007E7D5FF2000EA0800086148698007BF
:101CB00056D4486919F101024FEA40502CD000284F
:101CC00044D4B9F1000F00F0FD80FFF707FB401B83
:101CD000484500F2F98021684869800740D4486986
:101CE0004005F2D532E000BFFFF7F8FA00202021CE
:101CF000206384F83D1084F83E00216C41F02001FF
:101D00002164216884F83C000868C00544BF4FF492
:101D1000007020640EE100BF002817D448698007D6
:101D20001ED44869400511D44869800718D4486911
:101D300040050BD44869800712D44869400505D492
:101D4000486980070CD448694005E7D5086840F425
:101D5000007008606FF4806048610420B5E000BF47
:101D6000002000904A6900928A690092009A228DB0
:101D7000002A00F0998009F101080A4652F8143F40
:101D80001B0637D4B8F1000F18D0B9F1000F00F0DE
:101D9000AD8000BF1068400500F1B080FFF79EFAEB
:101DA000401B484500F2A78021680A4652F8140FEC
:101DB00000064FF00000EDD51CE000BF13685B0586
:101DC00000F19C8013681B0614D413685B0500F1B6
:101DD000958013681B060DD413685B0500F18E8097
:101DE00013681B0606D413685B0500F1878013682F
:101DF0001B06E3D5676A3A4612F8013B0B61626243
:101E0000628D013A6285268D0A46A6F1010CA4F87E
:101E100028C052F8143F5B070DD55FEA0C430AD087
:101E20007B78A6F1020C0B61BB1C6362638D013BE6
:101E30006385A4F828C013685B0731D4B8F1000F9C
:101E400016D0B9F1000F51D01068400556D4FFF7F5
:101E500045FA401B48454ED821680A4652F8140FEF
:101E600040074FF00000EFD5B4F828C018E000BFDD
:101E700013685B0542D413685B0711D413685B05D4
:101E80003CD413685B070BD413685B0536D4136826
:101E90005B0705D413685B0530D413685B07E7D58F
:101EA0005FEA0C427FF469AF0A6842F400720A608C
:101EB000202184F83D1084F83E0084F83C0001B0F5
:101EC000BDE8F083FFF70AFA2020002120222163D9
:101ED00084F83D2084F83E10226C1043206484F87E
:101EE0003C10012001B0BDE8F08300BF1068400540
:101EF00004D4FFF7F3F9202004E000BF6FF4806002
:101F00001060042000212022216384F83D2084F801
:101F10003E10226C1043206484F83C10206C04288E
:101F200008D12068016841F400710160012001B00E
:101F3000BDE8F083012001B0BDE8F08310B586B0A4
:101F4000016845F20040C4F2000081424FF00001F8
:101F5000CDE90411CDE9021102D006B010BD00BFD9
:101F600041F21804C4F20204216800F5384041F03F
:101F700008012160216801F0080101910199C02147
:101F80000291122103910321059102A9FFF796F80E
:101F9000606840F400106060606800F40010019018
:101FA000019806B010BD000040F2100041F6643107
:101FB000C2F20000C2F2000100780A681044086012
:101FC0007047000080B542F20000C4F202000168D0
:101FD00041F010010160032000F0AEF8002000F095
:101FE00005F800F049F8002080BD000010B586B06B
:101FF00001461E200022002400F072F81E2000F08E
:102000005DF841F21C00C4F20200016841F00401D5
:1020100001600068694600F004000190019801A881
:1020200000F076FA00F096FA4DF683614000C4F2B3
:102030001B31A0FB01014FF0FF3000EB914140F656
:10204000CC1040F60002C2F20000C4F2000240F2DE
:10205000E733C0E90021C0E90243046100F0A6FCB7
:1020600010B1012006B010BD40F6CC10C2F2000045
:1020700000F014FD06B010BD82B041F21800C4F2A9
:1020800002000168022241F001010160016801F0D3
:10209000010101910199416841F08051416040681E
:1020A00000F08050009000980420C4F20100016804
:1020B00062F31A61016002B070470000002848BF57
:1020C000704700F01F01012202FA01F11C2202EA0E
:1020D000D0004EF20012CEF2000281507047000094
:1020E00010B54EF60C5CCEF2000CDCF80030C3F3F9
:1020F000022E8EF00704042C28BF0424BEF1030333
:102100004FF0FF3E0EFA04F438BF0023A14399407C
:102110000EFA03F39A43114300F00F0200F16043FB
:102120000901043A03F564436244002848BF02F100
:102130000C03197010BD00004EF60C51CEF20001D8
:102140000A684FF6FF031A4060F30A2242F08060EB
:1021500040F0FD7008607047012821D002280DD0A2
:10216000102808D141F20401C4F202010A6851F8B2
:10217000040CC00134D40020704700BF80B500F0CB
:10218000FDF941F20401C4F2020109680222C1F31F
:10219000813102EB4101B0FBF1F0BDE880407047B6
:1021A00041F20400C4F20200C16940F202320A4066
:1021B000B2F5817F04BF4FF40040704701F44071D5
:1021C000B1F5407F18D0B1F5007F1CBF00207047EB
:1021D000006A49F64041800701EAE070704700BF9D
:1021E000C2F3834015A3185CD2030DD440F600124D
:1021F000C0F23D02504313E050F8040C4FF224416A
:10220000800301EAE07070470A6810A3C2F34042FD
:102210009A5C41F20023C0F27A03B3FBF2F250431E
:102220000968490248BF70474AF6AB214000CAF628
:10223000AA21A0FB01014808704700BF0203040562
:10224000060708090A0B0C0D0E0F10100102000002
:102250002DE9F04182B00446007841F21C06C00727
:10226000C4F202064AD030685FEAC00808D4306879
:1022700040F080503060306800F08050019001984C
:1022800047F20007C4F200073868C00512D4386866
:1022900040F480703860FFF721F805463868C005C3
:1022A00008D4FFF71BF8401B6428F7D9032002B0BD
:1022B000BDE8F081706810F4407012D0616801F4DC
:1022C000407188420DD0706840F24042C4F2422210
:1022D000012320F4407113600023C0071360716074
:1022E00026D17068616820F440700843B8F1000F8F
:1022F000706003D4306820F080503060206881071F
:1023000007D556F8181CA26821F44041114346F83D
:10231000181CC00607D556F8180CE16820F4800098
:10232000084346F8180C002002B0BDE8F08100BF59
:10233000FEF7D4FF054641F2883700BF706880077A
:10234000CFD4FEF7CBFF401BB8424FF00300F5D9C6
:10235000EAE70000002804BF012070472DE9F043A0
:1023600081B042F20008C4F202080446D8F8000026
:102370000D4600F0070081420CD9D8F8000020F08B
:1023800007002843C8F80000D8F8000000F0070054
:10239000A8426CD1206841F204098107C4F2020905
:1023A00017D5410705D5D9F8001041F4E061C9F807
:1023B0000010010705D5D9F8001041F46051C9F8A3
:1023C0000010D9F80010A26821F0F0011143C9F8FB
:1023D0000010C00742D1D8F8000000F00700854285
:1023E0000CD2D8F8000020F007002843C8F80000FD
:1023F000D8F8000000F00700A84238D12068410753
:1024000007D5D9F80010E26821F4E0611143C9F85A
:102410000010000708D5D9F80000216920F46050A9
:1024200040EAC100C9F80000D9F8002002F00C0011
:10243000082841F20020C0F27A004DD146F2F8534C
:10244000C2F38341C0F60003595CD20338D440F68E
:102450000010C0F23D0048433EE000BF606859F8FC
:10246000041C022808D0012826D1890306D40120A3
:1024700001B0BDE8F08300BF8901F8D5D9F800109C
:1024800021F003010843C9F80000FEF727FF0646C4
:1024900041F28837D9F80000616800F00C00B0EB19
:1024A000810F98D0FEF71AFF801BB842F2D90320A3
:1024B00001B0BDE8F08300BF8907D8D5DEE700BFD3
:1024C000D9F8002046F2DE53C2F34042C0F60003C2
:1024D0009A5C4843B0FBF2F0D9F8001046F2E052A3
:1024E000C1F30311C0F60002515C40F2180220FA59
:1024F00001F140F21400C2F200000068C2F20002D2
:102500001160FFF773FD002001B0BDE8F08300000B
:102510000F22026041F20402C4F20202136803F0C7
:1025200003034360136803F0F0038360136803F44C
:10253000E063C36012684FF4E06303EAD202026111
:1025400042F20000C4F20200006800F007000860D8
:102550007047000040F2180041F20401C2F200008E
:10256000C4F202010068096846F2F052C1F3022188
:10257000C0F60002515CC8407047000040F21800ED
:1025800041F20401C2F20000C4F2020100680968CD
:1025900046F2F052C1F3C221C0F60002515CC840BD
:1025A00070470000002804BF012070472DE9F0416A
:1025B00082B00446007841F20006C007C4F2020669
:1025C0000CD0706800F00C00042840F08180306866
:1025D000800303D56068002800F0468120788007DA
:1025E0001BD5706810F00C0F09D0706800F00C005B
:1025F000082840F087807068C00300F1838030684D
:10260000800703D52069012840F02E813068616978
:1026100020F0F80040EAC10030602078000713D4B1
:10262000207840072CD4E569002D00F018817068EF
:1026300000F00C00082840F0A780012D40F0048134
:10264000012002B0BDE8F081A069002800F084807C
:102650000020C4F242200121C0F88014FEF73EFEA3
:10266000054600BF706A800700F1B280FEF736FEB3
:10267000401B0228F6D9032002B0BDE8F08100BF5C
:10268000F0695FEAC00808D4F06940F08050F0615A
:10269000F06900F080500090009847F20007C4F203
:1026A00000073868C00549D4386840F48070386045
:1026B000FEF714FE054600BF3868C0053ED4FEF79D
:1026C0000DFE401B6428F7D9032002B0BDE8F0815D
:1026D000706800F00C00082803D17068C0033FF553
:1026E00076AF61683068002900F00C81B1F5A02F49
:1026F00000F00081B1F5803F40F01A8140F4803055
:102700001CE100BF2069002840F20000C4F2422012
:1027100000F0888001210160FEF7E0FD054600BF62
:10272000306880073FF572AFFEF7D8FD401B0228E6
:10273000F6D9032002B0BDE8F08100BFE168306A3D
:10274000002900F09D80052900F09280012940F0C9
:10275000AF8040F00100B1E00020C4F2422000212F
:10276000C0F88014FEF7BAFD054600BF706A800706
:102770007FF556AFFEF7B2FD401B0228F6D90320C5
:1027800002B0BDE8F08100BF0027C4F2422700205C
:102790003866FEF7A3FD022D05460DD13068800195
:1027A00040F1DE80FEF79AFD401B02284FF0030047
:1027B000F4D902B0BDE8F081306880014FD5FEF752
:1027C0008DFD401B02284FF00300F5D9F1E700BF53
:1027D00040F21800C2F20000006844F6D351C1F282
:1027E0006201A0FB0101480A019000BF00BF0198EF
:1027F000411E002801913FF413AF00BF0198411E14
:10280000002801913FF40CAF00BF0198411E002841
:1028100001913FF405AF00BF0198411E00280191CE
:10282000E4D1FDE600210160FEF758FD054600BF3A
:10283000306880077FF5F1AEFEF750FD401B02289F
:102840004FF00300F4D9B4E77068216A00F48032D5
:102850008A4209D1616A00F47010884204D10020D4
:1028600002B0BDE8F08100BF012002B0BDE8F081F8
:1028700040F004003062306A40F001001EE000BF0A
:1028800020F001003062306A20F004003062FEF770
:1028900025FD054641F28837306A800720D5FEF7CE
:1028A0001DFD401BB8424FF00300F5D981E700BF82
:1028B00020F001003062306A20F004003062FEF740
:1028C0000DFD054641F28837306A800708D4FEF7CF
:1028D00005FD401BB842F7D9032002B0BDE8F081E6
:1028E000B8F1000F3FF59FAEF06920F08050F06125
:1028F00099E600BF40F480203060306840F48030BA
:102900001CE000BF20F480303060306820F480206C
:102910003060FEF7E3FC0546306880037FF55EAE6D
:10292000FEF7DCFC401B64284FF00300F4D940E7BD
:1029300020F480303060306820F480203060FEF772
:10294000CDFC0546306880033FF548AEFEF7C6FC77
:10295000401B6428F6D9032002B0BDE8F08100BF17
:10296000206AB0F5803F05D17168A26821F400317A
:10297000114371607168626A21F474111143084354
:10298000706001203866FEF7A9FC044630688001BB
:102990003FF565AFFEF7A2FC001B02284FF00300D5
:1029A000F4D906E77047000070470000002804BF14
:1029B0000120704710B590F83D1031B9002180F822
:1029C0003C10044600F068F82046022180F83D10D3
:1029D000016840F2FF740B68C4F2000442F6004C38
:1029E000A142C4F2010C15DCB1F1804F1AD040F2C3
:1029F0000042C4F20002914214D0A14218DCB1F1AD
:102A0000804F1DD040F20042C4F20002914217D024
:102A10001AE000BF614505D040F60002C4F2000292
:102A20009142EAD1826823F070031343A142E6DDAC
:102A3000614505D040F60002C4F20002914203D184
:102A4000026923F440731343846923F08002D0F8B1
:102A500004E0C368224361450A60CB62C1F828E004
:102A600002D14269CCF8302001224A6180F8462028
:102A700080F83E2080F83F2080F8402080F84120F8
:102A800080F8422080F8432080F8442080F84520D8
:102A900080F83D20002010BD7047000090F83D10E8
:102AA00001291CBF01207047022180F83D100068F9
:102AB00040F2FF72C168C4F20002904241F001018D
:102AC000C16009DCB0F1804F12D040F20041C4F285
:102AD000000188420CD012E042F60041C4F201012C
:102AE000884205D040F60001C4F20001884206D1B8
:102AF000816801F00701062904BF002070470168C2
:102B000041F00101016000207047000070470000A3
:102B100010B5016804460869800744BFC8685FEAC9
:102B2000807039D40869400744BFC8685FEA4070C4
:102B30003ED40869000744BFC8685FEA007045D406
:102B40000869C00644BFC8685FEAC0604AD4086923
:102B5000C0071CBFC8685FEAC07051D10869000691
:102B600044BFC8685FEA006052D40869400644BFA9
:102B7000C8685FEA406053D40869800646BFC868E9
:102B80005FEA806010BD6FF0200220460A61BDE858
:102B90001040FFF709BF00BF6FF00200086101207D
:102BA00020778869800743D02046FFF7AFFF45E0D4
:102BB0006FF00400086102202077886910F4407FDC
:102BC00040D02046FFF7A2FF42E000BF6FF00800B0
:102BD000086104202077C86980073DD02046FFF7B0
:102BE00095FF3FE06FF01000086108202077C8696A
:102BF00010F4407F3AD02046FFF788FF3CE000BF4A
:102C00006FF001000861204600F03EF82168A5E75A
:102C10006FF0800008612046FFF7C4FE2168A4E73A
:102C20006FF040000861204600F038F82168A3E703
:102C3000204600F025F8204600F024F82168002006
:102C400020776FE7204600F01BF8204600F01AF8C6
:102C50002168002020776CE7204600F011F820461C
:102C600000F010F821680020207769E7204600F086
:102C700007F8204600F006F821680020207766E774
:102C80007047000070470000006840F60001C4F281
:102C90000001884218BF7047FFF786B970470000EF
:102CA000002804BF0120704710B5044690F83D008D
:102CB00028B9002084F83C00204600F061F8242068
:102CC00084F83D002068D4E90212C36823F400535D
:102CD000C360036923F440531A430261D4E9042317
:102CE0001143C268194341F20C639A431143C16016
:102CF0004169A26921F44071114343F60002C4F214
:102D000001029042416103D0FFF724FC02E000BFC2
:102D1000FFF734FCD4E90023192148439900B0FBA4
:102D2000F1F048F21F5CC5F2EB1CA0FB0C314FF632
:102D30009C734909C0F6FF7301FB0300322303EBC8
:102D40000010A0FB0C03F02000EA531000EB011070
:102D5000C3F34311084490601069202120F490408F
:102D60001061506920F02A005061D06840F4005092
:102D7000D0600020206484F83D1084F83E1010BD1F
:102D800070B586B040F60004C4F20104006804F592
:102D90004051002688420596CDE90366029601D08F
:102DA00006B070BD41F21800C4F20200016802AD25
:102DB00041F480410160016801F480410191019971
:102DC000016841F0040101600068294600F0040038
:102DD000019001984FF400700290022003900320AC
:102DE00005902046FEF76AF94FF48060CDE90206AF
:102DF000204629460496FEF761F906B070BD000032
:102E00002DE9F04381B0044690F83D0020280DD113
:102E100000294FF0010018BF002A03D101B0BDE81E
:102E2000F08300BF94F83C00012803D1022001B0D8
:102E3000BDE8F083012084F83C00002020642120BC
:102E40001D460E4684F83D001746FEF747FAA78454
:102E5000E784A1688146B1F5805F03D1206900282D
:102E600000F0968037460021002084F83C00E28C78
:102E70002068002A40D06A1C23D0002D5FD08846ED
:102E80000168090608D4FEF729FAA0EB09012068B9
:102E9000A942F5D968E000BF17B117F8011B04E09B
:102EA00038F8021B00276FF35F214160E18C013984
:102EB000E184E18C0029E3D11EE000BF0268120624
:102EC00009D40268120606D4026812065CBF0268C2
:102ED0005FEA0262F2D51FB117F8012B05E000BFCF
:102EE00031F8022B00276FF35F224260E28C013A37
:102EF000E284E28C002AE4D1016849060FD49DB334
:102F0000691C2AD10168490609D4016849065CBFD9
:102F100001685FEA416102D401684906F2D52020C8
:102F200084F83D00002001B0BDE8F08317F8012BC4
:102F30004260E28C013AE284E28C002ADCD0026832
:102F4000120611D5002FF1D131F8022B00276FF3B3
:102F50005F22EDE700684006E1D4FEF7BFF9A0EB81
:102F600009012068A942F5D9C16821F4D071C16076
:102F7000416921F001014161202084F83D0084F87D
:102F80003E00002084F83C00032001B0BDE8F0833F
:102F90000027314668E70000FEE70000B0B5A0F169
:102FA00040046FF07F02002908BF80EA020401207C
:102FB000E5B200F065FC40F60000C4F2010001211A
:102FC0000022FEF785F9280900F074F804F00F00DC
:102FD00000F070F80120BDE8B04000F051BC0000E6
:102FE00010B5322000F04CFC40F60004C4F201049D
:102FF000204601210022FEF76BF9032000F05AF869
:10300000032000F057F8052000F03AFC204601218B
:103010000022FEF75DF9032000F04CF8022000F0DA
:1030200049F8052000F02CFC204601210022FEF783
:103030004FF9022000F03EF8082000F03BF8052090
:1030400000F01EFC204601210022FEF741F900207D
:1030500000F030F80C2000F02DF8052000F010FCF6
:10306000204601210022FEF733F9002000F022F86B
:103070000120BDE8104000F01DB8000070B50578D3
:10308000002D08BF70BD40F60004461EC4F20104C6
:10309000204601210122FEF71BF9E8B2000900F0E9
:1030A00009F805F00F0000F005F8B5780136002D9D
:1030B000EED170BD70B540F60004C4F201040546BF
:1030C0004FF6882600F0010220461021CFF6FF7649
:1030D000FEF7FEF8C5F3400220462021FEF7F8F87F
:1030E000C5F3800220464021FEF7F2F8C5F3C00286
:1030F00020468021FEF7ECF8204602210122FEF74F
:10310000E7F8304600BF00BF00BF00BF00BF00BFF0
:1031100000BF00BF00BF00BF00BF00BF00BF00BFB7
:1031200000BF00BF00BF00BF00BF00BF00BF00BFA7
:1031300000BF00BF00BF00BF00BF00BF00BF00BF97
:1031400000BF00BF00BF00BF00BF00BF00BF00BF87
:1031500000BF00BF00BF00BF00BF00BF00BF00BF77
:1031600000BF00BF00BF00BF00BF00BF00BF00BF67
:1031700000BF00BF00BF00BF00BF00BF00BF00BF57
:1031800000BF00BF00BF00BF00BF00BF00BF463090
:1031900000BFB7D1204602210022FEF799F800BFF8
:1031A00000BF00BF00BF00BF00BF00BF00BF00BF27
:1031B00000BF00BF00BF00BF00BF00BF00BF00BF17
:1031C00000BF00BF00BF00BF00BF00BF00BF00BF07
:1031D00000BF00BF00BF00BF00BF00BF00BF00BFF7
:1031E00000BF00BF00BF00BF00BF00BF00BF00BFE7
:1031F00000BF00BF00BF00BF00BF00BF00BF00BFD7
:1032000000BF00BF00BF00BF00BF00BF00BF00BFC6
:1032100000BF00BF00BF00BF00BF00BF00BF00BFB6
:1032200000BF00BF00BF00BF00BF463600BFB7D120
:1032300070BD000010B5044640F60000C4F2010065
:1032400001210022FEF744F82009FFF733FF04F0C4
:103250000F00BDE81040FFF72DBF0000FEE70000A3
:1032600070470000000000000000000000000000A7
:10327000EFF30980BFF36F8F0D4B1A6820E9F00F51
:1032800010602DE908404FF0500080F3118801F0E4
:1032900069FE4FF0000080F31188BDE8084019680E
:1032A0000868B0E8F00F80F30988BFF36F8F7047AC
:1032B0002800002010B540F25014C2F2000420464D
:1032C000FDF754FE20460A21FDF718FD10B1002439
:1032D00007E000BF40F25010C2F20000FDF72AFCE8
:1032E000044640F25010C2F20000FDF7A7FEA0B263
:1032F00040F6B831884238BF014643F6E020CFF6A9
:10330000FE706422B1F5916F98BF4FF4916101FB9B
:10331000020048F257310009C0F6E701A0FB0101A5
:10332000A2EB9100C0B210BD000000000000000040
:10333000074B19680868B0E8F00F80F30988BFF3FD
:103340006F8F4FF0000080F311884EF00D0E704724
:103350002800002001F0DAF800F0D2FA044640F22A
:10336000F400C2F2000040F2EC17051D00F108065F
:10337000C2F200072846314601F0C6F9786804EB2E
:10338000400104442046B96000F098FAF2E70000DA
:1033900000F0B6FA40F2F40540F2EC160446C2F230
:1033A0000005C2F2000600BFFFF784FFB169A870F4
:1033B00004EB41000C44F061204600F07FFAF3E793
:1033C000FFF70EFE00F09CFA40F2F407C2F200078D
:1033D00040F2EC16044607F134050FF280080FF2B4
:1033E00088090FF2900AC2F2000600BF0120FFF721
:1033F00021FF00200021FFF7D1FD7868FCF78AFF4C
:1034000002460B462846414602F042FC2846FFF79A
:1034100035FE00200121FFF7C1FDB868FCF77AFFF7
:1034200002460B462846494602F032FC2846FFF782
:1034300025FE0A200121FFF7B1FDBA782846514642
:1034400002F026FC2846FFF719FEF06A04EB400163
:1034500004442046316300F031FAC7E754656D70CB
:103460003A252E316620430048756D3A252E316687
:1034700025250000534D3A256425250082B000F033
:103480003FFA40F2F40A40F2EC1B0446C2F2000A92
:103490000FF24C080FF26809C2F2000BDAE90107DB
:1034A000FCF738FF054638460E46FCF733FF074663
:1034B00040462A463346CDE90071FDF777FA9AF87F
:1034C00002104846FDF772FADBF8400004EB4001B9
:1034D00004442046CBF8441000F0F0F9DEE700BFCA
:1034E00054656D703A20252E326620432C20487595
:1034F0006D693A20252E326625252C20000000001B
:10350000534D3A2025642525200A000040F2EC188E
:10351000C2F2000821E000BF2821D8F800000068AE
:1035200000F0B8FAD8F814001821006800F0B2FAD8
:10353000D8F8280018210068354218BF282100F06B
:10354000A9FAD8F83C0028210068002D18BF1821DE
:1035500000F0A0FA0A2000F093F900F0D1F9D8F8B1
:103560000810D8F81C604C1C81424FF00003B4FADC
:1035700084F4D8F83050D8F8442098BF0123640967
:10358000814243EA040398BF4FF0FF3186424FF077
:1035900000044FF0000788BF01248E4238BF012786
:1035A0005B4227401CBF3146012385424FF0000794
:1035B0004FF0000688BF01278D4238BF01263E40EC
:1035C0001CBF2946022382424FF0000098BF012011
:1035D0008A424FF0000128BF012150EA010508BFCF
:1035E0000323002B98D0012BB4D0182195E70000BD
:1035F00080B54FF0500080F31188BFF36F8FBFF399
:103600004F8F02F073F930B14EF60450CEF2000045
:103610004FF080510160002080F3118880BD0000D0
:103620007047000040F6CC10C2F20000FFF770BAFD
:10363000FEE7000094B0FEF7C5FC00274FF4803091
:103640004FF00208CDE90B07CDE911804FF4E010EF
:10365000012613900AA8CDE90F77CDE90D770497DD
:10366000CDE902770A960E96FEF79CFF0F20CDE972
:1036700005084FF48060CDE9080705A802210797E7
:10368000FEF768FE4FF40040039001A8CDF80480D7
:10369000FEF7DEFD41F21800CDE90C77CDE90A779F
:1036A000C4F20200016840F6000441F0200101600C
:1036B0000168C4F2010401F0200105910599016837
:1036C000002241F0040101600168F32501F00401CA
:1036D00005910599016841F0080101600068F32136
:1036E00000F00800059005982046FDF7F1FD0AA8B6
:1036F00080E8E0010AA92046FDF7E0FC40F2501501
:1037000004F5E050C2F200054FF46021C5E900075E
:1037100028462F732F75E961AF602E61FDF70EFA11
:1037200009200AA9C1C10AA92846FDF763F940F694
:103730007810A4F53441C2F2000048F2A0624FF4C0
:103740008043C0F2010280E88600C0E90373C0E94B
:103750000577C0E90777FDF7C7FD04F5405045F848
:10376000300F4FF4E1300C21C5E901072846C5E9C7
:103770000377C5E90517EF61FFF792FA00F0DAF871
:1037800046F2086443F25530C0F60004C0F600006B
:103790000021224600F00EF940F2F406C2F20006C3
:1037A000B14649F80C0F43F29130C0F600000021F9
:1037B000224600F0FFF8374647F8100F43F2C130B9
:1037C000C0F600000021224600F0F4F8354645F826
:1037D000140F43F27D40C0F600000021224600F0A5
:1037E000E9F846F8180F40F20000C2F20000016844
:1037F00040F2EC14C2F20004C4E9009143681421C1
:1038000004F10C0C18A28CE88600A361836818A24E
:10381000C4E90882C4E90A53C06804F1340315A25C
:1038200046C32064052014A1C4E9120100F068F821
:103830006168A269E36A276C0144A1601118E16123
:1038400019183844606443F20D5046F22C6221632B
:10385000C0F60000C0F60002002100F0ABF8706076
:1038600000F086F8FEE700BF5348543331000000F3
:10387000534D00004C434400554152540000000099
:10388000EFF3058111B9EFF3108119B16FF0050065
:10389000704700BF40F29841C2F200010968022956
:1038A00003D1EFF311810029F0D1002804BF0020DB
:1038B000704780B501F036F9002080BDEFF3058137
:1038C00011B9EFF3108119B16FF00500704700BF17
:1038D00040F29841C2F200010968022903D1EFF3D6
:1038E00011810029F0D110B582B0044601F0EEFF3D
:1038F0000190211A01A801F055F9002002B010BD75
:10390000EFF3058090B9EFF31080002818BF01F0A5
:10391000E3BF40F29840C2F200000068022807D1DD
:10392000EFF31180002808BF01F0D0BF01F0D4BF31
:1039300001F0CCBFEFF3058010B9EFF3108018B1A0
:103940006FF00500704700BF40F29840C2F20000DF
:103950000168022904D1EFF311810029F0D1016837
:10396000002911BF4FF0FF30012101600020704796
:10397000EFF3058010B9EFF3108018B16FF0050078
:10398000704700BF40F29840C2F20000016802296F
:1039900004D1EFF311810029F0D1016801291CBF86
:1039A0004FF0FF30704780B50221016001F05CFAF2
:1039B000002080BD2DE9F04186B000240B46049420
:1039C000EFF3058121B1204606B0BDE8F08100BFCC
:1039D000EFF310810029F6D140F29841C2F20001C4
:1039E0000968022906D10028EFF31181EBD019B143
:1039F000E9E700BF0028E6D00DF117018DF8174068
:103A000082B31768D2F818E0002F18BF3946BEF10C
:103A1000000F08BF4FF0180EBEF1380FD3D817793A
:103A2000FF07D0D15769D2E902854FEA970C002FE2
:103A3000664608BF8026B8F1000F25D05C2DC2D3A2
:103A40001269002A18BF002FBDD0CDE900E26246FE
:103A5000CDF8088001F0F0FE0446204606B0BDE82F
:103A6000F08100BF80264FF0180E04AFB2B2CDE94E
:103A700000E701F0B1FE0499012808BF0C4620467A
:103A800006B0BDE8F08100BF002D9CD11269002A6C
:103A900099D1EAE7EFF3058212B9EFF310821AB178
:103AA0006FF00500704700BF40F29842C2F200027A
:103AB0001268022A03D1EFF31182002AF0D16FF0CD
:103AC000030250B1A1F1390313F1380F05D380B5CA
:103AD00001F058F90022BDE8804010467047000010
:103AE0002DE9F041044600F0D5FE40F22806C2F26E
:103AF0000006F06840F604350130F0603068C2F22C
:103B0000000558B13069002840F007813068E16A4B
:103B1000C06A884298BF3460FFE000BF3460F0683C
:103B2000012840F0FA80284600F064FE05F11400F8
:103B300000F060FE05F1280000F05CFE05F13C009D
:103B400000F058FE05F1500000F054FE05F164004D
:103B500000F050FE05F1780000F04CFE05F18C00FD
:103B600000F048FE05F1A00000F044FE05F1B400AD
:103B700000F040FE05F1C80000F03CFE05F1DC005D
:103B800000F038FE05F1F00000F034FE05F582701B
:103B900000F030FE05F58C7000F02CFE05F59670F7
:103BA00000F028FE05F5A07000F024FE05F5AA70CF
:103BB00000F020FE05F5B47000F01CFE05F5BE70A7
:103BC00000F018FE05F5C87000F014FE05F5D2707F
:103BD00000F010FE05F5DC7000F00CFE05F5E67057
:103BE00000F008FE05F5F07000F004FE05F5FA702F
:103BF00000F000FE05F5027000F0FCFD05F5077011
:103C000000F0F8FD05F50C7000F0F4FD05F51170FD
:103C100000F0F0FD05F5167000F0ECFD05F51B70E9
:103C200000F0E8FD05F5207000F0E4FD05F52570D5
:103C300000F0E0FD05F52A7000F0DCFD05F52F70C1
:103C400000F0D8FD05F5347000F0D4FD05F53970AD
:103C500000F0D0FD05F53E7000F0CCFD05F5437099
:103C600000F0C8FD05F5487000F0C4FD05F54D7085
:103C700000F0C0FD05F5527000F0BCFD05F5577071
:103C800000F0B8FD05F55C7000F0B4FD05F561705D
:103C900000F0B0FD05F5667000F0ACFD05F56B7049
:103CA00000F0A8FD05F5707000F0A4FD05F5757035
:103CB00000F0A0FD05F57A7000F09CFD05F57F7021
:103CC00000F098FD05F5826000F094FD05F22440B7
:103CD00000F090FD05F5876000F08CFD05F24C408A
:103CE00000F088FD40F2C418C2F20008404600F01F
:103CF00081FD08F11407384600F07CFD06F16400F0
:103D000000F078FD06F13C0000F074FD06F1500073
:103D100000F070FDC6F81C8037627068716A421C42
:103D2000E06A72608842626488BF706200EB800063
:103D300005EB8000211D00F09FFD00F0CFFD3069F4
:103D400088B13068E16AC06A884228BFBDE8F08166
:103D50004EF60450CEF200004FF080510160BFF3E8
:103D60004F8FBFF36F8FBDE8F081000040F2280550
:103D700040F604364EF60458C2F20005C2F20006C0
:103D8000CEF200084FF0805703E000BF204600F05D
:103D9000BDFDA868D0B100F07DFDA86CC468201DF1
:103DA00000F0FAFCE8680138E860A8680138A8600B
:103DB00000F094FD94F859000228EAD00128E5D0DB
:103DC00070B9206B00F0A2FDE0E700BF3068022868
:103DD000DFD3C8F80070BFF34F8FBFF36F8FD8E702
:103DE0004FF0500080F31188BFF36F8FBFF34F8FF8
:103DF000FEE700002DE9F0470A9C8246206B16463C
:103E00000F46DDE908599100A5229846FCF79CF978
:103E1000206B397800EB8600043820F0070684F820
:103E20003410D9B3787884F83500B8B3B87884F80A
:103E3000360098B3F87884F8370078B3387984F886
:103E4000380058B3787984F8390038B3B87984F8F1
:103E50003A0018B3F87984F83B00F8B1387A84F85E
:103E60003C00D8B1787A84F83D00B8B1B87A84F8CB
:103E70003E0098B1F87A84F83F0078B1387B84F836
:103E8000400058B1787B84F8410038B1B87B84F8A1
:103E9000420000281CBFF87B84F843000027201D47
:103EA00084F84370372D28BF3725E562C4E91357DE
:103EB00000F0ACFC04F1180000F0A8FCC5F13800DB
:103EC000A06130465146424624616462676584F8C9
:103ED000587000F00BFBB9F1000F206018BFC9F853
:103EE0000040BDE8F087000006480068006880F3E5
:103EF000088862B661B6BFF34F8FBFF36F8F00DFE4
:103F000000BF000008ED00E081B00020009040F20A
:103F10001C00C2F2000000684FF0500181F31188CC
:103F2000BFF36F8FBFF34F8F013007D0FEE700BFA5
:103F3000009830B9009820B9009810B9009800286E
:103F4000F6D001B07047000088B040F2A00AC2F27B
:103F5000000A0DF11009E8464FF0010BDAF80800ED
:103F600005681DB1C068046801E000BF002400F0CE
:103F7000F1FF01F0ABFCDAF810100646884224D3BA
:103F8000002DCAF8106053D0B44251D801F0AEFDF4
:103F9000DAF80800C068C7683D1D284600F0FCFB41
:103FA000F869012840F08080B8693F610119B14289
:103FB00079605BD90AF108005DE000BF7860DAF84B
:103FC000080029463F6100F025FCDAF80800016886
:103FD00021B3C068C76804683D1D284600F0DCFBBB
:103FE000796A38468847F8690128EED1B8692044D3
:103FF000A042E3D8DAF80000002800F02381002076
:1040000004A991C101F052FCDAF8000049460022EF
:10401000002301F013F90028D7D113E1DAF80C10CE
:10402000CAF81060CAE9021001F060FD45E000BF67
:1040300015B1002206E000BFDAF80C000068B0FA03
:1040400080F04209DAF80000A11B00F041FD01F008
:104050004DFD90BB4EF60450CEF200004FF0805163
:104060000160BFF34F8FBFF36F8F26E0311B81429A
:1040700006D20AF10C000068294600F0CBFB13E0E1
:10408000DAF80000002800F0FB80002004A991C1AC
:1040900001F00CFCDAF8000049460022002301F090
:1040A000CDF8002800F0EC80796A3846884704E0B3
:1040B0000AF10C02106800F0ADFBDAF8000041468E
:1040C000002201F01BFA00283FF448AF0098B0F13D
:1040D000FF3F06DCDDE901200399904700980028A6
:1040E000EBD4029E706910B1301D00F055FB01F059
:1040F000EDFBDAF81010074688423AD2C34606E0D4
:104100006860DAF8080021462D6100F083FBDAF8D8
:104110000800016831B3C068C568D0F800802C1D64
:10412000204600F039FB696A28468847E86901287B
:10413000EDD1A86940444045E2D8DAF800000028F3
:1041400076D00020CDE90408069501F0AFFBDAF83F
:10415000000049460022002301F070F80028D6D163
:1041600066E000BFDAF80C10D8464FF0010BCAE940
:1041700002100098CAF8107009289ED80BFA00F1B6
:1041800011F0C70F10D00198B2693146131841F8E9
:10419000043FBB4236611BD987420AF10802BFF4D3
:1041A00089AF834218D285E711F4047F34D0019897
:1041B0000028B0615AD0384431460AF10C0241F867
:1041C000040F3661B84288BF0AF1080272E700BFE7
:1041D000381A9042FFF46CAF716A30468847F06934
:1041E00001287FF46AAFDAF80000002834D0019883
:1041F000B169069608440021CDE9041001F056FB90
:10420000DAF8000049460022002301F017F80028E0
:104210007FF453AF20E000BF05287FF44EAF96F83F
:104220002C0000287FF449AF304600F06FFB44E7D4
:104230004FF0500080F31188BFF36F8FBFF34F8FA3
:10424000FEE700BF4FF0500080F31188BFF36F8F7F
:10425000BFF34F8FFEE700BF4FF0500080F311888F
:10426000BFF36F8FBFF34F8FFEE700BF4FF05000DB
:1042700080F31188BFF36F8FBFF34F8FFEE700BF4E
:104280004FF0500080F31188BFF36F8FBFF34F8F53
:10429000FEE70000F0B581B0044600F0FBFA94F9A7
:1042A0004560012E0FDB04F1240500BF286850B1E2
:1042B000284601F0E1FB002818BF00F0E3FCF0B253
:1042C000013E0128F2D8FF2684F8456000F006FB85
:1042D00000F0E0FA94F94470012F0EDB04F11005B0
:1042E000286850B1284601F0C7FB002818BF00F02D
:1042F000C9FCF8B2013F0128F2D884F8446001B04B
:10430000BDE8F04000F0EABA70B5044600F022FEC5
:1043100040F2DC0CC2F2000CDCF8042012B19CF874
:10432000000022E040F66470C2F20000420700F58F
:10433000406200F1070122F0070218BF21F00700D8
:104340000021A2F10803CCF81000CCF81410CCF82E
:10435000043042E90211DCF80420191AC0E90021F6
:104360000120CCE902118CF800000025002C4FF050
:10437000000148BF01215AD0084058D124F007005D
:1043800000F11003600708BF04F10803DCF808001F
:10439000591E81424BD2604650F810EFDEF80450AF
:1043A0009D422CD2DEF80010C1B174464D689D428A
:1043B00018D20E68B6B175689D4217D23068A8B1A0
:1043C00045689D4216D20468A4B165689D4215D225
:1043D0002168A6460029E9D111E000BF0CF11000C8
:1043E0000DE000BF8E46204609E000BFB6460846F5
:1043F00005E000BF8646304601E000BFA646964570
:1044000014D00268DEF80040E91A112904604FD385
:104410000EEB0305680719D04FF0500080F31188A8
:10442000BFF36F8FBFF34F8FFEE700BF002501F092
:104430005DFB680757D04FF0500080F31188BFF341
:104440006F8FBFF34F8F00BFFEE700BF0CF110006E
:104450006960CEF8043000BF0168A9420AD208683A
:10446000A8420BD20168A94204D208680B46A842B0
:10447000F2D304E00346084601E000BF0B465C6847
:1044800069681E19AE4202D121441D4659606C185C
:10449000844201D0044607E0DCF80440A04203D087
:1044A000D0E9004008446860AB422C6018BF1D6032
:1044B000DEF80400DCE9021302F10805091A99424A
:1044C000CCF8081038BFCCF80C109CF8001000296C
:1044D0004FF0000118BF40F00040CEE9001001F09D
:1044E00005FB6807A7D1284670BD0000034643F6C8
:1044F0000970C0F600004FF0807C21F0010103E953
:104500000310A3F1400043F8202C704780B582B01F
:104510004AF23020ADF8060040F678104FF0640CF7
:10452000C2F200000DF1060288210223CDF800C07E
:10453000FDF7F8FA0A20FFF7A3F902B080BD0000EA
:104540002DE9F04383B0814640F678108846642612
:10455000C2F200000DF10602882106230096FCF746
:1045600075FF18B103B0BDE8F08300BF9DF90600E8
:10457000C143CAB2312181EA4203002848BF530037
:1045800081EA43021E0658BF5A0081EA420316061A
:1045900058BF530081EA43021E0658BF5A0081EA01
:1045A0004203160658BF530081EA43021E0658BF55
:1045B0005A0081EA4203160658BF530081EA4306B7
:1045C0001A0658BF5E009DF807C09DF8083086EABD
:1045D0000C0674B2F6B27700002C48BF81EA460799
:1045E00081EA47063C0658BF7E0081EA460734064A
:1045F00058BF770081EA47063C0658BF7E0081EA33
:104600004607340658BF770081EA47063C0658BF84
:104610007E0081EA4607340658BF770081EA4706E4
:104620003C0658BF7E00F7B2BB4269D19DF9093004
:10463000DF43FFB281EA4706002B48BF7E0081EAD4
:104640004607340658BF770081EA47063C0658BF44
:104650007E0081EA4607340658BF770081EA4706A4
:104660003C0658BF7E0081EA4607340658BF7700F3
:1046700081EA47063C0658BF7E0081EA46073406B9
:1046800058BF77009DF80A409DF80B6067407DB2E7
:10469000FFB27A00002D48BF81EA470281EA420753
:1046A000150658BF570081EA47023D0658BF7A00F9
:1046B00081EA4207150658BF570081EA47023D06C6
:1046C00058BF7A0081EA4207150658BF570081EAB1
:1046D00047023D0658BF7A0081EA4201170658BFDB
:1046E0005100C9B28E420BD14CEA0020A9F800005B
:1046F00044EA0320A8F80000002003B0BDE8F083DE
:10470000012003B0BDE8F08370B584B005462420D5
:10471000ADF80E0040F678100C466426C2F2000098
:104720000DF10E02882102230096FDF7FBF91420FB
:10473000FFF7A6F803A80DF10A01FFF701FF18B172
:10474000002004B070BD00BFBDF80C00FBF7DDFD1C
:104750000021C4F22F31FBF768FD4FF60076C4F25A
:104760007F763146FBF793FD0021CCF23421FBF735
:1047700004FDBDF80A1028600846FBF7C6FD0021BD
:10478000C4F2C821FBF751FD3146FBF780FD2060E4
:10479000012004B070BD00000169D0E90132D1F8F8
:1047A00004C09A608445536008BF4A6000220261D9
:1047B00008680138086008687047000040F23C4310
:1047C000C2F20003036040F23C20C2F20000086025
:1047D000802010607047000040F69C03C2F2000386
:1047E000036040F29C40C2F2000008604FF4807009
:1047F000106070474FF0FF31024642F8081F002159
:104800004260C0E90322016070470000002101619D
:104810007047000010B5D1F800C01CF1010213D0A0
:1048200000F1080462681368634511D853681C6876
:10483000644511D85A68146864450FD854682368D1
:10484000A6466345EED90BE00269D2F804E007E022
:104850009646224604E000BF9E4601E096461A4670
:10486000C1F804E0CEF808108A6051600861016860
:104870000131016010BD0000D0F800C0436808613C
:104880009A68C1E90132516099600CF1010101603F
:10489000704700004FF0500080F31188BFF36F8F16
:1048A000BFF34F8F40F21C00C2F2000001684A1CA7
:1048B000026009B1704700BF4EF60450CEF200000E
:1048C0000068000608BF70474FF0500080F3118861
:1048D000BFF36F8FBFF34F8FFEE7000040F21C0065
:1048E000C2F20000016839B10139016018BF704798
:1048F000002080F3118870474FF0500080F311883A
:10490000BFF36F8FBFF34F8FFEE7000070B5002835
:1049100008BF70BD40F2DC05C2F20005297850F8EE
:10492000042C002918BF4FF0004111420ED0A0F115
:1049300008042368A3B14FF0500080F31188BFF33F
:104940006F8FBFF34F8F00BFFEE700BF4FF05000E7
:1049500080F31188BFF36F8FBFF34F8FFEE700BF67
:1049600022EA010140F8041C064600F0F3FA56F86A
:10497000040CA9680144A96005F110010B68A34269
:104980000AD21968A14213D20B68A34204D2196853
:104990001A46A142F2D301E00A4619465368D618D6
:1049A000A6420AD023188B420DD00B4612E000BF5E
:1049B0001A465368D618A642F4D1184414465060DB
:1049C00023188B42F1D16B68994203D0D1E90031B1
:1049D00008446060A242236018BF1460BDE87040C4
:1049E00001F084B84EF21000CEF200000021016008
:1049F000816040F21801C2F20001096844F6D35206
:104A0000C1F26202A1FB02124FF0FF3101EB9211E1
:104A1000416007210160704740F22000EFF30581FB
:104A20001029C2F2000011D34EF2F032CEF2000291
:104A3000895C0278914209D24FF0500080F31188CE
:104A4000BFF36F8FBFF34F8FFEE700BF4EF60C51E1
:104A5000CEF200010968406801F4E061814298BF2C
:104A600070474FF0500080F31188BFF36F8FBFF392
:104A70004F8F00BFFEE7000041F6683CC2F2000C19
:104A8000DCF8003003B3634653F8082FEAB16346FD
:104A900053F8102FCAB1634653F8182FAAB16346D2
:104AA00053F8202F8AB1634653F8282F6AB1634622
:104AB00053F8302F4AB15CF8382F002A634608BFFC
:104AC000C3E90010704700BF6346C3E90010704798
:104AD00070B515460E460446FFF7DCFE94F8440018
:104AE000FF2804BF002084F8440094F84500FF2804
:104AF00004BF002084F84500FFF7F0FEA06B28B14A
:104B00002046BDE87040FFF7C5BB00BF04F124009C
:104B100031462A4600F0F8F82046BDE87040FFF71D
:104B2000B9BB000070B588B340F22804C2F200049B
:104B3000616949B14FF0500080F31188BFF36F8F66
:104B4000BFF34F8FFEE700BF616906460131616127
:104B5000A569216804310846FFF71EFE2068AD19DB
:104B6000456005D3206A21680431FFF753FE08E051
:104B7000E06921680431FFF74DFEE06A854238BFE5
:104B8000E56200F0B3FF002818BF70BD4EF6045078
:104B9000CEF200004FF080510160BFF34F8FBFF3A2
:104BA0006F8F70BD70B588B1D1B140F22804C2F2E8
:104BB00000046269F2B14FF0500080F31188BFF336
:104BC0006F8FBFF34F8F00BFFEE700BF4FF0500065
:104BD00080F31188BFF36F8FBFF34F8FFEE700BFE5
:104BE0004FF0500080F31188BFF36F8FBFF34F8FEA
:104BF000FEE700BF626901326261A26903689A42FE
:104C0000194403D2994203D316E000BF994201D35D
:104C1000914211D90160A56920688E1A0430FFF70E
:104C2000BBFD2068AD19456008D3206A21680431B6
:104C3000FFF7F0FD0BE000BF016008E0E0692168CC
:104C40000431FFF7E7FDE06A854238BFE56200F016
:104C50004DFF002818BF70BD4EF60450CEF2000084
:104C60004FF080510160BFF34F8FBFF36F8F70BD66
:104C700040F22801C2F200018A6B0260896941603A
:104C80007047000040F22800C2F2000001210163D9
:104C90007047000070B5D8B140F22804C2F2000499
:104CA0000D4621681831FFF7B5FDA669206804306C
:104CB000FFF772FD681C15D02068AD19456019D347
:104CC000206A21680431BDE87040FFF7A3BD00BF32
:104CD0004FF0500080F31188BFF36F8FBFF34F8FF9
:104CE000FEE700BF54F8500B011D2046BDE87040A0
:104CF000FFF7C2BDE06921680431FFF78BFDE06A70
:104D0000854238BFE56270BDF0B581B0C0B140F2F8
:104D10002804C2F200040D46216816461831FFF738
:104D2000ABFDA76920680430FFF736FD96B154F853
:104D3000500B011D204601B0BDE8F040FFF79CBDBF
:104D40004FF0500080F31188BFF36F8FBFF34F8F88
:104D5000FEE700BF2068ED19456007D3206A21688F
:104D6000043101B0BDE8F040FFF754BDE0692168AF
:104D70000431FFF74FFDE06A854238BFE56201B0BC
:104D8000F0BD0000382909D34FF0500080F311889E
:104D9000BFF36F8FBFF34F8FFEE700BF2DE9F041E8
:104DA0000D460446FFF776FD34B1E06CA8420BD106
:104DB000BDE8F041FFF792BD40F22800C2F20000CA
:104DC0000468E06CA842F3D040F22808C2F2000860
:104DD000D8F80010854209D98C420BD0D8F80010C1
:104DE0000027C96A8D4238BF012704E0671A18BF3F
:104DF000012700E00127E16A40F60436884208BF37
:104E0000E562A069E56400285CBFC5F13800A061D7
:104E1000606901EB8101C2F2000606EB8101884264
:104E200011D1251D2846FFF7B7FCE06AD8F82410F9
:104E3000884288BFC8F8240000EB800006EB8000A1
:104E40002946FFF719FD002FB2D14EF60450CEF2DD
:104E500000004FF080510160BFF34F8FBFF36F8FA1
:104E6000BDE8F041FFF73ABD10B588B00020CDE9AC
:104E7000050006A805A904AAFFF7A0FC05980028CC
:104E80003CD0069C002C43D05C21049A07910799E2
:104E90005C2947D12063022084F8590007A800212B
:104EA000CDE9001043F66D50C0F6000027A10023A5
:104EB0000294FEF79FFF2046FEF712FE079840F28D
:104EC0002804C2F20004A062B0B100F087FE411CC9
:104ED00032D0012810D14FF0500080F31188BFF379
:104EE0006F8FBFF34F8F4FF0FF30E06201202061E2
:104EF0000020A06100F09CF808B010BD4FF05000F9
:104F000080F31188BFF36F8FBFF34F8FFEE700BFB1
:104F10004FF0500080F31188BFF36F8FBFF34F8FB6
:104F2000FEE700BF4FF0500080F31188BFF36F8F92
:104F3000BFF34F8FFEE700BF4FF0500080F31188A2
:104F4000BFF36F8FBFF34F8FFEE700BF49444C455F
:104F50000000000040F22800C2F200004169013167
:104F60004161704780B540F2280EC2F2000EDEF8B3
:104F7000141019B10121CEF8301080BD0021CEF8F7
:104F80003010DEF8241040F6043C01EB8102C2F23E
:104F9000000C5CF82230002B0CEB82030CD058681C
:104FA000426803F1080082425A6023D0D068CEF8EC
:104FB0000000CEF8241080BD283B19B35A6901EBDC
:104FC0008100002A0CEB800226D101291AD0186832
:104FD00030BB022916D053F8140C28BB032911D07A
:104FE00053F8280C04390028A3F15003E5D02833E6
:104FF000D5E700BF52685A60D068CEF80000CEF8FE
:10500000241080BD4FF0500080F31188BFF36F8FE4
:10501000BFF34F8FFEE700BFA2F114030139BEE7D3
:10502000A2F128030239BAE7A2F13C030339B6E73B
:10503000B0B584B04EF2004CCEF2000C9CF80010DB
:105040000291FF218CF800109CF800108DF80710D9
:105050009DF8071001F0500240F22001C2F2000159
:105060000A7007224A609DF90720B2F1FF3F61DC18
:10507000032200BFD31C4B609DF8070040008DF851
:1050800007009DF90700B0F1FF3F24DC931C4B6043
:105090009DF8070040008DF807009DF90700B0F16A
:1050A000FF3F18DC531C4B609DF8070040008DF853
:1050B00007009DF90700B0F1FF3F0CDC4A609DF846
:1050C0000700043A40008DF807009DF90700B0F191
:1050D000FF3FCFDD131D032B2CD14FF440704860F0
:1050E00002988CF80000DCF8200940F47000CCF83D
:1050F0002009DCF8200940F07040CCF82009FFF7C7
:1051000071FC40F21C04C2F2000400252560FEF789
:10511000EBFEFFF727FF039520684FF0500181F366
:105120001188BFF36F8FBFF34F8F013012D000BFD4
:10513000FEE700BF4FF0500080F31188BFF36F8F80
:10514000BFF34F8FFEE700BF039830B9039820B933
:10515000039810B903980028F6D0002004B0B0BD21
:1051600070B582B060B1ABB1F1B9EAB14FF05000A7
:1051700080F31188BFF36F8FBFF34F8FFEE700BF3F
:105180004FF0500080F31188BFF36F8FBFF34F8F44
:10519000FEE700BF4FF0500080F31188BFF36F8F20
:1051A000BFF34F8FFEE700BF51B14AB94FF0500037
:1051B00080F31188BFF36F8FBFF34F8FFEE700BFFF
:1051C00050250195019D502D2ED1069E012483F876
:1051D0004640002908BF1A461A60C3E90F011C4661
:1051E000FFF758FB2068D4E90F12002502FB0103EA
:1051F000013901FB0201A563C4E90130FF20E16030
:1052000084F8440084F8450004F11000FFF7F2FA36
:1052100004F12400FFF7EEFAFFF760FB204684F864
:105220004C6002B070BD00BF4FF0500080F3118899
:10523000BFF36F8FBFF34F8FFEE700002DE9F04FF4
:1052400083B00292C0B11D460446F9B1022D02D1CD
:10525000E06B01285CD116460F4600F027FB18BB17
:1052600016B34FF0500080F31188BFF36F8FBFF378
:105270004F8F00BFFEE700BF4FF0500080F3118852
:10528000BFF36F8FBFF34F8FFEE700BF206C002886
:10529000DCD04FF0500080F31188BFF36F8FBFF365
:1052A0004F8F00BFFEE700BFFFF7F4FAA06B022D9F
:1052B00065D0E16B884262D30298002800F0188123
:1052C0006846FFF7D5FCFFF709FBFFF743FEFFF742
:1052D000E1FA94F84400FF2804BF002084F8440059
:1052E00094F84500FF2804BF002084F84500FFF72C
:1052F000F5FA684602A900F021FA98B12046FEF7B7
:10530000C9FF00F0F3FB002003B0BDE8F08F00BF41
:105310004FF0500080F31188BFF36F8FBFF34F8FB2
:10532000FEE700BF04F11008FFF7B4FAD4F8389094
:10533000E66BFFF7D3FAB14516D102994046FFF765
:10534000A9FC2046FEF7A6FF00F0D0FB88B94EF678
:105350000450CEF200004FF080510160BFF34F8F38
:10536000BFF36F8F05E000BF2046FEF793FF00F00C
:10537000BDFBFFF78FFAA06BE16B884266D2A66B8C
:10538000226CDAB139462DB3E068FAF7CBFEE1685A
:10539000206C2268091A9142E16003D261684042A0
:1053A0000844E060A81EB0FA80F040093146002EA3
:1053B00018BF01210840361A18E000BF2068A8B9BC
:1053C000606800F011FB0021B0FA80F061604009D4
:1053D0000DE000BFA068FAF7A5FED4E90101226C38
:1053E00011448142A16001D32068A0600120711C9A
:1053F000A16354F8241FA9B1204600F03DFB50B131
:105400004EF60450CEF200004FF080510160BFF321
:105410004F8FBFF36F8FFFF761FA012003B0BDE834
:10542000F08F00BF0028F6D14EF60450CEF20000F7
:105430004FF080510160BFF34F8FBFF36F8FFFF7C5
:105440004DFA012003B0BDE8F08F00BFE94602AE7F
:105450000CE000BF2046FEF71DFF00F047FBFFF702
:1054600019FAA06BE16B8842FFF489AF029800281B
:105470003ED0FFF733FAFFF76DFDFFF70BFA94F814
:105480004400FF2804BF002084F8440094F845003D
:10549000FF2804BF002084F84500FFF71FFA4846A4
:1054A000314600F04BF900287FF428AFFFF7F2F9FE
:1054B000D4F838A0D4F83CB0FFF710FADA45C9D1D7
:1054C00002994046FFF7E6FB2046FEF7E3FE00F0B8
:1054D0000DFB0028C3D14EF60450CEF200004FF071
:1054E00080510160BFF34F8FBFF36F8FB7E700BFED
:1054F000FFF7F4F9002003B0BDE8F08F2DE9F04F7D
:1055000083B0029290B115460446002948D00E4659
:1055100000F0CCF9A0B99DB14FF0500080F3118894
:10552000BFF36F8FBFF34F8FFEE700BF4FF0500008
:1055300080F31188BFF36F8FBFF34F8FFEE700BF7B
:10554000FFF7A8F9D4F838A0BAF1000F36D0226CD2
:1055500052B1E16863681144E1603046994224BF6A
:105560002168E160FAF7DEFDAAF10100A06354F8BA
:10557000100F70B1204600F07FFA50B14EF6045083
:10558000CEF200004FF080510160BFF34F8FBFF3A8
:105590006F8F0124FFF7A2F9204603B0BDE8F08F1A
:1055A000206C0028B3D04FF0500080F31188BFF377
:1055B0006F8FBFF34F8F00BFFEE700BF0298002838
:1055C00000F0B4806846FFF753FBFFF787F9FFF759
:1055D000C1FCFFF75FF994F8440004F12408FF28A8
:1055E00004BF002084F8440094F84500FF2804BF5D
:1055F000002084F84500FFF771F9684602A900F021
:105600009DF878B12046FEF745FE00F06FFAFFF7EF
:1056100041F9A56BFFF762F92DBB0024204603B0CA
:10562000BDE8F08FFFF736F9A56BFFF757F92DB1FD
:105630002046FEF72FFE00F059FA14E0029940468A
:10564000FFF728FB2046FEF725FE00F04FFA50B981
:105650004EF60450CEF200004FF080510160BFF3CF
:105660004F8FBFF36F8FFFF715F9D4F838A0BAF159
:10567000000F7FF46CAF4FF00009EB4602AF13E070
:105680002046FEF707FE00F031FAFFF703F9A56B9D
:10569000FFF724F9002DC0D0FFF7FCF8D4F838A0AC
:1056A000BAF1000F7FF453AF029800283ED0FFF705
:1056B00015F9FFF74FFCFFF7EDF894F84400FF28C9
:1056C00008BF84F8449094F84500FF2808BF84F888
:1056D0004590FFF703F95846394600F02FF80028A7
:1056E000CED1FFF7D7F8A56BFFF7F8F835B1204614
:1056F000FEF7D0FD00F0FAF9CEE700BF0299404670
:10570000FFF7C8FA2046FEF7C5FD00F0EFF90028C4
:10571000C2D14EF60450CEF200004FF0805101602D
:10572000BFF34F8FBFF36F8FB6E700BF0024FFF7C3
:10573000D5F8204603B0BDE8F08F0000B0B548B3FF
:105740000C4689B30546FFF7A5F840F2280CC2F2D3
:10575000000CDCF818302268501C2FD0AE46686868
:105760002D68DCF83810A94201D083422ED2181AD5
:10577000824229D9101A2060DCF838000024CEF8C3
:105780000000DCF81800CEF80400FFF7A7F8204668
:10579000B0BD00BF4FF0500080F31188BFF36F8F92
:1057A000BFF34F8FFEE700BF4FF0500080F311882A
:1057B000BFF36F8FBFF34F8FFEE700BF0024FFF7EB
:1057C0008DF82046B0BD00BF002020600124FFF707
:1057D00085F82046B0BD00002DE9F04184B00746B1
:1057E0009000984615460E46FEF78EFDF8B1044629
:1057F0005C20FEF789FDB8B1DDE90A2100230463CE
:1058000080F85930CDE900210446384631462A4611
:1058100043460294FEF7EEFA2046FEF761F90120B6
:1058200004B0BDE8F08100BF2046FFF76FF84FF0ED
:10583000FF3004B0BDE8F08170B586B00B9CBCB100
:105840000C9EFEB15C250495049D5C2D24D10A9D1F
:105850003463022486F8594005ACCDE90054029621
:10586000FEF7C8FA3046FEF73BF9059806B070BD62
:105870004FF0500080F31188BFF36F8FBFF34F8F4D
:10588000FEE700BF4FF0500080F31188BFF36F8F29
:10589000BFF34F8FFEE700BF4FF0500080F3118839
:1058A000BFF36F8FBFF34F8FFEE7000040F2280079
:1058B000C2F20000016900290FBF01204069B0FA5F
:1058C00080F0400918BF40007047000040F22800F7
:1058D000C2F200008069704780B5FFF79DF840F282
:1058E0002800C2F20000806980BD00002DE9F0436D
:1058F00081B040F22806C2F20006706920B1706BD8
:1059000000240130706367E0B06910F10109C6F846
:10591000189020D3F069006850B14FF0500080F328
:105920001188BFF36F8FBFF34F8F00BFFEE700BF3B
:10593000F069316AF1613062B06B0130B063F069D7
:10594000006828B1F069C068C068406802E000BF24
:105950004FF0FF30F062F06A40F604388145C2F241
:10596000000801D200242EE0F0690024006813E052
:10597000F86A716A884288BF706200EB800008EBA9
:1059800080002946FEF778FFF86A3168C96AF26933
:10599000884228BF0124106890B1F069C068C768C8
:1059A0003D4655F8040F81450CD32846FEF7F4FE1A
:1059B000B86A0028DCD007F11800FEF7EDFED7E743
:1059C0004FF0FF30F0623068C06A00EB800058F89A
:1059D0002000012888BF0124306B002818BF012453
:1059E000204601B0BDE8F08370B588B140F22805CB
:1059F000C2F20005296888420CD04FF0500080F3B5
:105A00001188BFF36F8FBFF34F8F00BFFEE700BF5A
:105A1000002070BD016D29B3013901654FF000010F
:105A20001DD1C26AC36C9A4219D0041D0646204695
:105A3000FEF7B2FEF06CC0F13801F062B161696A44
:105A4000884240F6043188BF686200EB8000C2F2F1
:105A5000000101EB80002146FEF70EFF0121084600
:105A600070BD00BF4FF0500080F31188BFF36F8FFF
:105A7000BFF34F8FFEE7000070B5C068C5686DB119
:105A800005F118042046FEF787FE40F22806C2F210
:105A90000006706960B106F164001AE04FF0500032
:105AA00080F31188BFF36F8FBFF34F8FFEE700BF06
:105AB0002C1D2046FEF770FEE86A716A884240F6A7
:105AC000043188BF706200EB8000C2F2000101EB7C
:105AD00080002146FEF7D0FEE86A3168C96A884234
