:020000040800F2
:10000000601F002001010008093800084135000880
:1000100005380008150B00088D3C000800000000A2
:10002000000000000000000000000000C1390008CE
:10003000190B00080000000011380008813B00087F
:100040001B0100081B0100081B0100081B01000820
:100050001B0100081B0100081B0100081B01000810
:100060001B0100081B0100081B0100081B01000800
:100070001B0100081B0100081B0100081B010008F0
:100080001B0100081B0100081B0100081B010008E0
:100090001B0100081B0100081B0100081B010008D0
:1000A0001B0100081B0100081B0100081B010008C0
:1000B0001B0100081B010008B53B00081B010008DC
:1000C0001B0100081B0100081B0100081B010008A0
:1000D0001B010008813C00081B0100081B010008EF
:1000E0001B0100081B0100081B010008DFF80CD0F1
:1000F00000F0B0FB00480047913C0008601F002062
:100100000648804706480047FEE7FEE7FEE7FEE7B1
:10011000FEE7FEE7FEE7FEE7FEE7FEE7B13B00088D
:10012000ED00000840EA01039B0703D009E008C97D
:10013000121F08C0042AFAD203E011F8013B00F8AC
:10014000013B521EF9D27047D2B201E000F8012BF8
:10015000491EFBD270470022F6E710B513460A4647
:1001600004461946FFF7F0FF204610BD30B505469E
:100170002A460B4612F8010B13F8014B08B1A042B6
:10018000F8D01CB1002802D06D1CF1E7284630BD24
:10019000421C10F8011B0029FBD1801A704770B572
:1001A000064606F0A7F8046805460A2200213046F4
:1001B00000F029F92C6070BDF0B480EA0102D40F80
:1001C0004200B2EB410F02D20246084611464A00F5
:1001D00042D0C30DDDB2C1F3C752AD1A202D35DABE
:1001E000C1F3160141F4000204B15242C5F12006E8
:1001F00002FA06F12A411044B3EBD05F23D0C4B118
:10020000012DA0EBC35009DCF0BC4FF0004202EA24
:10021000C352DBB200F5000000F036B9400000F137
:10022000807000EBC350A0F1807040EAD1704900AB
:1002300009E0490841EAC071A0EBC35000F5000095
:10024000400800EBC350F0BC00F015B96142012238
:1002500002EB4101001BF6E7F0BC704781F0004162
:10026000AAE780F00040A7E780EA010210B502F09B
:100270000043400022D04A001FD0010E01EB126162
:10028000C0F35600C2F3560240F4000042F40002EC
:10029000A0FB022000047F39140400D0401C50EA67
:1002A000124001D44000491EC2B20C0604EBD0102B
:1002B000401C4008802A02D003E0002010BD20F03E
:1002C0000100002900DA0020184310BD30B480EA94
:1002D000010202F0004530F0004221F0004013D04E
:1002E00090B1C30DD40DC2F31601C0F31600E41A89
:1002F00041F4000140F400027D34914201D3641CBA
:1003000000E04900002C02DA30BC002070474FF4B6
:1003100000000023914201D3891A034340084FEAA9
:100320004101F7D151B1914202D14FF0004105E0B6
:1003300002D24FF0010101E06FF0010103EBC45064
:10034000284430BC00F097B896230022114600F0F4
:100350009BB800F0004230F000400AD0C10D01F51A
:100360006071C0F3160042EA0151C2084007114310
:10037000704700200146704730B50B46014600200B
:100380002022012409E021FA02F59D4205D303FA57
:1003900002F5491B04FA02F52844151EA2F10102D8
:1003A000F1DC30BD2DE9F05F0546002092469B460A
:1003B00088460646814640241BE02846414647467B
:1003C000224600F06EFA53465A46C01A914110D3A5
:1003D00011461846224600F055FA2D1A67EB01081F
:1003E0004F4622460120002100F04CFA17EB00098D
:1003F0004E41201EA4F10104DFDC484631462A4666
:100400004346BDE8F09F2DE9F04791460F468046F0
:100410000446002614F8015B2DB100F065FA00686F
:10042000405DC007F6D12B2D02D02D2D18D0641EB3
:100430004A463946204600F05BFA27B13968A142A6
:1004400001D1C7F8008071054FF002040BD540427E
:10045000002803DD05F04EFF0460A007BDE8F0872B
:1004600046F48066E4E70028F8DA05F043FF04600C
:100470006FF00040F2E70029A8BF7047401C490018
:1004800008BF20F00100704710B4B0FA80FC00FAF9
:100490000CF050EA010404BF10BC704749B1CCF124
:1004A000200421FA04F411FA0CF118BF01212143B0
:1004B0000843A3EB0C01CB1D4FEA00614FEA10206B
:1004C00042BF002010BC704700EBC350104400290D
:1004D000A4BF10BC7047401C490008BF20F00100B9
:1004E00010BC70472DE9FE4F804681EA0300C00F23
:1004F0000C46009021F0004123F00045B8EB0200CB
:10050000A94105D24046214690461C460B4602466C
:1005100023F00040104347D0270DC7F30A00C3F370
:100520000A510290401A019040286BDAC3F313007D
:1005300040F4801B0098924620B10023D2EB030ABE
:1005400063EB0B0B01985946C0F14002504600F096
:1005500099F906460D4650465946019A00F0B1F900
:1005600010EB08006141002487EA115284EAE77326
:100570001A4340D0009A62B3019A012A4FEA075207
:1005800015DC001B61EB02014FF0004202EA07524A
:10059000CDE90042001C41F5801132462B4600F0A7
:1005A00005FA03B0BDE8F08F40462146F9E7001B8D
:1005B00061EB0201001C41F5801300185B4120181B
:1005C000A2F5001747EB030140EAD570B6196D415B
:1005D00011E06D084FEA360645EAC0754FEA07524A
:1005E000001B61EB0201001C41F5801149084FEA34
:1005F00030000019514132462B4603B0BDE8F04FA0
:1006000000F0C5B90098012240000023D0EB02029F
:1006100063EBE073009821464FEAE074B8EB00000A
:1006200061EB0401E9E783F000435BE781F00041FF
:1006300058E72DE9FE4F81EA030404F0004421F05D
:10064000004100944FF0000B23F0004350EA0104F6
:100650005ED052EA03045BD0C3F30A54C1F30A55D7
:100660002C44A4F2F3340194A0FB0254C1F313010F
:1006700041F48011C3F3130343F4801301FB0244DC
:1006800000FB034E840A970A44EA815447EA8357E1
:10069000A4FB076802958D0A05FB07854FEA932C9A
:1006A00004FB0C542705029D4FEA065847EA16370B
:1006B000B5EB08056EEB070C870E920E47EA811723
:1006C00042EA8312A7FB0201B6EB0B0164EB0004C4
:1006D0002B0D43EA0C335E1844EB1C50DA465146AE
:1006E000E7FB0201C5F313044FEA0B3343EA14534B
:1006F0004FEA0432019C43EA0603A4F10C0402947D
:10070000009CCDE900B400F051F903B0BDE8F08FD2
:1007100000200146F9E72DE9F04D81EA030404F0D9
:10072000004B21F0004514464FF0000A23F0004131
:1007300050EA050220D054EA01021DD0C5F30A5741
:100740000246C5F31303C1F31300C1F30A5640F484
:10075000801543F48013A7EB0608101BD64608F259
:10076000FD3873EB050002D308F1010801E092188F
:100770005B41B8F1000F03DA00200146BDE8F08DBF
:1007800000204FF48011064684460EE0171B73EBE1
:10079000050705D3121B63EB050306434CEA010C66
:1007A00049084FEA300092185B4150EA0107EDD149
:1007B00052EA030012D082EA040083EA05010843EA
:1007C00005D0101BAB4106D20122002306E0002217
:1007D0004FF0004302E06FF0010253101AEB0600E5
:1007E0004CEB085110EB0A0041EB0B01BDE8F04D5A
:1007F00000F0CDB8C1F30A52C1F3130140F2FF3348
:1008000041F480119A4202DA00200146704740F21A
:1008100033439A42A2F2334202DC524200F041B822
:1008200000F030B830B5041E71F1000404DB4FF065
:100830000044404264EB0101141E73F1000405DB27
:100840001C464FF00043524263EB0403994208BF39
:10085000904230BD1CB509480090094801900546FA
:10086000009C06E0E06840F0010394E80700984728
:100870001034AC42F6D3FFF73DFC0000C46D000815
:10088000E46D0008202A04DB203A00FA02F100207F
:1008900070479140C2F1200320FA03F319439040BE
:1008A0007047202A04DB203A21FA02F00021704729
:1008B00021FA02F3D040C2F12002914008431946C8
:1008C0007047202A06DBCB17203A41FA02F043EAB0
:1008D000E07306E041FA02F3D040C2F120029140F9
:1008E000084319467047000000487047706C0008C4
:1008F0002DE9F05F82460078002715468B460AF105
:100900000104B946302801D09DB113E014F8010B61
:100910000127782803D0582801D045B10AE00DB14D
:10092000102D07D10027102514F8010B02E008252F
:1009300000E00A250026B0460EE005FB080005FB96
:1009400006F1012701EB10461FFA80F8B6F5803F4B
:1009500000D3B94614F8010B294600F075F80028B9
:10096000EBDABBF1000F05D00FB1641E00E0544676
:10097000CBF80040B9F1000F06D005F0BBFC022116
:100980000160C81EBDE8F09F48EA0640FAE710B5CE
:10099000141E73F1000408DA401C41F100019218A2
:1009A0005B411A4301D120F0010010BD2DE9F04D4B
:1009B00092469B4611B1B1FA81F202E0B0FA80F2A0
:1009C00020329046FFF75EFF04460F4640EA0A00D9
:1009D00041EA0B0153465A46084313D0114653EAE5
:1009E000010019D0C8F140025046FFF75AFF0546F2
:1009F0000E46504659464246FFF744FF084305D08D
:100A0000012004E020463946BDE8F08D0020054372
:100A100046EAE0762C4337430A986305E40AA0EBE4
:100A200008000022FD0A44EA47540A3002D500209B
:100A30000146E9E7010510196941DDE9084500199A
:100A40006941BDE8F04DA2E73A2800D2303820F0E5
:100A50002002412A01D3A2F13700884201D34FF08E
:100A6000FF307047B0B582B0044600200190216885
:100A70008A68D2074BD1886840F00100886040F254
:100A80001C00C2F2000000684DF68361C4F21B3105
:100A9000A0FB0101880C01900198A0B101980138D8
:100AA0000190019878B1019801380190019850B1F6
:100AB000019801380190019828B1019801380190FE
:100AC00001980028EAD100F03DFD21688968C90736
:100AD0001CD1054603E000BF8068C00716D100F0B6
:100AE00031FD411B20680329F6D38168C907F3D182
:100AF000A06A40F01000A062E06A40F00100E062ED
:100B0000002084F82400012002B0B0BD002002B013
:100B1000B0BD0000FEE700007047000083B010B5D4
:100B200081B040F6B004844603A8C2F200040EC0AF
:100B300003AB204680216246009305F0C1FB2046AE
:100B4000FFF726FB40F25811C2F20001303182B2A9
:100B500008462146642302F025FC01B0BDE81040A0
:100B600003B0704770B581B00022009290F8242045
:100B7000012A03D10221084601B070BD4A68012351
:100B8000062A02EB820E80F8243007D8D0F800C085
:100B90006FF004030CF134060CE000BFD0F800C085
:100BA0000C2A87BF0CF12C066FF040030CF13006C5
:100BB0006FF022030EEB03021F23346803FA02F5E1
:100BC0000B6824EA050503FA02F22A433260092B76
:100BD00003EB43021AD9DCF80C601E3A072589683A
:100BE0009540AE43914023F001023143102ACCF8E6
:100BF0000C1015D142F20041C4F201018C4517D00E
:100C0000816A41F02001816201210AE0DCF81030A4
:100C1000072689689640B34391401943CCF81010D9
:100C20000021002280F82420084601B070BD00BFDA
:100C300089680902F4D4DCF80810102B41F4000193
:100C4000CCF80810ECD140F21C01C2F20001096896
:100C50004DF68362C4F21B32A1FB0212910C01EB30
:100C600081014900009100990029D9D000990139EA
:100C7000009100990029D3D0009901390091009981
:100C80000029CDD000990139009100990029C7D0E1
:100C9000009901390091009900294FF00001E5D138
:100CA000BFE700000068C06C70470000002804BF68
:100CB00001207047B0B50446806A28B12168886871
:100CC000C0070CD115E000BF0020E06284F82400CA
:100CD000204600F097F821688868C00709D0886826
:100CE00020F00100886000F02DFC21688A68D2079E
:100CF00026D1A06AC0063AD4A06A41F202129043FB
:100D00000230A062E069D4E9013240EA030C531ECC
:100D1000B3FA83F35D091346B2F5807F18BF2B0247
:100D2000207D257B01284CEA45002CD135B3A56AEE
:100D300045F02005A562E56A45F00105E56222E07F
:100D4000054602E08868C007D3D000F0FBFB401BDB
:100D500021680328F6D38868C007F3D0A06A40F062
:100D60001000A062E06A40F00100E062A06AA06AA0
:100D700040F01000A0620120B0BD00BFA56903EBE8
:100D80004533A3F5C0534D68B2F5807F25F469451E
:100D900043EA05034B608B684FF2FD75CFF6E175B2
:100DA00003EA050343EA00038B6001D0012A07D15F
:100DB00022690023CFF6F07303EB025201E000BF7B
:100DC0000022CB6A23F470031A43CA62896840F692
:100DD000FE62CFF61F721140814207D10020E0620F
:100DE000A16A012262F30101A162B0BDA06A40F0D4
:100DF000100020F00200A062E06A40F00100E06212
:100E00000120B0BD80B586B0014640F60040C4F276
:100E10000100096800F5C05291424FF00001CDE990
:100E20000411CDE9021101D006B080BD41F21801D4
:100E3000C4F202010A6842F400720A600A6802F40D
:100E400000720192019A0A6842F008020A60096879
:100E500001F00801019101990221029103210391FE
:100E600002A900F05FFA06B080BD00002DE9F04154
:100E700082B000270D460446019700F063FB21680D
:100E80008A68D20544D406464868C00503D4C86AB7
:100E900010F4700F46D040F21C00C2F20000076848
:100EA00042F292480220C1F2492801F089FA2168F1
:100EB00044F624130A69B7FBF0F0C2F292431A42D7
:100EC00006D1CA6844F62413C0F292031A425BD0DA
:100ED0000A6912EA080F07D1CA6842F29243C0F2C7
:100EE00049031A4200F0C0800A6949F24923C0F25E
:100EF00024031A424FF0FC0254D1CF681F4208BFAE
:100F00005422019B02FB00F7BB4250D3C3E000BF59
:100F1000A06A40F02000A06284F82470012002B092
:100F2000BDE8F0810868800700F1B580681C00F01A
:100F3000A880FDB90868800770D50868800700F1AF
:100F4000AA800868800769D50868800700F1A38037
:100F50000868800762D50868800700F19C800868EF
:100F600080075BD508688007E4D594E008688007AF
:100F700000F1918000F0E6FA801B2168A842F5D9C3
:100F800008688007F2D449E00A6912EA080F4FF0B6
:100F9000290207D1CB6842F29247C0F249073B428F
:100FA00008BF1422019B02FB00F7BB4273D2681CEE
:100FB00052D05DBB0198B84230D301980130019006
:100FC0000198B84267D20198B84227D301980130FE
:100FD00001900198B8425ED20198B8421ED30198A0
:100FE000013001900198B84255D20198B84215D30A
:100FF0000198013001900198B842DBD34BE000BF6B
:101000000198013001900198B84235D200F09AFA67
:10101000801BA842F4D90198B842F1D2A06A40F0EE
:101020000400A062002084F82400032002B0BDE880
:10103000F08100BF0198013001900198B8422AD296
:101040000198013001900198B84224D201980130F2
:1010500001900198B8421ED2019801300190019888
:10106000B842E7D317E000BF5422019B02FB00F710
:10107000BB429CD30FE000BF21680CE008688007EA
:1010800009D40868800706D4086880075CBF086830
:101090005FEA8070F2D56FF012000860A06A40F439
:1010A0000070A062886800F46020B0F5602F01D164
:1010B000207B18B1002002B0BDE8F081A06A20F4C6
:1010C0008070A062A06AC004F4D4A06A40F001005D
:1010D000A062002002B0BDE8F081000010B5044617
:1010E00090F82400012804BF022010BD012084F8DC
:1010F00024002046FFF7B6FC20B1002084F824002D
:10110000012010BD42F2044C2068A16AC4F2010C17
:1011100040F2013291430CF57F7201F580719042EB
:10112000A16229D0A16A21F48011A1624168490518
:1011300004D5A16A012363F30D31A162A16A0023E2
:10114000C9044FF0000144BFE16A21F00601E162E9
:101150006FF0020184F824300160816801F460219D
:10116000B1F5602F1BD1904214D0816841F4A001E9
:101170008160002010BD00BFDCF8001011F4702F5A
:10118000D0D0A16A41F48011A162DCF800104905B9
:10119000CFD4D3E7DCF8001011F4702FE5D08168CC
:1011A00041F480118160002010BD0000B0B50446FC
:1011B00090F82400012804BF0220B0BD012120685E
:1011C00084F824108168C90709D0816821F00101E1
:1011D000816000F0B7F921688968C9070ED12146FE
:1011E00051F8280F41F2011220EA0202002042F0D9
:1011F00001020A60002184F82410B0BD054602E017
:101200008068C007EBD000F09DF9411B20680329DE
:10121000F6D38168C907F3D0A06A214640F01000D8
:10122000A06251F82C2F0120E1E70000014690F860
:101230002100022816D10868D1E90FC3026822F004
:101240000E020260026822F001020260012000FA30
:1012500003F2CCF8042081F821000020002281F85C
:1012600020207047042088630120002281F820207C
:101270007047000090F82110022923D1026840F243
:10128000040C1168C4F2020C21F00E011160136805
:101290002F21C4F202018A4223F00103136015DDFD
:1012A0003023C4F202039A421CD04423C4F2020346
:1012B0009A421BD05823C4F202039A421CD14FF425
:1012C000803321E004218163012070470823C4F2A8
:1012D00002039A420ED01C23C4F202039A420BD19D
:1012E000102311E04FF480730EE000BF4FF48053E1
:1012F0000AE000BF012307E00CF168014FF08073A2
:101300008A4208BF4FF48013CCF80030416B4FF491
:1013100080720029028404BF0020704780B588478E
:10132000002080BD2DE9F04F82B00E68002E00F045
:10133000FF8040F20C4C40F2004E41F20042C4F2F9
:10134000010CC4F2010EC4F201020427002401239F
:101350004FF0000A4FF00009904208BF03270097A2
:1013600049E000BF41F20002C4F20102009F904236
:1013700008BF022704F00C030F229A402BEA020256
:1013800007FA03F34FEA9A051A4346F825204E68F8
:10139000F203DEF8002054BF22EA080242EA080203
:1013A000CEF80020DEF80420B30354BF22EA08027E
:1013B00042EA0802CEF80420F302DEF8082054BF07
:1013C00022EA080242EA0802B302CEF80820DCF85A
:1013D00000204FF0010354BF22EA080242EA08024B
:1013E000CCF800200E680AF1010A36FA0AF204F17C
:1013F000040400F09D8003FA0AFB16EA0B08F1D002
:101400004E684FF6FF72C1F21002964212DC122EA5
:1014100056D8DFE806F0350B4D495555555555550D
:101420005555555555555545510000BFD1F80C90AF
:1014300046E000BF4FF6FF72C1F2210296420FDC78
:101440000022C1F2110296421AD00022C1F2120209
:10145000964215D00022C1F22102964210D02FE010
:101460000022C1F2220296420AD00022C1F23102C9
:10147000964205D00022C1F23202964220D100BF2E
:101480008A684AB1012A14BFC0F814B0C0F810B07D
:101490004FF0080914E000BF4FF0040910E000BF4E
:1014A000CA6802F104090BE04FF0000908E000BF30
:1014B000CA6802F1080903E0CA6802F10C0900BF1A
:1014C00002462646B8F5807F24BF0432203E1768C6
:1014D0000F25B54027EA050509FA06F635431560DC
:1014E000CA79D2067FF57EAF41F21803C4F2020337
:1014F0001A68AEF57E7642F001021A601A6802F0B0
:1015000001020192019A2AF0030256F802B040F655
:101510000002C4F20102904208D040F60042C4F238
:10152000010290427FF41EAF012723E7002721E745
:1015300002B0BDE8F08F0000002A08BF0904016175
:101540007047000041F61C30C2F20000006870478E
:10155000002804BF01207047F0B581B0044690F820
:101560003D0028B9002084F83C00204600F01AFE17
:10157000242084F83D002068016821F00101016009
:10158000016841F400410160016821F400410160FB
:1015900001F014F9636848F2A16CC0F2010C40F646
:1015A0000011C0F23D0163453CBF48F28041C0F2EA
:1015B0001E01884202D2012001B0F0BD4DF68361C8
:1015C000C4F21B31A0FB01122168970CD1F804E092
:1015D0004FF496762EF03F0545EA92454D607743ED
:1015E00048F638160D6AC0F24106A7FB067625F0CC
:1015F0003F07634538BF960C721C3A430A62CA69BA
:1016000048F2A0664CF6FF77C0F20106B34222EA28
:1016100007020BD801385B00B0FBF3F001306FF329
:101620001F30042898BF04201BE000BFA7680138C2
:1016300057B119277B43B0FBF3F001306FF31F3034
:1016400070B100F5804007E003EB4303B0FBF3F01B
:1016500001306FF31F3018B100F5004001E000BF0A
:1016600001201043C8610868D4E9072320F0C000B6
:10167000104318430860886848F2FF3204F10C07F1
:1016800090438CCF18431043A6698860C86820F047
:10169000FF0038433043C860086840F0010008602C
:1016A00000202021206484F83D10206384F83E004F
:1016B00001B0F0BD2DE9F04782B0044600201F467E
:1016C000164688460090FFF73DFF94F83D1020290C
:1016D0001ED1054620688169890715D5FFF732FFBD
:1016E000401B1928F6D900202021206384F83D10E2
:1016F00084F83E00216C41F02001216484F83C0014
:10170000022002B0BDE8F08794F83C10012903D113
:10171000022002B0BDE8F087012184F83C10016886
:10172000C90703D1016841F001010160016821F49A
:1017300000610160222184F83D10102184F83E10E0
:101740000021216466626785618D21850021CFF6C5
:10175000FF71E162E16A026811F5803F42F4806244
:10176000026018BF012919D1016841F4807101603C
:1017700041690A9EC90724D1711C18D0002E00F0BF
:10178000C58000BFFFF7DEFE401BB04200F2C08004
:1017900020684169C907F5D013E000BF0829E3D0EC
:1017A000216B1129E0D0E3E74169C90709D14169FB
:1017B000C90706D14169C90704BF41695FEAC17120
:1017C000F2D02169B1F5804F08D148F00101C9B2CA
:1017D00001614169890740F1C68001E1062101EA02
:1017E000D81707F1F00101614169090732D4416955
:1017F000721C14D0490500F1E980002E00F06682C9
:10180000FFF7A0FE401BB04200F2628220684169EF
:1018100009071FD441694905F2D5D7E04169490557
:1018200000F1D4804169090714D44169490500F1E8
:10183000CD80416909070DD44169490500F1C68091
:101840004169090706D44169490500F1BF80416932
:101850000907E3D55FFA88F101614169890739D445
:101860004169721C4FEA415114D0002900F1AE8049
:10187000002E00F02B82FFF765FE401BB04200F205
:10188000278220684169890724D441694905F2D536
:101890009CE000BF002900F199804169890719D4B3
:1018A0004169490500F192804169890712D4416973
:1018B000490500F18B80416989070BD441694905CD
:1018C00000F184804169890704D441694905E4D560
:1018D0007CE000BF00210191416901918169019182
:1018E0000199016841F4807101604169C90734D1EF
:1018F000711C28D056B1FFF725FE401BB04207D817
:1019000020684169C907F6D027E000BFFFF71AFE3B
:1019100000202021206384F83D1084F83E00216CD3
:1019200041F020012164216884F83C000868C0056A
:1019300044BF4FF400702064012002B0BDE8F0877E
:101940004169C90709D14169C90706D14169C90778
:1019500004BF41695FEAC171F2D047F0F101016152
:10196000416989073CD44169721C4FEA415113D047
:1019700000292BD4002E00F0A981FFF7E3FD401BC6
:10198000B04200F2A58120684169890728D44169E5
:101990004905F2D51AE000BF002917D4416989072B
:1019A0001ED44169490511D44169890718D4416998
:1019B00049050BD44169890712D44169490505D409
:1019C000416989070CD441694905E7D5016841F4AB
:1019D000007101606FF480614161042079E100BF12
:1019E000218D022926D001290ED0002938D10021CD
:1019F000019141690191816901910199016841F465
:101A00000071016037E000BF016821F4806101606E
:101A1000EFF3108072B600200190206841690191B7
:101A2000816901910199016841F40071016062B618
:101A300021E000BF016841F400610160EFF3108014
:101A400072B600200190206841690191816901917D
:101A50000199016821F48061016062B60BE000BF6A
:101A6000016841F4806101600021019141690191A7
:101A7000806901900198208D002800F01B8140F2C0
:101A80001C084BF28959771CC2F20008C1F2F849D0
:101A90004FF0230A80B2032818D8022840D001282A
:101AA00068D1002E00F0D2802068014651F8142F32
:101AB000520600F1CF800868C00600F13F81FFF7B1
:101AC00041FD401BB042EFD92DE100BF86B100BF00
:101AD0002068014651F8142F52060ED40868C0063B
:101AE00000F12C81FFF72EFD401BB042F0D91AE126
:101AF00020684169490640F10F810069616A0870F8
:101B0000606A2268411C208D616201382085638DE6
:101B1000013B638553695B0740F1A88010699BE036
:101B20002068416949070FD4002F00F0A380002EE0
:101B300000F01881FFF706FD401BB04200F214814F
:101B4000206840694007F5D5EFF3108072B6206831
:101B5000616A026842F40072026000690870606A9B
:101B6000218D01306062481E2085608D01386085BE
:101B700062B667E02068416949070FD4002F00F082
:101B80008980002E00F0EE80FFF7DCFC401BB042A5
:101B900000F2EA80206841694907F5D5016821F41F
:101BA00080610160EFF3108072B62068616A00699D
:101BB0000870606A218D0130013960622185618D74
:101BC00001396185D8F80010C908A1FB0912110A72
:101BD00001FB0AF100910099013900910099002957
:101BE00000F0888021684A6952071BD4009A013AA4
:101BF0000092009A002A00F07D804A69520711D4B1
:101C0000009A013A0092009A002A73D04A6952075A
:101C100008D4009A013A0092009A002A6AD04A69D0
:101C20005207D8D50A6842F400720A600969017047
:101C3000606A218D01306062481E2085608D013808
:101C4000608562B62068616A006905E020684169C4
:101C5000490661D50069616A0870606A218D0130AA
:101C60006062481E2085618D0139618501047FF421
:101C700011AF1FE0416949073FF566AF4169490768
:101C80005CBF41695FEA41713FF55EAF4169490759
:101C9000F0D559E7416949073FF580AF41694907E8
:101CA0005CBF41695FEA41713FF578AF416949071F
:101CB000F0D573E7202084F83D00002084F83E0032
:101CC00084F83C0002B0BDE8F08700BFFFF73AFCA3
:101CD000202000212022216384F83D2084F83E103A
:101CE000226C1043206484F83C10012002B0BDE84F
:101CF000F08700BF00202021206384F83D1084F885
:101D00003E00216C41F02001216462B684F83C0061
:101D1000012002B0BDE8F08750F8141FC906014643
:101D20000CD4FFF70FFC00202021206384F83D1025
:101D300084F83E00206C40F020000AE06FF01000B4
:101D4000086000202021206384F83D1084F83E00C4
:101D5000206C2064002084F83C00012002B0BDE823
:101D6000F08700BFFFF7EEFB00202021206384F8FE
:101D70003D1084F83E00216C41F02001216484F87C
:101D80003C00012002B0BDE8F08700002DE9F043DF
:101D900081B01F46164688460446FFF7D3FB94F8E9
:101DA0003D1020291ED1054621688869800715D578
:101DB000FFF7C8FB401B1928F6D90020202120631B
:101DC00084F83D1084F83E00216C41F0200121642C
:101DD00084F83C00022001B0BDE8F08394F83C0098
:101DE000012803D1022001B0BDE8F083012084F86E
:101DF0003C000868C00703D1086840F00100086093
:101E0000086820F400600860212084F83D0010205C
:101E100084F83E000020206466626785608D20851E
:101E20000020CFF6FF70E062E06A10F5803F18BF37
:101E3000012819D1086840F4807008604869DDF80D
:101E40002090C00723D119F1010016D0B9F1000F7D
:101E500000F07E80FFF776FB401B48457AD821686A
:101E60004869C007F6D012E00828E3D0206B12289A
:101E7000E0D0E3E74869C00709D14869C00706D147
:101E80004869C00704BF48695FEAC070F2D02069A2
:101E9000B0F5804F02D1FE2039E000BF062000EAF5
:101EA000D810F0300861486900072FD4486919F14B
:101EB000010214D040057DD4B9F1000F00F0368145
:101EC000FFF740FB401B484500F23281216848691A
:101ED00000071BD448694005F2D56BE0486940050E
:101EE00068D44869000711D44869400562D448693C
:101EF00000070BD4486940055CD44869000705D445
:101F00004869400556D448690007E7D5FF2000EA34
:101F1000080008614869800756D4486919F1010230
:101F20004FEA40502CD0002844D4B9F1000F00F003
:101F3000FD80FFF707FB401B484500F2F980216850
:101F40004869800740D448694005F2D532E000BFB7
:101F5000FFF7F8FA00202021206384F83D1084F870
:101F60003E00216C41F020012164216884F83C008E
:101F70000868C00544BF4FF4007020640EE100BF44
:101F8000002817D4486980071ED44869400511D439
:101F90004869800718D4486940050BD44869800710
:101FA00012D44869400505D4486980070CD44869B3
:101FB0004005E7D5086840F4007008606FF4806061
:101FC00048610420B5E000BF002000904A690092FB
:101FD0008A690092009A228D002A00F0998009F106
:101FE00001080A4652F8143F1B0637D4B8F1000F17
:101FF00018D0B9F1000F00F0AD8000BF10684005A7
:1020000000F1B080FFF79EFA401B484500F2A78020
:1020100021680A4652F8140F00064FF00000EDD573
:102020001CE000BF13685B0500F19C8013681B0671
:1020300014D413685B0500F1958013681B060DD45A
:1020400013685B0500F18E8013681B0606D41368C5
:102050005B0500F1878013681B06E3D5676A3A4683
:1020600012F8013B0B616262628D013A6285268D36
:102070000A46A6F1010CA4F828C052F8143F5B07E9
:102080000DD55FEA0C430AD07B78A6F1020C0B61F8
:10209000BB1C6362638D013B6385A4F828C0136891
:1020A0005B0731D4B8F1000F16D0B9F1000F51D051
:1020B0001068400556D4FFF745FA401B48454ED8F6
:1020C00021680A4652F8140F40074FF00000EFD580
:1020D000B4F828C018E000BF13685B0542D4136849
:1020E0005B0711D413685B053CD413685B070BD402
:1020F00013685B0536D413685B0705D413685B056A
:1021000030D413685B07E7D55FEA0C427FF469AF10
:102110000A6842F400720A60202184F83D1084F8B5
:102120003E0084F83C0001B0BDE8F083FFF70AFAF6
:10213000202000212022216384F83D2084F83E10D5
:10214000226C1043206484F83C10012001B0BDE8EB
:10215000F08300BF1068400504D4FFF7F3F9202096
:1021600004E000BF6FF48060106004200021202292
:10217000216384F83D2084F83E10226C10432064D3
:1021800084F83C10206C042808D12068016841F4D0
:1021900000710160012001B0BDE8F083012001B0B1
:1021A000BDE8F08310B586B0016845F20040C4F286
:1021B000000081424FF00001CDE90411CDE9021188
:1021C00002D006B010BD00BF41F21804C4F20204F0
:1021D000216800F5384041F008012160216801F0D4
:1021E000080101910199C02102911221039103215B
:1021F000059102A9FFF796F8606840F4001060604E
:10220000606800F400100190019806B010BD000055
:1022100040F2140041F61C31C2F20000C2F200018B
:1022200000780A68104408607047000080B542F2E8
:102230000000C4F20200016841F0100101600320B7
:1022400000F0AEF8002000F005F800F049F800209A
:1022500080BD000010B586B001461E20002200247B
:1022600000F072F81E2000F05DF841F21C00C4F28C
:102270000200016841F0040101600068694600F055
:1022800004000190019801A800F076FA00F096FA97
:102290004DF683614000C4F21B31A0FB01014FF0F9
:1022A000FF3000EB914140F6841040F60002C2F28C
:1022B0000000C4F2000240F2E733C0E90021C0E9A7
:1022C0000243046100F0A6FC10B1012006B010BD6D
:1022D00040F68410C2F2000000F014FD06B010BDFC
:1022E00082B041F21800C4F202000168022241F0FB
:1022F00001010160016801F001010191019941684A
:1023000041F080514160406800F08050009000989A
:102310000420C4F20100016862F31A61016002B096
:1023200070470000002848BF704700F01F010122DD
:1023300002FA01F11C2202EAD0004EF20012CEF2A3
:10234000000281507047000010B54EF60C5CCEF2D2
:10235000000CDCF80030C3F3022E8EF00704042CCE
:1023600028BF0424BEF103034FF0FF3E0EFA04F42D
:1023700038BF0023A14399400EFA03F39A43114357
:1023800000F00F0200F160430901043A03F56443D1
:102390006244002848BF02F10C03197010BD000010
:1023A0004EF60C51CEF200010A684FF6FF031A40B8
:1023B00060F30A2242F0806040F0FD7008607047D0
:1023C000012821D002280DD0102808D141F20401A3
:1023D000C4F202010A6851F8040CC00134D4002090
:1023E000704700BF80B500F0FDF941F20401C4F26E
:1023F000020109680222C1F3813102EB4101B0FB05
:10240000F1F0BDE88040704741F20400C4F20200E0
:10241000C16940F202320A40B2F5817F04BF4FF435
:102420000040704701F44071B1F5407F18D0B1F51C
:10243000007F1CBF00207047006A49F640418007BA
:1024400001EAE070704700BFC2F3834015A3185C37
:10245000D2030DD440F60012C0F23D02504313E007
:1024600050F8040C4FF22441800301EAE0707047F9
:102470000A6810A3C2F340429A5C41F20023C0F202
:102480007A03B3FBF2F250430968490248BF704730
:102490004AF6AB214000CAF6AA21A0FB0101480878
:1024A000704700BF02030405060708090A0B0C0D5C
:1024B0000E0F1010010200002DE9F04182B0044619
:1024C000007841F21C06C007C4F202064AD0306808
:1024D0005FEAC00808D4306840F08050306030684F
:1024E00000F080500190019847F20007C4F2000705
:1024F0003868C00512D4386840F480703860FFF73F
:1025000021F805463868C00508D4FFF71BF8401BC2
:102510006428F7D9032002B0BDE8F081706810F498
:10252000407012D0616801F4407188420DD070682B
:1025300040F24042C4F24222012320F44071136071
:102540000023C0071360716026D17068616820F4B1
:1025500040700843B8F1000F706003D4306820F079
:10256000805030602068810707D556F8181CA26893
:1025700021F44041114346F8181CC00607D556F80F
:10258000180CE16820F48000084346F8180C00207D
:1025900002B0BDE8F08100BFFEF7D4FF054641F26E
:1025A000883700BF70688007CFD4FEF7CBFF401B91
:1025B000B8424FF00300F5D9EAE70000002804BF55
:1025C000012070472DE9F04381B042F20008C4F2C7
:1025D00002080446D8F800000D4600F007008142CA
:1025E0000CD9D8F8000020F007002843C8F80000F4
:1025F000D8F8000000F00700A8426CD1206841F232
:1026000004098107C4F2020917D5410705D5D9F895
:10261000001041F4E061C9F80010010705D5D9F8B0
:10262000001041F46051C9F80010D9F80010A268F8
:1026300021F0F0011143C9F80010C00742D1D8F8C9
:10264000000000F0070085420CD2D8F8000020F00E
:1026500007002843C8F80000D8F8000000F0070081
:10266000A84238D12068410707D5D9F80010E268A0
:1026700021F4E0611143C9F80010000708D5D9F82A
:102680000000216920F4605040EAC100C9F8000050
:10269000D9F8002002F00C00082841F20020C0F216
:1026A0007A004DD146F63853C2F38341C0F6000399
:1026B000595CD20338D440F60010C0F23D004843C4
:1026C0003EE000BF606859F8041C022808D00128C9
:1026D00026D1890306D4012001B0BDE8F08300BFF4
:1026E0008901F8D5D9F8001021F003010843C9F891
:1026F0000000FEF727FF064641F28837D9F80000B0
:10270000616800F00C00B0EB810F98D0FEF71AFF63
:10271000801BB842F2D9032001B0BDE8F08300BFAE
:102720008907D8D5DEE700BFD9F8002046F6744304
:10273000C2F34042C0F600039A5C4843B0FBF2F09B
:10274000D9F8001046F67642C1F30311C0F6000234
:10275000515C40F21C0220FA01F140F21800C2F272
:1027600000000068C2F200021160FFF773FD002054
:1027700001B0BDE8F08300000F22026041F20402C4
:10278000C4F20202136803F003034360136803F00A
:10279000F0038360136803F4E063C36012684FF4CE
:1027A000E06303EAD202026142F20000C4F20200D6
:1027B000006800F0070008607047000040F21C004D
:1027C00041F20401C2F20000C4F20201006809688B
:1027D00046F68642C1F30221C0F60002515CC840B1
:1027E0007047000040F21C0041F20401C2F20000F8
:1027F000C4F202010068096846F68642C1F3C221AC
:10280000C0F60002515CC84070470000002804BFB9
:10281000012070472DE9F04182B00446007841F272
:102820000006C007C4F202060CD0706800F00C006D
:10283000042840F081803068800303D56068002858
:1028400000F04681207880071BD5706810F00C0FCF
:1028500009D0706800F00C00082840F0878070688C
:10286000C00300F183803068800703D52069012808
:1028700040F02E813068616920F0F80040EAC10024
:1028800030602078000713D4207840072CD4E56905
:10289000002D00F01881706800F00C00082840F04E
:1028A000A780012D40F00481012002B0BDE8F08135
:1028B000A069002800F084800020C4F24220012199
:1028C000C0F88014FEF73EFE054600BF706A800720
:1028D00000F1B280FEF736FE401B0228F6D9032035
:1028E00002B0BDE8F08100BFF0695FEAC00808D41B
:1028F000F06940F08050F061F06900F08050009085
:10290000009847F20007C4F200073868C00549D4B0
:10291000386840F480703860FEF714FE054600BF4A
:102920003868C0053ED4FEF70DFE401B6428F7D979
:10293000032002B0BDE8F081706800F00C000828A8
:1029400003D17068C0033FF576AF61683068002935
:1029500000F00C81B1F5A02F00F00081B1F5803FAF
:1029600040F01A8140F480301CE100BF206900284B
:1029700040F20000C4F2422000F088800121016092
:10298000FEF7E0FD054600BF306880073FF572AFF7
:10299000FEF7D8FD401B0228F6D9032002B0BDE89F
:1029A000F08100BFE168306A002900F09D800529B0
:1029B00000F09280012940F0AF8040F00100B1E0CA
:1029C0000020C4F242200021C0F88014FEF7BAFDB6
:1029D000054600BF706A80077FF556AFFEF7B2FD6F
:1029E000401B0228F6D9032002B0BDE8F08100BFE9
:1029F0000027C4F2422700203866FEF7A3FD022D0F
:102A000005460DD13068800140F1DE80FEF79AFD69
:102A1000401B02284FF00300F4D902B0BDE8F0815A
:102A2000306880014FD5FEF78DFD401B02284FF026
:102A30000300F5D9F1E700BF40F21C00C2F200002C
:102A4000006844F6D351C1F26201A0FB0101480ABB
:102A5000019000BF00BF0198411E002801913FF482
:102A600013AF00BF0198411E002801913FF40CAF45
:102A700000BF0198411E002801913FF405AF00BF3F
:102A80000198411E00280191E4D1FDE6002101607A
:102A9000FEF758FD054600BF306880077FF5F1AEB0
:102AA000FEF750FD401B02284FF00300F4D9B4E7B5
:102AB0007068216A00F480328A4209D1616A00F4A8
:102AC0007010884204D1002002B0BDE8F08100BF40
:102AD000012002B0BDE8F08140F004003062306AAD
:102AE00040F001001EE000BF20F001003062306ABB
:102AF00020F004003062FEF725FD054641F28837DC
:102B0000306A800720D5FEF71DFD401BB8424FF00C
:102B10000300F5D981E700BF20F001003062306A80
:102B200020F004003062FEF70DFD054641F28837C3
:102B3000306A800708D4FEF705FD401BB842F7D97C
:102B4000032002B0BDE8F081B8F1000F3FF59FAE61
:102B5000F06920F08050F06199E600BF40F48020D9
:102B60003060306840F480301CE000BF20F48030DA
:102B70003060306820F480203060FEF7E3FC0546CA
:102B8000306880037FF55EAEFEF7DCFC401B6428F6
:102B90004FF00300F4D940E720F480303060306813
:102BA00020F480203060FEF7CDFC054630688003BD
:102BB0003FF548AEFEF7C6FC401B6428F6D903205B
:102BC00002B0BDE8F08100BF206AB0F5803F05D1BA
:102BD0007168A26821F40031114371607168626A02
:102BE00021F4741111430843706001203866FEF728
:102BF000A9FC0446306880013FF565AFFEF7A2FCF2
:102C0000001B02284FF00300F4D906E770470000CC
:102C100070470000002804BF0120704710B590F8ED
:102C20003D1031B9002180F83C10044600F068F8EE
:102C30002046022180F83D10016840F2FF740B68C5
:102C4000C4F2000442F6004CA142C4F2010C15DCAF
:102C5000B1F1804F1AD040F20042C4F2000291421A
:102C600014D0A14218DCB1F1804F1DD040F20042D7
:102C7000C4F20002914217D01AE000BF614505D0AE
:102C800040F60002C4F200029142EAD1826823F0C9
:102C900070031343A142E6DD614505D040F6000212
:102CA000C4F20002914203D1026923F4407313433A
:102CB000846923F08002D0F804E0C36822436145B0
:102CC0000A60CB62C1F828E002D14269CCF830201A
:102CD00001224A6180F8462080F83E2080F83F209B
:102CE00080F8402080F8412080F8422080F843207E
:102CF00080F8442080F8452080F83D20002010BD59
:102D00007047000090F83D1001291CBF012070475A
:102D1000022180F83D10006840F2FF72C168C4F2E1
:102D20000002904241F00101C16009DCB0F1804F26
:102D300012D040F20041C4F2000188420CD012E0EF
:102D400042F60041C4F20101884205D040F600017C
:102D5000C4F20001884206D1816801F0070106290A
:102D600004BF00207047016841F0010101600020AC
:102D7000704700007047000010B5016804460869FC
:102D8000800744BFC8685FEA807039D4086940078B
:102D900044BFC8685FEA40703ED40869000744BF7A
:102DA000C8685FEA007045D40869C00644BFC868B7
:102DB0005FEAC0604AD40869C0071CBFC8685FEA00
:102DC000C07051D10869000644BFC8685FEA00605E
:102DD00052D40869400644BFC8685FEA406053D4D3
:102DE0000869800646BFC8685FEA806010BD6FF062
:102DF000200220460A61BDE81040FFF709BF00BF6E
:102E00006FF002000861012020778869800743D0B5
:102E10002046FFF7AFFF45E06FF004000861022095
:102E20002077886910F4407F40D02046FFF7A2FF4A
:102E300042E000BF6FF00800086104202077C869F5
:102E400080073DD02046FFF795FF3FE06FF0100070
:102E5000086108202077C86910F4407F3AD02046E6
:102E6000FFF788FF3CE000BF6FF0010008612046DB
:102E700000F03EF82168A5E76FF080000861204669
:102E8000FFF7C4FE2168A4E76FF040000861204608
:102E900000F038F82168A3E7204600F025F8204626
:102EA00000F024F82168002020776FE7204600F02A
:102EB0001BF8204600F01AF82168002020776CE704
:102EC000204600F011F8204600F010F8216800209C
:102ED000207769E7204600F007F8204600F006F862
:102EE00021680020207766E77047000070470000E7
:102EF000006840F60001C4F20001884218BF704724
:102F0000FFF786B970470000704700007047000067
:102F1000B0B582B005682968EC686A6901F02F03D2
:102F2000202B04F0200305D123B102B0BDE8B0404E
:102F300000F04CBE5FEA017C1EBF02F0010E04F4FB
:102F4000907212EB0E0241D1026BCB0618D5012A0A
:102F500016D114F0100213D00021019129680191BB
:102F60006968019101996969490649D4818DC38DC8
:102F7000C28D002A18BF994240F0DE8002B0B0BD79
:102F80000A062BD514F0800228D090F83D10212994
:102F9000F4D18168B1F5805F03D10169002900F0A7
:102FA000E980016A4A1C026209786960C18C0139B2
:102FB0000A04C184E2D1E86820F08000E860E86893
:102FC00040F04000E86002B0B0BD00BFCA0718BFC3
:102FD00014F4807244D14A0748D44EE04906CDD556
:102FE00014F04001CAD0E96821F04001E9602021D5
:102FF00080F83D1002B0BDE8B04000F09FBA00BFBD
:10300000816B0A68526894B2002CB7D0838D9C42C1
:10301000B4D2C2858A69202A1AD0EA68044622F40A
:103020008072EA606A6922F001026A616A6922F0CC
:1030300040026A61202280F83E2000220263EA6892
:10304000084622F01002EA60FEF7F0F8A38D204651
:10305000C18D591A89B202B0BDE8B040FFF754BF24
:10306000026C42F0010202644A0706D5BEF1000F6D
:1030700003D0026C42F0020202648A0706D5BEF158
:10308000000F03D0026C42F004020264BCF1000F96
:1030900006D55EEA030203D0026C42F00802026425
:1030A000026C002A3FF46AAF890605D523B10446B5
:1030B00000F08CFD256820466969026C01F0400132
:1030C00002F0080289182FD0E96821F49071E960B4
:1030D000696921F001016961016B012903D1E96886
:1030E00021F01001E960202180F83E1000210163E9
:1030F0006969490638D5696921F040016961816BC8
:1031000091B343F6C132C0F60002044608464A6352
:10311000FEF7B0F800283FF431AFA06B416B02B06E
:10312000BDE8B040084700BF0446FFF7EFFE0020AF
:10313000206402B0B0BD00BFEA68C91A22F49072E0
:10314000EA606A6989B222F001026A61202280F88D
:103150003E2000220263EA6822F01002EA6002B018
:10316000BDE8B040FFF7D0BE02B0BDE8B040FFF709
:10317000CDBE00BF016A31F8022B6FF35F226A6097
:10318000016213E7002804BF0120704710B5044610
:1031900090F83D0028B9002084F83C00204600F05B
:1031A00061F8242084F83D002068D4E90212C36845
:1031B00023F40053C360036923F440531A430261AC
:1031C000D4E904231143C268194341F20C639A43C2
:1031D0001143C1604169A26921F44071114343F672
:1031E0000002C4F201029042416103D0FFF7E6FA07
:1031F00002E000BFFFF7F6FAD4E9002319214843A3
:103200009900B0FBF1F048F21F5CC5F2EB1CA0FB8B
:103210000C314FF69C734909C0F6FF7301FB0300A4
:10322000322303EB0010A0FB0C03F02000EA531044
:1032300000EB0110C3F34311084490601069202192
:1032400020F490401061506920F02A005061D0684D
:1032500040F40050D0600020206484F83D1084F8D1
:103260003E1010BD70B586B040F60004C4F20104F3
:10327000006804F54051002688420596CDE90366B2
:10328000029601D006B070BD41F21800C4F20200EF
:10329000016802AD41F480410160016801F48041A0
:1032A00001910199016841F004010160006829461B
:1032B00000F00400019001984FF400700290022089
:1032C0000390032005902046FEF72CF84FF4806011
:1032D000CDE90206204629460496FEF723F825206C
:1032E00000210022FFF730F82520FFF71BF806B079
:1032F00070BD0000034690F83E0020280AD1002946
:103300004FF0010018BF002A00D1704793F83C002D
:10331000012801D102207047002018639962222100
:103320009A85DA85186483F83E10196883F83C00A2
:10333000CA6842F48072CA604A6942F001024A6176
:10334000CA6842F02002CA6070470000006843F675
:103350000001C4F20101884218BF7047B0B540F2C5
:10336000FC04C2F20004607821780A2806D01229F1
:1033700004D84D1C214481F8200005E004F1200010
:103380000025455400F066FA40F2581004F8015B3D
:10339000C2F20000303021460122BDE8B040FFF704
:1033A000A9BF00002DE9F04381B0044690F83D002C
:1033B00020280DD100294FF0010018BF002A03D1A9
:1033C00001B0BDE8F08300BF94F83C00012803D1B0
:1033D000022001B0BDE8F083012084F83C00002009
:1033E000206421201D460E4684F83D001746FEF756
:1033F000A9F8A784E784A1688146B1F5805F03D16D
:103400002069002800F0968037460021002084F8CB
:103410003C00E28C2068002A40D06A1C23D0002D9A
:103420005FD088460168090608D4FEF78BF8A0EB48
:1034300009012068A942F5D968E000BF17B117F863
:10344000011B04E038F8021B00276FF35F21416085
:10345000E18C0139E184E18C0029E3D11EE000BF59
:103460000268120609D40268120606D4026812061F
:103470005CBF02685FEA0262F2D51FB117F8012B48
:1034800005E000BF31F8022B00276FF35F22426096
:10349000E28C013AE284E28C002AE4D10168490618
:1034A0000FD49DB3691C2AD10168490609D401686B
:1034B00049065CBF01685FEA416102D401684906C0
:1034C000F2D5202084F83D00002001B0BDE8F08353
:1034D00017F8012B4260E28C013AE284E28C002A68
:1034E000DCD00268120611D5002FF1D131F8022B81
:1034F00000276FF35F22EDE700684006E1D4FEF796
:1035000021F8A0EB09012068A942F5D9C16821F48E
:10351000D071C160416921F001014161202084F82E
:103520003D0084F83E00002084F83C00032001B0F8
:10353000BDE8F0830027314668E7000070470000CF
:10354000FEE70000B0B5A0F140046FF07F02002953
:1035500008BF80EA02040120E5B200F087FC40F6D3
:103560000000C4F2010001210022FDF7E5FF280957
:1035700000F074F804F00F0000F070F80120BDE8CE
:10358000B04000F073BC000010B5322000F06EFCBB
:1035900040F60004C4F20104204601210022FDF798
:1035A000CBFF032000F05AF8032000F057F8052065
:1035B00000F05CFC204601210022FDF7BDFF032046
:1035C00000F04CF8022000F049F8052000F04EFC15
:1035D000204601210022FDF7AFFF022000F03EF857
:1035E000082000F03BF8052000F040FC20460121B7
:1035F0000022FDF7A1FF002000F030F80C2000F0C1
:103600002DF8052000F032FC204601210022FDF7B4
:1036100093FF002000F022F80120BDE8104000F0E8
:103620001DB8000070B50578002D08BF70BD40F6CC
:103630000004461EC4F20104204601210122FDF7C8
:103640007BFFE8B2000900F009F805F00F0000F078
:1036500005F8B5780136002DEED170BD70B540F695
:103660000004C4F2010405464FF6E63600F00102FC
:1036700020461021CFF6FF76FDF75EFFC5F340022E
:1036800020462021FDF758FFC5F380022046402147
:10369000FDF752FFC5F3C00220468021FDF74CFF25
:1036A000204602210122FDF747FF304600BF00BF40
:1036B00000BF00BF00BF00BF00BF00BF00BF00BF12
:1036C00000BF00BF00BF00BF00BF00BF00BF00BF02
:1036D00000BF00BF00BF00BF00BF00BF00BF00BFF2
:1036E00000BF00BF00BF00BF00BF00BF00BF00BFE2
:1036F00000BF00BF00BF00BF00BF00BF00BF00BFD2
:1037000000BF00BF00BF00BF00BF00BF00BF00BFC1
:1037100000BF00BF00BF00BF00BF00BF00BF00BFB1
:1037200000BF00BF00BF00BF00BF00BF00BF00BFA1
:1037300000BF00BF00BF463000BFB7D12046022106
:103740000022FDF7F9FE00BF00BF00BF00BF00BFB1
:1037500000BF00BF00BF00BF00BF00BF00BF00BF71
:1037600000BF00BF00BF00BF00BF00BF00BF00BF61
:1037700000BF00BF00BF00BF00BF00BF00BF00BF51
:1037800000BF00BF00BF00BF00BF00BF00BF00BF41
:1037900000BF00BF00BF00BF00BF00BF00BF00BF31
:1037A00000BF00BF00BF00BF00BF00BF00BF00BF21
:1037B00000BF00BF00BF00BF00BF00BF00BF00BF11
:1037C00000BF00BF00BF00BF00BF00BF00BF00BF01
:1037D00000BF463600BFB7D170BD000010B504462B
:1037E00040F60000C4F2010001210022FDF7A4FE12
:1037F0002009FFF733FF04F00F00BDE81040FFF78A
:103800002DBF0000FEE70000704700000000000030
:10381000EFF30980BFF36F8F0D4B1A6820E9F00FAB
:1038200010602DE908404FF0500080F3118801F03E
:103830005BFE4FF0000080F31188BDE80840196876
:103840000868B0E8F00F80F30988BFF36F8F704706
:103850003000002010B534A10446FCF787FC98B175
:103860000630FCF79CFC40F204010128C2F2000182
:10387000A8BF086046F64850C0F600000968BDE8D9
:103880001040FDF74BB900BF29A12046FCF76EFCA4
:10389000A0B10330FCF783FC40F20401C2F2000146
:1038A0000128B4BF043141F8040F46F66C50C0F64D
:1038B00000000968BDE81040FDF730B91DA12046A1
:1038C000FCF754FCA0B10430FCF769FC40F20401A1
:1038D000C2F200010128B4BF083141F8080F46F6D2
:1038E0005B50C0F600000968BDE81040FDF716B94E
:1038F00012A12046FCF73AFC002808BF10BD053095
:10390000FCF74DFC40F20401C2F200010128ACBFFB
:1039100041F80C0F0C3146F67C50C0F600000968E7
:10392000BDE81040FDF7FAB853485433313A00006F
:10393000534D3A004C43443A000000005541525464
:103940003A00000010B540F25814C2F200042046BC
:10395000FDF7C4FB20460A21FDF788FA10B10024C8
:1039600007E000BF40F25810C2F20000FDF79AF9DC
:10397000044640F25810C2F20000FDF717FCA0B256
:1039800040F6B831884238BF014643F6E020CFF612
:10399000FE706422B1F5916F98BF4FF4916101FB05
:1039A000020048F257310009C0F6E701A0FB01010F
:1039B000A2EB9100C0B210BD0000000000000000AA
:1039C000074B19680868B0E8F00F80F30988BFF367
:1039D0006F8F4FF0000080F311884EF00D0E70478E
:1039E0003000002001F0C6F800F080FA044640F2F2
:1039F000FC00C2F2000040F20407051D00F10806B9
:103A0000C2F200072846314601F0B2F93868044492
:103A1000204600F049FAF5E700F068FA40F2FC05AC
:103A200040F204060446C2F20005C2F2000600BFDE
:103A3000FFF788FFA87070680444204600F034FA4D
:103A4000F6E70000FFF7A0FD00F050FA40F2FC0797
:103A5000C2F2000740F2040A044607F134050FF2EF
:103A600078080FF2800922A6C2F2000A0120FFF7AF
:103A7000B5FE00200021FFF765FD7868FCF769FCC2
:103A800002460B462846414602F006FC2846FFF750
:103A9000C9FD00200121FFF755FDB868FCF759FC6E
:103AA00002460B462846494602F0F6FB2846FFF739
:103AB000B9FD0A200121FFF745FDBA7828463146B5
:103AC00002F0EAFB2846FFF7ADFDDAF808000444EF
:103AD000204600F0E9F9C9E754656D703A252E31AA
:103AE0006620430048756D3A252E31662525000075
:103AF000534D3A256425250082B000F0F7F940F2D5
:103B0000FC0A40F2040B0446C2F2000A0FF2440819
:103B10000FF26009C2F2000BDAE90107FCF719FCA9
:103B2000054638460E46FCF714FC074640462A4632
:103B30003346CDE90071FCF7F1FF9AF802104846D0
:103B4000FCF7ECFFDBF80C000444204600F0ACF975
:103B5000E2E700BF54656D703A20252E326620439F
:103B60002C2048756D693A20252E326625252C209B
:103B700000000000534D3A2025642525200A00004E
:103B800080B54FF0500080F31188BFF36F8FBFF303
:103B90004F8F02F0AFF930B14EF60450CEF2000074
:103BA0004FF080510160002080F3118880BD00003B
:103BB0007047000040F68410C2F20000FFF7DCB846
:103BC000406A0021C185C184FFF7A0B990F83E107A
:103BD000222918BF704783680246B3F5805F09D178
:103BE00052F8281F52F8183C002B41D003685B683C
:103BF0000AE000BF52F8281F13B90369002BF5D063
:103C000003685B6803F07F030B701168013111607A
:103C1000C18D01390A04C18500D070470168CA68A6
:103C200022F02002CA60CA6822F48072CA604A691F
:103C300022F001024A61202280F83E20026B012A14
:103C400018BFFFF783BB00220263CB6823F0100389
:103C5000CB600B68DB0607D581B000920A68009242
:103C600049680091009901B0818DFFF74DB900BFFF
:103C7000026852686FF35F2221F8022B8162C7E766
:103C800040F28810C2F20000FFF742B9FEE70000E0
:103C900094B0FEF7CBFA00264FF480300225CDE930
:103CA0000B06CDE911504FF4A0104FF0010913900D
:103CB0000AA8CDE90F66CDE90D660496CDE9026646
:103CC000CDF82890CDF83890FEF7A0FD0F2005A97B
:103CD00061C14FF48060CDE9080605A80221FEF716
:103CE0006DFC4FF4804801A80195CDF80C80FEF7DB
:103CF000E3FB41F21800CDE90C66CDE90A66C4F297
:103D00000200016840F6000441F0200101600168F2
:103D1000C4F2010401F02001059105990168002217
:103D200041F0040101600168F32701F004010591ED
:103D30000599016841F0080101600068F32100F075
:103D40000800059005982046FDF7F6FB0AA92046D5
:103D5000CDE90A79CDE90C65FDF7E4FA40F2581592
:103D600004F5E050C2F200054FF46021C5E90006F9
:103D700028462E732E75E961AE60C5F81090FCF7E9
:103D800095FF0920CDE90A090AA928460C96FCF7F7
:103D9000E9FE40F63010A4F53441C2F2000048F2CA
:103DA000A062C0F2010280E84600C0E90368C0E9F1
:103DB0000566C0E90766FDF7CBFB04F5405045F802
:103DC000300F4FF4E1300C21C5E901062846C5E962
:103DD0000366C5E90516EE61FFF7D4F940F2FC046D
:103DE000C2F20004611C28460122FFF783FA00F0AA
:103DF00097F846F69042C0F6000210200C2100F021
:103E0000CFF8E06043F6E51046F6A842C0F60000A1
:103E1000C0F60002002100F027F9206143F61920C6
:103E200046F6CC42C0F60000C0F60002002100F0C9
:103E30001BF9606143F6452046F6F042C0F60000EB
:103E4000C0F60002002100F00FF9A06143F6F9204E
:103E500046F61452C0F60000C0F60002002100F041
:103E600003F9E06100F07AF8FEE70000EFF3058166
:103E700011B9EFF3108119B16FF00500704700BF61
:103E800040F25041C2F200010968022903D1EFF368
:103E900011810029F0D1002804BF0020704780B5AF
:103EA00001F074F9002080BDEFF3058111B9EFF343
:103EB000108119B16FF00500704700BF40F250410A
:103EC000C2F200010968022903D1EFF31181002930
:103ED000F0D110B582B0044601F0FCFF0190211A28
:103EE00001A801F093F9002002B010BDEFF30580A6
:103EF00090B9EFF31080002818BF01F0F1BF40F235
:103F00005040C2F200000068022807D1EFF3118090
:103F1000002808BF01F0DEBF01F0E2BF01F0DABF08
:103F2000EFF3058010B9EFF3108018B16FF00500C2
:103F3000704700BF40F25040C2F200000168022901
:103F400004D1EFF311810029F0D10168002911BFDC
:103F50004FF0FF300121016000207047EFF3058032
:103F600010B9EFF3108018B16FF00500704700BF73
:103F700040F25040C2F200000168022904D1EFF380
:103F800011810029F0D1016801291CBF4FF0FF30D9
:103F9000704780B50221016001F028FA002080BD41
:103FA000B0B582B0EFF3058323B10024204602B000
:103FB000B0BD00BFEFF3108323B10024204602B050
:103FC000B0BD00BF40F25043C2F200031B68022B99
:103FD0000AD100294FF00004EFF3118318BF002825
:103FE000E4D03BB1E2E700BF00284FF0000418BF67
:103FF0000029DBD0D2B1D2E902342BB3502CDCD370
:10400000D2F810E0BEF1000FD7D0D2F814C001FBF7
:1040100000F4A4454FF00004C8D31546724600943E
:1040200001F0A2FB0028C8D02C6805E0002201F0B6
:1040300059FB00240028B9D0A4466146044601F08B
:104040004FF8204602B0B0BD002CB6D11369002B4A
:10405000B3D15369002BB0D11546002201F042FBC9
:104060000028E1D1A9E700002DE9F04186B0002445
:104070000B460494EFF3058121B1204606B0BDE85C
:10408000F08100BFEFF310810029F6D140F25041DA
:10409000C2F200010968022906D10028EFF311815C
:1040A000EBD019B1E9E700BF0028E6D00DF1170108
:1040B0008DF8174082B31768D2F818E0002F18BFA8
:1040C0003946BEF1000F08BF4FF0180EBEF1380F91
:1040D000D3D81779FF07D0D15769D2E902854FEAC3
:1040E000970C002F664608BF8026B8F1000F25D038
:1040F0005C2DC2D31269002A18BF002FBDD0CDE9B4
:1041000000E26246CDF8088001F09AFE044620469F
:1041100006B0BDE8F08100BF80264FF0180E04AF56
:10412000B2B2CDE900E701F05BFE0499012808BFB7
:104130000C46204606B0BDE8F08100BF002D9CD1A2
:104140001269002A99D1EAE72DE9F041044600F00E
:10415000D5FE40F23006C2F20006F06840F6BC25FB
:104160000130F0603068C2F2000558B130690028B3
:1041700040F007813068E16AC06A884298BF3460C5
:10418000FFE000BF3460F068012840F0FA80284664
:1041900000F064FE05F1140000F060FE05F1280057
:1041A00000F05CFE05F13C0000F058FE05F1500007
:1041B00000F054FE05F1640000F050FE05F17800B7
:1041C00000F04CFE05F18C0000F048FE05F1A00067
:1041D00000F044FE05F1B40000F040FE05F1C80017
:1041E00000F03CFE05F1DC0000F038FE05F1F000C7
:1041F00000F034FE05F5827000F030FE05F58C709D
:1042000000F02CFE05F5967000F028FE05F5A07074
:1042100000F024FE05F5AA7000F020FE05F5B4704C
:1042200000F01CFE05F5BE7000F018FE05F5C87024
:1042300000F014FE05F5D27000F010FE05F5DC70FC
:1042400000F00CFE05F5E67000F008FE05F5F070D4
:1042500000F004FE05F5FA7000F000FE05F50270AE
:1042600000F0FCFD05F5077000F0F8FD05F50C7099
:1042700000F0F4FD05F5117000F0F0FD05F5167085
:1042800000F0ECFD05F51B7000F0E8FD05F5207071
:1042900000F0E4FD05F5257000F0E0FD05F52A705D
:1042A00000F0DCFD05F52F7000F0D8FD05F5347049
:1042B00000F0D4FD05F5397000F0D0FD05F53E7035
:1042C00000F0CCFD05F5437000F0C8FD05F5487021
:1042D00000F0C4FD05F54D7000F0C0FD05F552700D
:1042E00000F0BCFD05F5577000F0B8FD05F55C70F9
:1042F00000F0B4FD05F5617000F0B0FD05F56670E5
:1043000000F0ACFD05F56B7000F0A8FD05F57070D0
:1043100000F0A4FD05F5757000F0A0FD05F57A70BC
:1043200000F09CFD05F57F7000F098FD05F58260BA
:1043300000F094FD05F2244000F090FD05F5876043
:1043400000F08CFD05F24C4000F088FD40F2CC18E6
:10435000C2F20008404600F081FD08F1140738461B
:1043600000F07CFD06F1640000F078FD06F13C00F1
:1043700000F074FD06F1500000F070FDC6F81C80DE
:1043800037627068716A421CE06A726088426264D7
:1043900088BF706200EB800005EB8000211D00F0FB
:1043A0009FFD00F0CFFD306988B13068E16AC06AD6
:1043B000884228BFBDE8F0814EF60450CEF20000DE
:1043C0004FF080510160BFF34F8FBFF36F8FBDE897
:1043D000F081000040F2300540F6BC264EF604584D
:1043E000C2F20005C2F20006CEF200084FF080577C
:1043F00003E000BF204600F0BDFDA868D0B100F08A
:104400007DFDA86CC468201D00F0FAFCE868013846
:10441000E860A8680138A86000F094FD94F859009D
:104420000228EAD00128E5D070B9206B00F0A2FD87
:10443000E0E700BF30680228DFD3C8F80070BFF3A0
:104440004F8FBFF36F8FD8E74FF0500080F3118884
:10445000BFF36F8FBFF34F8FFEE700002DE9F047EA
:104460000A9C8246206B16460F46DDE908599100EA
:10447000A5229846FBF768FE206B397800EB860092
:10448000043820F0070684F83410D9B3787884F81B
:104490003500B8B3B87884F8360098B3F87884F863
:1044A000370078B3387984F8380058B3787984F8CD
:1044B000390038B3B87984F83A0018B3F87984F839
:1044C0003B00F8B1387A84F83C00D8B1787A84F8A7
:1044D0003D00B8B1B87A84F83E0098B1F87A84F813
:1044E0003F0078B1387B84F8400058B1787B84F87D
:1044F000410038B1B87B84F8420000281CBFF87B2B
:1045000084F843000027201D84F84370372D28BF0E
:104510003725E562C4E9135700F0ACFC04F118003C
:1045200000F0A8FCC5F13800A06130465146424673
:1045300024616462676584F8587000F00BFBB9F180
:10454000000F206018BFC9F80040BDE8F0870000E8
:1045500006480068006880F3088862B661B6BFF359
:104560004F8FBFF36F8F00DF00BF000008ED00E04A
:1045700081B00020009040F22000C2F200000068EC
:104580004FF0500181F31188BFF36F8FBFF34F8F4E
:10459000013007D0FEE700BF009830B9009820B97D
:1045A000009810B900980028F6D001B070470000BC
:1045B00088B040F2A80AC2F2000A0DF11009E846DC
:1045C0004FF0010BDAF8080005681DB1C0680468F7
:1045D00001E000BF002400F07FFF01F07BFCDAF86F
:1045E00010100646884224D3002DCAF8106053D01C
:1045F000B44251D801F07EFDDAF80800C068C768FF
:104600003D1D284600F0FCFBF869012840F0808041
:10461000B8693F610119B14279605BD90AF10800BC
:104620005DE000BF7860DAF8080029463F6100F0DD
:1046300025FCDAF80800016821B3C068C76804687F
:104640003D1D284600F0DCFB796A38468847F8694A
:104650000128EED1B8692044A042E3D8DAF800007E
:10466000002800F02381002004A991C101F022FC60
:10467000DAF8000049460022002301F0E3F80028A0
:10468000D7D113E1DAF80C10CAF81060CAE90210A9
:1046900001F030FD45E000BF15B1002206E000BF8B
:1046A000DAF80C000068B0FA80F04209DAF800008D
:1046B000A11B00F041FD01F01DFD90BB4EF6045022
:1046C000CEF200004FF080510160BFF34F8FBFF377
:1046D0006F8F26E0311B814206D20AF10C00006880
:1046E000294600F0CBFB13E0DAF80000002800F0C8
:1046F000FB80002004A991C101F0DCFBDAF8000086
:1047000049460022002301F09DF8002800F0EC80CB
:10471000796A3846884704E00AF10C02106800F014
:10472000ADFBDAF800004146002201F0EBF9002869
:104730003FF448AF0098B0F1FF3F06DCDDE901200F
:104740000399904700980028EBD4029E706910B13D
:10475000301D00F055FB01F0BDFBDAF810100746E4
:1047600088423AD2C34606E06860DAF8080021467B
:104770002D6100F083FBDAF80800016831B3C068EE
:10478000C568D0F800802C1D204600F039FB696A0E
:1047900028468847E8690128EDD1A869404440458A
:1047A000E2D8DAF80000002876D00020CDE904082D
:1047B000069501F07FFBDAF800004946002200234D
:1047C00001F040F80028D6D166E000BFDAF80C10FE
:1047D000D8464FF0010BCAE902100098CAF81070D1
:1047E00009289ED80BFA00F111F0C70F10D00198DC
:1047F000B2693146131841F8043FBB4236611BD9F8
:1048000087420AF10802BFF489AF834218D285E7D4
:1048100011F4047F34D001980028B0615AD0384494
:1048200031460AF10C0241F8040F3661B84288BFE4
:104830000AF1080272E700BF381A9042FFF46CAF29
:10484000716A30468847F06901287FF46AAFDAF868
:104850000000002834D00198B16906960844002170
:10486000CDE9041001F026FBDAF8000049460022E9
:10487000002300F0E7FF00287FF453AF20E000BFE3
:1048800005287FF44EAF96F82C0000287FF449AF3E
:10489000304600F06FFB44E74FF0500080F3118882
:1048A000BFF36F8FBFF34F8FFEE700BF4FF0500095
:1048B00080F31188BFF36F8FBFF34F8FFEE700BF08
:1048C0004FF0500080F31188BFF36F8FBFF34F8F0D
:1048D000FEE700BF4FF0500080F31188BFF36F8FE9
:1048E000BFF34F8FFEE700BF4FF0500080F31188F9
:1048F000BFF36F8FBFF34F8FFEE70000F0B581B0BD
:10490000044600F0FBFA94F94560012E0FDB04F138
:10491000240500BF286850B1284601F0B1FB0028EB
:1049200018BF00F0E3FCF0B2013E0128F2D8FF26E8
:1049300084F8456000F006FB00F0E0FA94F944705A
:10494000012F0EDB04F11005286850B1284601F054
:1049500097FB002818BF00F0C9FCF8B2013F0128FE
:10496000F2D884F8446001B0BDE8F04000F0EABA43
:1049700070B5044600F0B0FD40F2E40CC2F2000C49
:10498000DCF8042012B19CF8000022E040F61C7014
:10499000C2F20000420700F5406200F1070122F078
:1049A000070218BF21F007000021A2F10803CCF88C
:1049B0001000CCF81410CCF8043042E90211DCF8F5
:1049C0000420191AC0E900210120CCE902118CF859
:1049D00000000025002C4FF0000148BF01215AD0F3
:1049E000084058D124F0070000F11003600708BF09
:1049F00004F10803DCF80800591E81424BD26046DE
:104A000050F810EFDEF804509D422CD2DEF8001072
:104A1000C1B174464D689D4218D20E68B6B1756832
:104A20009D4217D23068A8B145689D4216D20468ED
:104A3000A4B165689D4215D22168A6460029E9D136
:104A400011E000BF0CF110000DE000BF8E462046C3
:104A500009E000BFB646084605E000BF864630467E
:104A600001E000BFA646964514D00268DEF800407B
:104A7000E91A112904604FD30EEB0305680719D01A
:104A80004FF0500080F31188BFF36F8FBFF34F8F4B
:104A9000FEE700BF002501F02DFB680757D04FF05F
:104AA000500080F31188BFF36F8FBFF34F8F00BFAB
:104AB000FEE700BF0CF110006960CEF8043000BFC3
:104AC0000168A9420AD20868A8420BD20168A9422B
:104AD00004D208680B46A842F2D304E00346084615
:104AE00001E000BF0B465C6869681E19AE4202D146
:104AF00021441D4659606C18844201D0044607E0E9
:104B0000DCF80440A04203D0D0E9004008446860CB
:104B1000AB422C6018BF1D60DEF80400DCE9021314
:104B200002F10805091A9942CCF8081038BFCCF8F0
:104B30000C109CF8001000294FF0000118BF40F045
:104B40000040CEE9001001F0D5FA6807A7D1284649
:104B500070BD0000034644F27150C0F600004FF0F3
:104B6000807C21F0010103E90310A3F1400043F828
:104B7000202C704780B582B04AF23020ADF8060094
:104B800040F630104FF0640CC2F200000DF1060246
:104B900088210223CDF800C0FDF7F8F80A20FFF7BE
:104BA00065F902B080BD00002DE9F04383B0814675
:104BB00040F6301088466426C2F200000DF106026D
:104BC000882106230096FCF775FD18B103B0BDE8F7
:104BD000F08300BF9DF90600C143CAB2312181EACA
:104BE0004203002848BF530081EA43021E0658BF13
:104BF0005A0081EA4203160658BF530081EA430275
:104C00001E0658BF5A0081EA4203160658BF5300D9
:104C100081EA43021E0658BF5A0081EA4203160683
:104C200058BF530081EA43061A0658BF5E009DF83C
:104C300007C09DF8083086EA0C0674B2F6B2770019
:104C4000002C48BF81EA460781EA47063C0658BF68
:104C50007E0081EA4607340658BF770081EA47069E
:104C60003C0658BF7E0081EA4607340658BF7700ED
:104C700081EA47063C0658BF7E0081EA46073406B3
:104C800058BF770081EA47063C0658BF7E00F7B25E
:104C9000BB4269D19DF90930DF43FFB281EA470683
:104CA000002B48BF7E0081EA4607340658BF7700D4
:104CB00081EA47063C0658BF7E0081EA4607340673
:104CC00058BF770081EA47063C0658BF7E0081EA5C
:104CD0004607340658BF770081EA47063C0658BFAE
:104CE0007E0081EA4607340658BF77009DF80A40E7
:104CF0009DF80B6067407DB2FFB27A00002D48BF7F
:104D000081EA470281EA4207150658BF570081EA47
:104D100047023D0658BF7A0081EA4207150658BF90
:104D2000570081EA47023D0658BF7A0081EA4207F0
:104D3000150658BF570081EA47023D0658BF7A0062
:104D400081EA4201170658BF5100C9B28E420BD109
:104D50004CEA0020A9F8000044EA0320A8F800006B
:104D6000002003B0BDE8F083012003B0BDE8F0836C
:104D700070B584B005462420ADF80E0040F6301022
:104D80000C466426C2F200000DF10E0288210223B7
:104D90000096FCF7FBFF1420FFF768F803A80DF15D
:104DA0000A01FFF701FF18B1002004B070BD00BF79
:104DB000BDF80C00FBF7C8FA0021C4F22F31FBF755
:104DC00053FA4FF60076C4F27F763146FBF77EFA4F
:104DD0000021CCF23421FBF7EFF9BDF80A1028606E
:104DE0000846FBF7B1FA0021C4F2C821FBF73CFAF0
:104DF0003146FBF76BFA2060012004B070BD000063
:104E00000169D0E90132D1F804C09A608445536049
:104E100008BF4A600022026108680138086008681B
:104E20007047000040F2F433C2F20003036040F226
:104E3000F410C2F20000086080201060704700008B
:104E400040F65403C2F20003036040F25440C2F241
:104E5000000008604FF48070106070474FF0FF3121
:104E6000024642F8081F00214260C0E903220160A7
:104E700070470000002101617047000010B5D1F8B3
:104E800000C01CF1010213D000F10804626813682D
:104E9000634511D853681C68644511D85A68146872
:104EA00064450FD854682368A6466345EED90BE0E5
:104EB0000269D2F804E007E09646224604E000BF0B
:104EC0009E4601E096461A46C1F804E0CEF8081066
:104ED0008A605160086101680131016010BD000005
:104EE000D0F800C0436808619A68C1E90132516096
:104EF00099600CF101010160704700004FF0500013
:104F000080F31188BFF36F8FBFF34F8F40F2200003
:104F1000C2F2000001684A1C026009B1704700BF7C
:104F20004EF60450CEF200000068000608BF70473D
:104F30004FF0500080F31188BFF36F8FBFF34F8F96
:104F4000FEE7000040F22000C2F20000016839B123
:104F50000139016018BF7047002080F31188704745
:104F60004FF0500080F31188BFF36F8FBFF34F8F66
:104F7000FEE7000070B5002808BF70BD40F2E405F0
:104F8000C2F20005297850F8042C002918BF4FF010
:104F9000004111420ED0A0F108042368A3B14FF0E4
:104FA000500080F31188BFF36F8FBFF34F8F00BFA6
:104FB000FEE700BF4FF0500080F31188BFF36F8F02
:104FC000BFF34F8FFEE700BF22EA010140F8041C47
:104FD000064600F081FA56F8040CA9680144A9605D
:104FE00005F110010B68A3420AD21968A14213D23D
:104FF0000B68A34204D219681A46A142F2D301E019
:105000000A4619465368D618A6420AD023188B427E
:105010000DD00B4612E000BF1A465368D618A642C0
:10502000F4D118441446506023188B42F1D16B68B8
:10503000994203D0D1E9003108446060A242236064
:1050400018BF1460BDE8704001F054B84EF2100073
:10505000CEF2000000210160816040F21C01C2F22A
:105060000001096844F6D352C1F26202A1FB0212A8
:105070004FF0FF3101EB9211416007210160704751
:1050800040F22800EFF305811029C2F2000011D38D
:105090004EF2F032CEF20002895C0278914209D2DF
:1050A0004FF0500080F31188BFF36F8FBFF34F8F25
:1050B000FEE700BF4EF60C51CEF2000109684068D1
:1050C00001F4E061814298BF70474FF0500080F3D7
:1050D0001188BFF36F8FBFF34F8F00BFFEE7000053
:1050E00041F6203CC2F2000CDCF8003003B363460A
:1050F00053F8082FEAB1634653F8102FCAB163463C
:1051000053F8182FAAB1634653F8202F8AB163468B
:1051100053F8282F6AB1634653F8302F4AB15CF830
:10512000382F002A634608BFC3E90010704700BF4C
:105130006346C3E90010704770B515460E46044635
:10514000FFF7DCFE94F84400FF2804BF002084F839
:10515000440094F84500FF2804BF002084F845006F
:10516000FFF7F0FEA06B28B12046BDE87040FFF7C6
:10517000C5BB00BF04F1240031462A4600F0F8F810
:105180002046BDE87040FFF7B9BB000070B588B39A
:1051900040F23004C2F20004616949B14FF050009E
:1051A00080F31188BFF36F8FBFF34F8FFEE700BF0F
:1051B0006169064601316161A569216804310846CB
:1051C000FFF71EFE2068AD19456005D3206A2168EF
:1051D0000431FFF753FE08E0E06921680431FFF76E
:1051E0004DFEE06A854238BFE56200F083FF00288B
:1051F00018BF70BD4EF60450CEF200004FF0805143
:105200000160BFF34F8FBFF36F8F70BD70B588B172
:10521000D1B140F23004C2F200046269F2B14FF041
:10522000500080F31188BFF36F8FBFF34F8F00BF23
:10523000FEE700BF4FF0500080F31188BFF36F8F7F
:10524000BFF34F8FFEE700BF4FF0500080F311888F
:10525000BFF36F8FBFF34F8FFEE700BF626901326C
:105260006261A26903689A42194403D2994203D346
:1052700016E000BF994201D3914211D90160A5699E
:1052800020688E1A0430FFF7BBFD2068AD19456019
:1052900008D3206A21680431FFF7F0FD0BE000BF5E
:1052A000016008E0E06921680431FFF7E7FDE06A8A
:1052B000854238BFE56200F01DFF002818BF70BDB1
:1052C0004EF60450CEF200004FF080510160BFF363
:1052D0004F8FBFF36F8F70BD40F23001C2F20001FB
:1052E0008A6B0260896941607047000040F23000BB
:1052F000C2F20000012101637047000070B5D8B10F
:1053000040F23004C2F200040D4621681831FFF764
:10531000B5FDA66920680430FFF772FD681C15D042
:105320002068AD19456019D3206A21680431BDE8B1
:105330007040FFF7A3BD00BF4FF0500080F311880D
:10534000BFF36F8FBFF34F8FFEE700BF54F8500BD2
:10535000011D2046BDE87040FFF7C2BDE06921682D
:105360000431FFF78BFDE06A854238BFE56270BD0E
:10537000F0B581B0C0B140F23004C2F200040D4675
:10538000216816461831FFF7ABFDA7692068043085
:10539000FFF736FD96B154F8500B011D204601B0C1
:1053A000BDE8F040FFF79CBD4FF0500080F311883E
:1053B000BFF36F8FBFF34F8FFEE700BF2068ED197B
:1053C000456007D3206A2168043101B0BDE8F04090
:1053D000FFF754BDE06921680431FFF74FFDE06A33
:1053E000854238BFE56201B0F0BD000010B588B05D
:1053F0000020CDE9050006A805A904AAFFF712FDC3
:10540000059800283CD0069C002C43D05C21049ACF
:10541000079107995C2947D12063022084F859003D
:1054200007A80021CDE9001044F2D530C0F60000F5
:1054300027A100230294FFF711F82046FEF784FE0F
:10544000079840F23004C2F20004A062B0B100F04C
:10545000C9FE411C32D0012810D14FF0500080F31A
:105460001188BFF36F8FBFF34F8F4FF0FF30E062B3
:10547000012020610020A06100F09CF808B010BD60
:105480004FF0500080F31188BFF36F8FBFF34F8F41
:10549000FEE700BF4FF0500080F31188BFF36F8F1D
:1054A000BFF34F8FFEE700BF4FF0500080F311882D
:1054B000BFF36F8FBFF34F8FFEE700BF4FF0500079
:1054C00080F31188BFF36F8FBFF34F8FFEE700BFEC
:1054D00049444C450000000040F23000C2F2000098
:1054E000416901314161704780B540F2300EC2F22E
:1054F000000EDEF8141019B10121CEF8301080BD75
:105500000021CEF83010DEF8241040F6BC2C01EB60
:105510008102C2F2000C5CF82230002B0CEB8203FB
:105520000CD05868426803F1080082425A6023D0C8
:10553000D068CEF80000CEF8241080BD283B19B307
:105540005A6901EB8100002A0CEB800226D1012967
:105550001AD0186830BB022916D053F8140C28BB97
:10556000032911D053F8280C04390028A3F1500363
:10557000E5D02833D5E700BF52685A60D068CEF82E
:105580000000CEF8241080BD4FF0500080F3118849
:10559000BFF36F8FBFF34F8FFEE700BFA2F114037D
:1055A0000139BEE7A2F128030239BAE7A2F13C03B0
:1055B0000339B6E7B0B584B04EF2004CCEF2000C21
:1055C0009CF800100291FF218CF800109CF800104C
:1055D0008DF807109DF8071001F0500240F22801E5
:1055E000C2F200010A7007224A609DF90720B2F159
:1055F000FF3F61DC032200BFD31C4B609DF8070016
:1056000040008DF807009DF90700B0F1FF3F24DC52
:10561000931C4B609DF8070040008DF807009DF932
:105620000700B0F1FF3F18DC531C4B609DF80700EA
:1056300040008DF807009DF90700B0F1FF3F0CDC3A
:105640004A609DF80700043A40008DF807009DF974
:105650000700B0F1FF3FCFDD131D032B2CD14FF41A
:105660004070486002988CF80000DCF8200940F493
:105670007000CCF82009DCF8200940F07040CCF82C
:105680002009FFF7E3FC40F22004C2F200040025E9
:105690002560FEF75DFFFFF727FF039520684FF0B9
:1056A000500181F31188BFF36F8FBFF34F8F01302B
:1056B00012D000BFFEE700BF4FF0500080F311880A
:1056C000BFF36F8FBFF34F8FFEE700BF039830B972
:1056D000039820B9039810B903980028F6D0002049
:1056E00004B0B0BDB0B3F0B581B00546484350300A
:1056F00014460E46FFF73CF950B30027014680F8E8
:105700004670002E18BF50310160C0E90F560546A3
:10571000FFF7F4FB2868D5E90F12AF6302FB010322
:10572000013901FB0201C5E90130FF20E96085F87C
:10573000440085F8450005F11000FFF78FFB05F1E7
:105740002400FFF78BFBFFF7FDFB284685F84C4054
:1057500001B0F0BD4FF0500080F31188BFF36F8FA0
:10576000BFF34F8FFEE7000070B582B060B1ABB100
:10577000F1B9EAB14FF0500080F31188BFF36F8F99
:10578000BFF34F8FFEE700BF4FF0500080F311884A
:10579000BFF36F8FBFF34F8FFEE700BF4FF0500096
:1057A00080F31188BFF36F8FBFF34F8FFEE700BF09
:1057B00051B14AB94FF0500080F31188BFF36F8F99
:1057C000BFF34F8FFEE700BF50250195019D502D7F
:1057D0002ED1069E012483F84640002908BF1A46B0
:1057E0001A60C3E90F011C46FFF788FB2068D4E963
:1057F0000F12002502FB0103013901FB0201A56321
:10580000C4E90130FF20E16084F8440084F84500D9
:1058100004F11000FFF722FB04F12400FFF71EFB48
:10582000FFF790FB204684F84C6002B070BD00BFCB
:105830004FF0500080F31188BFF36F8FBFF34F8F8D
:10584000FEE700002DE9F04F83B00292C0B11D4683
:105850000446F9B1022D02D1E06B01285CD1164655
:105860000F4600F027FB18BB16B34FF0500080F333
:105870001188BFF36F8FBFF34F8F00BFFEE700BFEC
:105880004FF0500080F31188BFF36F8FBFF34F8F3D
:10589000FEE700BF206C0028DCD04FF0500080F302
:1058A0001188BFF36F8FBFF34F8F00BFFEE700BFBC
:1058B000FFF724FBA06B022D65D0E16B884262D319
:1058C0000298002800F018816846FFF705FDFFF7F1
:1058D00039FBFFF701FEFFF711FB94F84400FF28A6
:1058E00004BF002084F8440094F84500FF2804BF5A
:1058F000002084F84500FFF725FB684602A900F068
:1059000021FA98B12046FEF7F9FF00F0F3FB0020E2
:1059100003B0BDE8F08F00BF4FF0500080F3118856
:10592000BFF36F8FBFF34F8FFEE700BF04F1100886
:10593000FFF7E4FAD4F83890E66BFFF703FBB145C4
:1059400016D102994046FFF7D9FC2046FEF7D6FF54
:1059500000F0D0FB88B94EF60450CEF200004FF0B4
:1059600080510160BFF34F8FBFF36F8F05E000BF21
:105970002046FEF7C3FF00F0BDFBFFF7BFFAA06BA8
:10598000E16B884266D2A66B226CDAB139462DB340
:10599000E068FAF7C7FBE168206C2268091A9142B7
:1059A000E16003D2616840420844E060A81EB0FA9A
:1059B00080F040093146002E18BF01210840361AF8
:1059C00018E000BF2068A8B9606800F011FB002152
:1059D000B0FA80F0616040090DE000BFA068FAF7FE
:1059E000A1FBD4E90101226C11448142A16001D3E1
:1059F0002068A0600120711CA16354F8241FA9B184
:105A0000204600F03DFB50B14EF60450CEF20000AF
:105A10004FF080510160BFF34F8FBFF36F8FFFF7DF
:105A200091FA012003B0BDE8F08F00BF0028F6D145
:105A30004EF60450CEF200004FF080510160BFF3EB
:105A40004F8FBFF36F8FFFF77DFA012003B0BDE8E2
:105A5000F08F00BFE94602AE0CE000BF2046FEF723
:105A60004DFF00F047FBFFF749FAA06BE16B88425E
:105A7000FFF489AF029800283ED0FFF763FAFFF7E2
:105A80002BFDFFF73BFA94F84400FF2804BF0020E9
:105A900084F8440094F84500FF2804BF002084F8EF
:105AA0004500FFF74FFA4846314600F04BF9002811
:105AB0007FF428AFFFF722FAD4F838A0D4F83CB02E
:105AC000FFF740FADA45C9D102994046FFF716FCC4
:105AD0002046FEF713FF00F00DFB0028C3D14EF661
